:100000000C9471030C94A90B0C94820B0C9499031F
:100010000C9499030C9499030C9499030C949903F0
:100020000C9499030C9499030C9499030C949903E0
:100030000C9499030C9499030C9499030C949903D0
:100040000C94380B0C9499030C94F60B0C94D00B75
:100050000C9499030C94280C0C9499030C94990318
:100060000C9499030C9499034D61696E204D656E53
:10007000752C0A007265666C6F7720746F617374FB
:100080006572206F76656E2C0A0068656C6C6F2057
:10009000776F726C642C0A00FFD0FFE0FFCFFF6423
:1000A000FFD1FF32380C060201FF64FFD0FFFE00D3
:1000B000000000240027002A00000000002500287E
:1000C000002B0000000009000302000004050800E6
:1000D00000000000000000000000010204081020E1
:1000E0004080010204081020010204081020408012
:1000F000400000000023002600290004040404043A
:1001000004040402020202020203030303030302C3
:10011000020300101000FE0A01E703D5207FFE0E47
:10012000FE0BFE00000008000E010A0A0804008011
:100130008080808080800080800504040802088818
:10014000888888060A0A080100242424FC4848FC00
:10015000909090070A0A080100107C9290701C127F
:10016000927C10070A0A0801006294946810102C0F
:1001700052528C070A0A0801003844442830528A37
:10018000848C7201040408040880808080030C0CB5
:100190000803FF2040408080808080804040200312
:1001A0000C0C0802FF8040402020202020204040EE
:1001B000800707070801011092543854921007076E
:1001C00007080101101010FE1010100204040803AB
:1001D000FEC0404080040101080204F0020202084F
:1001E0000300C0C0060A0A08010004040810102019
:1001F00020408080060A0A080100304884848484F4
:1002000084844830050A0A0802002060A0202020CB
:10021000202020F8060A0A080100788484041820A7
:10022000408080FC060A0A080100788484043804AF
:1002300004848478060A0A08010008182848888877
:10024000FC080808060A0A080100FC808080F804FF
:1002500004048478060A0A08010038408080F88483
:1002600084848478060A0A080100FC04040808084B
:1002700010101010060A0A0801007884848478841B
:1002800084848478060A0A080100788484847C04C3
:1002900004040870020707080301C0C0000000C082
:1002A000C00209090803FFC0C0000000C040408030
:1002B00005090908020008102040804020100806A7
:1002C0000505080102FC000000FC05090908010001
:1002D000804020100810204080060A0A080100789B
:1002E000848404081010001010060A0A080100385F
:1002F0004494ACA4A4A49C403C060A0A0801003023
:1003000048488484FC84848484060A0A080100F82E
:10031000848484F884848484F8060A0A08010078B6
:10032000848480808080848478060A0A080100F032
:100330008884848484848488F0060A0A080100FC86
:10034000808080F880808080FC060A0A080100FC1A
:10035000808080F88080808080060A0A080100780A
:10036000848480809C84848C74060A0A080100843A
:10037000848484FC8484848484050A0A080200F846
:100380002020202020202020F8070A0A0801003E13
:10039000080808080808888870060A0A0801008406
:1003A0008890A0C0C0A0908884060A0A0801008036
:1003B0008080808080808080FC060A0A080100849A
:1003C00084CCCCB4B484848484060A0A08010084F2
:1003D000C4C4A4A494948C8C84060A0A08010078EE
:1003E000848484848484848478060A0A080100F85A
:1003F000848484F88080808080070B0B0801FF785C
:10040000848484848484B4CC7806060A0A080100B3
:10041000F8848484F89088888484060A0A08010095
:1004200078848480601804848478070A0A080100AC
:10043000FE101010101010101010060A0A0801000B
:1004400084848484848484848478070A0A0801006C
:1004500082828244444428281010060A0A080100B7
:1004600084848484B4B4CCCC8484060A0A08010051
:1004700084844848303048488484070A0A080100C8
:1004800082824444281010101010060A0A08010045
:10049000FC0404081020408080FC030C0C0804FFBE
:1004A000E080808080808080808080E0060A0A086A
:1004B000010080804020201010080404030C0C0868
:1004C00001FFE020202020202020202020E0060323
:1004D000030801093048840701010801FFFE0303F6
:1004E0000308020A804020060808080100788404F6
:1004F0007C84848C74060B0B080100808080B8C457
:1005000084848484C4B80608080801007884808044
:1005100080808478060B0B080100040404748C842A
:100520008484848C74060808080100788484FC8024
:10053000808478050B0B08010018202020F820206B
:1005400020202020060B0B0801FE04748888887088
:100550004078848478060B0B080100808080B8C442
:10056000848484848484050B0B08020020200060AE
:10057000202020202020F8050D0D0801FE0808008D
:1005800018080808080808089060060B0B08010006
:100590008080808890A0C0A0908884050B0B080202
:1005A0000060202020202020202020F807080808B4
:1005B0000100EC9292929292929206080808010031
:1005C000B8C484848484848406080808010078847C
:1005D000848484848478060A0A0801FEB8C484846A
:1005E0008484C4B88080060A0A0801FE748C84845E
:1005F00084848C740404060808080100B8C484804C
:1006000080808080060808080100788480601804D3
:100610008478050A0A080100202020F820202020E4
:1006200020180608080801008484848484848C745B
:1006300006080808010084848448484830300708C8
:1006400008080100829292929292926C0608080821
:1006500001008484483030488484060A0A0801FE78
:1006600084848484844C34040478060808080100D7
:10067000FC040810204080FC030C0C0803FF608081
:1006800080404080804040808060010E0E0804FE63
:100690008080808080808080808080808080030C4B
:1006A0000C0802FFC020204040202040402020C0F5
:1006B00007030308010862928C1010201000FEAAA4
:1006C000AA000180000001800073D1CA104BD1CA7A
:1006D0001073DF800000018000000180005555008C
:1006E000610C11241FBECFEFD8E0DEBFCDBF11E0FB
:1006F000A0E0B1E0E0E7F5E202C005900D92A0387D
:10070000B107D9F724E0A0E8B1E001C01D92A731FC
:10071000B207E1F713E0C1E7D3E004C02197FE017F
:100720000E944A12C037D107C9F70E947E0D0C946F
:10073000B6120C940000089580E008958BE39FE1C9
:100740000197F1F7089590E0FC01ED53FF4F2491DC
:10075000FC01E652FF4F3491FC01E550FF4FE4915C
:10076000EE23C9F0222339F0243001F1A8F422301D
:1007700069F1233079F1F0E0EE0FFF1FE754FF4FEE
:10078000A591B4918FB7F894EC91611126C0309582
:100790003E233C938FBF0895283071F0293091F0AB
:1007A000253049F7809180008F7D03C080918000C3
:1007B0008F7780938000DFCF8091B0008F77809318
:1007C000B000D9CF8091B0008F7DF9CF84B58F77FD
:1007D00084BDD1CF84B58F7DFBCF3E2BDACFCF93B5
:1007E000DF9390E0FC01E652FF4F249185509F4F2C
:1007F000FC0184918823D1F090E0880F991FFC01BF
:10080000E155FF4FA591B491FC01E754FF4FC5910D
:10081000D491623071F49FB7F8943C91822F809507
:1008200083238C93E8812E2B28839FBFDF91CF9168
:1008300008958FB7F894EC912E2B2C938FBFF6CFA1
:100840000895AF92BF92CF92DF92EF92FF920F93F3
:100850001F93CF93DF936C017B018B01040F151F56
:10086000EB015E01AE18BF08C017D10759F06991BE
:10087000D601ED91FC910190F081E02DC601099522
:10088000892B79F7C501DF91CF911F910F91FF90CF
:10089000EF90DF90CF90BF90AF900895FC01538D03
:1008A000448D252F30E0842F90E0821B930B54174A
:1008B00010F0CF96089501970895FC01918D828DD7
:1008C000981761F0A28DAE0FBF2FB11D5D968C9170
:1008D000928D9F5F9F73928F90E008958FEF9FEFAF
:1008E0000895FC01918D828D981731F0828DE80F6B
:1008F000F11D858D90E008958FEF9FEF0895FC0125
:10090000918D228D892F90E0805C9F4F821B9109F1
:100910008F7399270895FC01A48DA80FB92FB11DDD
:10092000A35ABF4F2C91848D90E001968F73992725
:10093000848FA689B7892C93A089B1898C91806412
:100940008C93938D848D981306C00288F389E02DD3
:1009500080818F7D80830895EF92FF920F931F9384
:10096000CF93DF93EC0181E0888F9B8D8C8D981362
:1009700016C0E889F989808185FF11C0EE89FF8959
:100980006083E889F98980818064808381E090E0D8
:10099000DF91CF911F910F91FF90EF900895F62E68
:1009A0000B8D10E00F5F1F4F0F731127E02E8C8D02
:1009B0008E110CC00FB607FCFACFE889F989808147
:1009C00085FFF5CFCE010E948B04F1CFEB8DEC0FAC
:1009D000FD2FF11DE35AFF4FF0820B8FEA89FB894F
:1009E00080818062D2CFCF93DF93EC01888D882302
:1009F000B9F0AA89BB89E889F9898C9185FD03C082
:100A0000808186FD0DC00FB607FCF7CF8C9185FF66
:100A1000F2CF808185FFEDCFCE010E948B04E9CF1C
:100A2000DF91CF910895860F911DFC0183A18F3F27
:100A300019F0642F0C94A3030895FC018081928126
:100A4000980F92832181921760F494819F5F948321
:100A50009381890F821710F08FEF820F838381E0DB
:100A6000089580E00895FC01128280818150838383
:100A7000148208952EE93FE0009709F40895F901E2
:100A80003197F1F70197F8CF30912203409121037C
:100A90005091200360911F03A0911D03B0911E038C
:100AA000E0911B03F0911C039FB790931A03F894F5
:100AB0009C91392B9C91492398E087FF0EC03C9371
:100AC000880F2081262320832081252B208391508D
:100AD000A1F780911A038FBF08954C93F1CFCF9364
:100AE000C62F81111BC088EF0E9444058C2F807F88
:100AF0000E9444058C2F8295807F0E94440588E2E5
:100B000090E0FC013197F1F7FC013197F1F7FC011E
:100B10003197F1F70197F1F7CF910895813031F7CF
:100B20008AEFE2CF90E0FC01E550FF4FE491F0E066
:100B3000EE0FFF1FE754FF4F2591349130931E03B2
:100B400020931D0370E0FB01E550FF4FE491F0E0BE
:100B5000EE0FFF1FE754FF4F2591349130931C0394
:100B600020931B0386529F4FFC01849180932203A4
:100B700066527F4FFB016491609320036095609300
:100B80001F038095809321030895EF92FF920F93A6
:100B90001F93CF93DF93EC01142F790161506730DD
:100BA00008F039C0E62FF0E0E852FA4F0C944A12F0
:100BB000DF0567061B06130629062E0664067C0160
:100BC00083E2E80EF11C8E01005D1F4FF701819159
:100BD0007F018F3F49F061E00E94EF0361E0F70180
:100BE000319780810E94A303E016F10679F740E077
:100BF00062E0CE010E94130541E064E0CE010E9454
:100C0000130540E065E0CE010E9413056FA188A5A1
:100C10000E9492051EA281E0DF91CF911F910F915A
:100C2000FF90EF9008958BA160E08F3FA1F3CE017C
:100C30000E941305F0CF411103C040E062E0F7CFFE
:100C400041E062E00E9413056FA188A50E94920511
:100C5000E2CF642F8EA10E946F05DDCF8EA181119E
:100C600015C088EF0E944405C8E2D0E0111112C0FF
:100C700088E290E0FC013197F1F7FC013197F1F740
:100C8000FC013197F1F70197F1F7C5CF813061F79A
:100C90008AEFE8CFF7018081807F0E944405F70149
:100CA00081917F018295807F0E9444051150CE0181
:100CB0000197F1F7DBCFF70164918EA10E946F05D8
:100CC000FFEFEF1AFF0A11501111F5CFA4CF4EA379
:100CD000A2CFDB011496ED91FC9130E020E065E0BD
:100CE0000994DB011496ED91FC9130E020E062E084
:100CF0000994DB011496ED91FC9130E020E063E073
:100D00000994CF93DF93EC01AE81BF819D819695CD
:100D100096959695862F8770E0E8F0E002C0F595ED
:100D2000E7958A95E2F78A81481B499F402D112457
:100D3000669566956695460F5527551FA40FB51FF6
:100D40008C91222329F0E82BEC93DF91CF91089529
:100D5000E095E823F9CFFB014181DC0112962C914B
:100D60001297421768F013962C911397241740F0AE
:100D7000608115962C91621718F424810C948106D9
:100D80000895DB01ED91FC9109940F931F93CF938C
:100D9000DF931F92CDB7DEB70091DF031091E00320
:100DA000E0910E04F0910F0482E0099530E020E01C
:100DB0004AE0B8018DED93E00E94C106182FE09142
:100DC0000E04F0910F0483E00995E0910E04F09178
:100DD0000F0480E009951123B9F16091DF03709150
:100DE000E0039E012F5F3F4F46E48DED93E00E94AC
:100DF000C10689818093DD036091DF037091E00378
:100E00009E012F5F3F4F47E48DED93E00E94C106A6
:100E100089818093DE036091DF037091E00330E00D
:100E200020E048E48DED93E00E94C1068093E80342
:100E30006091DF037091E00320E134E047E18DED44
:100E400093E00E94C10611E0812F0F90DF91CF91B6
:100E50001F910F9108950F931F93CF93E091EB0390
:100E6000F091EC03309719F08DED93E00995009126
:100E7000DF031091E003E0910E04F0910F0482E093
:100E80000995E0910E04F0910F0481E0099530E09E
:100E900020E045E1B8018DED93E00E94C106C82F26
:100EA000882341F020E134E047E1B8018DED93E083
:100EB0000E94C106E0910E04F0910F0480E00995B4
:100EC0008C2FCF911F910F9108950F931F93CF9364
:100ED000DF938C01C9EDD3E0EDA9FEA982E009956D
:100EE000EDA9FEA981E0099530E020E044E1B801D8
:100EF0008DED93E00E94C10620E134E047E1B801A6
:100F00008DED93E00E94C106EDA9FEA980E0DF917E
:100F1000CF911F910F9109940B96FC018491089534
:100F20000A96FC0184910895FC01849108950E9421
:100F30009407882321F0823011F083E0089586E041
:100F40000895FC01E60FF11D849190E0982F882709
:100F50003196E4918E0F911D089568E00C94A107DD
:100F600066E00C94A1075F926F927F928F929F929E
:100F7000AF92BF92CF92DF92EF92FF920F931F93A7
:100F8000CF93DF93EC01E62EF42EC22E0C811D814F
:100F9000C8010E949407D82E8C819D810E949707DA
:100FA000982E21E0AA24AA94D21202C02FE0A22EE9
:100FB0008C819D810E949007D82E8C819D810E94FA
:100FC0008C07B82E8C819D810E94AD07E0E6EC1560
:100FD00078F4009769F0080F191F91E6D92EBC1418
:100FE000C0F4188A1B8A1C8A198A1A8A80E0A0C059
:100FF0008C819D810E94B007F0E4FC1538F40097C5
:1010000029F0080F191F81E4D82EE9CF0F5E1F4F7A
:10101000E6CFBD1430F3892D90E0F80124912F3FE5
:1010200031F40F5F1F4FBD14E1F2D394F6CFCD1012
:1010300072C08C819D810E94940798012F5F3F4F61
:10104000F801882319F0823009F04EC084918B8B0F
:10105000F90124912C8BF8013396E491E88BF80187
:101060003496E491E98BF8013596E491EA8B011509
:10107000110509F4BBCF8C819D810E9497073C89A3
:10108000F31A9A89F91A9FEF930F9F0D2CA94EA975
:101090004F1508F449C0921718F49F1508F047C07F
:1010A0002B899989E90E9FEF920F9E0D4BA95DA99F
:1010B0005E1508F44DC0941718F49E1508F037C05B
:1010C000080F111D295F722E7694769476946F2CFA
:1010D000630E5E01FCE1AF0EB11C872C912CF6145F
:1010E00031F15E2C68014AC08491982F9F70925014
:1010F0009A8B82958F70898BF9012491822F8F7042
:101100008C8B22952F702B8BF8013296E491E2950F
:10111000EF70E88BACCF3296E491EA21E80FF92F1B
:10112000F11D0E0F1F1F7FCF921708F0B6CF8889D1
:10113000DF91CF911F910F91FF90EF90DF90CF90B3
:10114000BF90AF909F908F907F906F905F90089529
:10115000941708F0B2CFEBCFF60184916A817B81BE
:101160005C8EFD8E1F8E8E8F95014BE3CE010E940B
:10117000C106FFEFCF1ADF0A28E0520E8C2D801B2C
:10118000871550F3080D191DF394A9CFEF92FF9224
:101190000F931F93CF93DF93F82E062FE42E152F76
:1011A000E091F203F091F3038DED93E00995080FC0
:1011B000CE2DD12F10E02991211108C0812FDF9170
:1011C000CF911F910F91FF90EF900895402F6F2DB9
:1011D0008DED93E00E94B307F80E180FECCF9F92AD
:1011E000AF92BF92CF92DF92EF92FF920F931F9335
:1011F000CF93DF937C018B01942E69018AE048171D
:1012000039F195E1491709F486C0F801C281D3810B
:10121000F2E39F1609F429C1F91508F4CBC085E162
:10122000981609F427C197E1991609F433C1A4E18E
:101230009A12EFC0EE81FF818D818E0F9F2F911D3D
:1012400011928E179F07E1F7CE010E943305E1C08E
:10125000DB011496ED91FC9130E020E043E061E089
:10126000C701099580E098E9A92E90E0B92EF50113
:10127000C491811110C081E0CF3F49F04C2FB801DB
:10128000C7010E946906882309F4BFCF80E0BFEF41
:10129000AB1ABB0AECCF4FEFCF3F89F3CE3F09F437
:1012A000B4CFC03F98F7C03E38F04C2F4F70B80114
:1012B000C7010E947106EACFC03D38F04C2F4F7035
:1012C000B801C7010E947906E1CFC03CF8F0D8010F
:1012D0001496ED91FC9130E020E040E064E0C7011D
:1012E0000995C295C07FCE5FD0E0CE010E943A053D
:1012F000D8011496ED91FC9130E020E041E064E0EB
:10130000C7010995CE010E943A05C0CFC7FDBECFE7
:101310008C2F90E0F8CFFB01A280B38040E0C701A2
:101320000E94710641E0B801C7010E947906D5010B
:101330001296CC9112971696AD90BC90D8E0DC0F27
:1013400040E0B801C7010E9471064EE3B801C70131
:101350000E946906C03228F54C2F4068B801C701C9
:101360000E94690640E8B801C7010E94690641E091
:10137000B801C7010E947106D8011496ED91FC9145
:10138000950140E166E0C7010995B0E1AB0EB11CE3
:10139000CF5FCD13D5CF40E0B801C7010E947906D9
:1013A00034CF40EE4C0F4068B801C7010E94690677
:1013B00048E8D9CFB6E49B1609F47BC0E7E49E1653
:1013C00009F47BC0FBE39F1224C0D60111969C91C7
:1013D000119713968C9138E0390F813031F08330BA
:1013E00011F0392F02C0392F985021E04B81491755
:1013F00008F420E041E0391708F040E091E05A811C
:10140000351708F490E0322F342B932379F42423FA
:1014100069F481E0DF91CF911F910F91FF90EF90E0
:10142000DF90CF90BF90AF909F900895F60112810A
:1014300000E0F12C843048F490E0FC01EA5EFE4FBD
:10144000F0808E5E9E4FDC010C9117FF04C0B60148
:10145000CE010E94AB06F60180818F0D80838181D1
:10146000800F8183110F89F7D4CFB601CE010E947E
:10147000AB06CFCFCE010E941D05882359F2EE8125
:10148000FF818D818E0F9F2F911D11928E179F07C7
:10149000E1F7BFCFD6011C928A8111968C931197E8
:1014A0008D81815012968C9312978B8113968C9319
:1014B000B0CF8D81F6018083ACCF8981D6018C932A
:1014C000A8CFDC01ED91FD918081ED91FD9190819E
:1014D000ED91FD916C9163708E2309F064609F2300
:1014E00009F06860EEE7FAE0E60FF11D6595659595
:1014F0006D936D917D918D919D91099423C01AC03A
:1015000012C016C010C01EC009C014C013C006C04F
:1015100019C009C00DC007C00DC014C06250704092
:10152000804090400BC0615070408040904006C0A9
:101530006E5F01C06F5F7F4F8F4F9F4F9E938E9363
:101540007E936E9308958091C9039091CA030C9481
:10155000610A8091CB039091CC030C94610ACF93E4
:10156000C82F8A3019F48DE00E94AF0A6C2F8CE2EC
:1015700093E00E94AC0490E080E0CF910895DF9268
:10158000EF92FF920F931F93CF93DF93EC01D62E30
:101590001CAD0BAD7C0184E0E80EF11CE98DFA8DE9
:1015A000C7010995412F480F2D2D602FC7010E94BB
:1015B000B3079BAD890F8BAF81E090E0DF91CF91B6
:1015C0001F910F91FF90EF90DF900895089590E0A4
:1015D00080E008958F929F92AF92BF920F931F93D6
:1015E000CF93DF93CDB7DEB7A1970FB6F894DEBFE8
:1015F0000FBECDBF19A2423008F44AE08E010F5D44
:101600001F4F842E912CB12CA12CA50194010E9476
:101610000912E62FB901CA01EA3044F5E05DD801AC
:10162000EE938D01232B242B252B79F790E080E07E
:10163000109769F0FD0101900020E9F73197AF01A3
:101640004A1B5B0BBD0189ED93E00E942104A1962A
:101650000FB6F894DEBF0FBECDBFDF91CF911F91C3
:101660000F91BF90AF909F908F900895E95CD7CF76
:101670001F920F920FB60F9211242F933F938F93C7
:101680009F93AF93BF938091280390912903A091DA
:101690002A03B0912B033091270323E0230F2D372A
:1016A00068F126E8230F0296A11DB11D20932703A0
:1016B0008093280390932903A0932A03B0932B03CC
:1016C0008091230390912403A0912503B0912603D8
:1016D0000196A11DB11D8093230390932403A09331
:1016E0002503B0932603BF91AF919F918F913F91B6
:1016F0002F910F900FBE0F901F9018950196A11D6E
:10170000B11DD4CF1F920F920FB60F9211242F93B9
:101710003F934F935F936F937F938F939F93AF9379
:10172000BF93EF93FF93E0910A01F0910B010995AC
:10173000FF91EF91BF91AF919F918F917F916F91A9
:101740005F914F913F912F910F900FBE0F901F907F
:1017500018951F920F920FB60F9211242F933F935B
:101760004F935F936F937F938F939F93AF93BF93A9
:10177000EF93FF93E0910801F09109010995FF9122
:10178000EF91BF91AF919F918F917F916F915F91F9
:101790004F913F912F910F900FBE0F901F90189572
:1017A0001F920F920FB60F9211242F933F934F93D6
:1017B0005F936F937F938F939F93AF93BF93EF93B9
:1017C000FF938CE293E00E948B04FF91EF91BF9115
:1017D000AF919F918F917F916F915F914F913F91C9
:1017E0002F910F900FBE0F901F9018951F920F9280
:1017F0000FB60F9211242F938F939F93EF93FF9324
:10180000E0913C03F0913D038081E0914203F0912F
:10181000430382FD1BC09081809145038F5F8F73CE
:1018200020914603821741F0E0914503F0E0E45D2A
:10183000FC4F958F80934503FF91EF919F918F917E
:101840002F910F900FBE0F901F9018958081F4CFAD
:101850001F920F920FB60F9211242F938F939F9385
:10186000EF93FF9380917800E0911903F0E090E00E
:10187000EE0FFF1FE75EFD4F91838083209179007B
:10188000E0911903F0E0EE0FFF1FE75EFD4F80814E
:101890009181922B918380838091190390E001962E
:1018A0008F779927809319038FEC80937A00FF91AB
:1018B000EF919F918F912F910F900FBE0F901F90DE
:1018C000189510922F0310922E0388EE93E0A0E05B
:1018D000B0E08093300390933103A0933203B09330
:1018E00033038EE191E090932D0380932C0385ECDC
:1018F00090E0909339038093380384EC90E09093C8
:101900003B0380933A0380EC90E090933D038093F7
:101910003C0381EC90E090933F0380933E0382EC84
:1019200090E0909341038093400386EC90E0909385
:101930004303809342031092450310924603109292
:1019400047031092480362E082E00E94EF0362E0E6
:1019500083E00E94EF03EDEFF0E0E491F0E0EE0FA2
:10196000FF1FEF50FF4F859194919093CE0380938A
:10197000CD03ECEDF0E0E491E093D103EEEFF0E085
:10198000E491F0E0EE0FFF1FEF50FF4F859194912F
:101990009093D0038093CF03EDEDF0E0E491E093DA
:1019A000D2031092D4031092D5031092D603109252
:1019B000D7030E949E03E091CD03F091CE03908166
:1019C0008091D103982381E009F480E0E091CF0376
:1019D000F091D00390812091D203922309F082608C
:1019E0002DEC33E08093D3033093CA032093C903D3
:1019F00083EA9AE09093090180930801809169003D
:101A00008C7F816080936900E89A91E09093D8037D
:101A10003093CC032093CB0329EA3AE030930B01B7
:101A200020930A0180916900837F8460809369001C
:101A3000E99A82E08093D8031092DC031092DB03D2
:101A400020E331E03093DA032093D9031092140499
:101A500010921504109216041092E2031092E10302
:101A60001092E4031092E3031092E6039093E503CF
:101A700082E28093E7031092EC031092EB03E0E024
:101A8000F4E02EE034E08FEF81932E173F07E1F76B
:101A900091E09093FD032CE933E03093F30320931E
:101AA000F2039093F4031092F5031092F60390E47E
:101AB0009093F7031092F8032BE933E030930F046F
:101AC00020930E042CE031E03093E0032093DF03F9
:101AD00091E19093040493E19093050492E1909333
:101AE000020480930104809300040E94C50680E3F1
:101AF00091E09093DA038093D90308952BE032E0CC
:101B00008FEA9AE0909314028093130210921602C7
:101B10001092150282E080930E0210921802109229
:101B20001702E0913C03F0913D038083E09138037C
:101B3000F09139031082E0913A03F0913B038FEC6E
:101B4000808310924403E0914003F091410386E0CA
:101B50008083E0913E03F0913F0380818869808318
:101B6000E0913E03F0913F0380818F7D80838AE87E
:101B700090E09F938F933F932F930E94390F62E0E1
:101B800084E00E94EF0381E0809316040E94C50662
:101B90000F900F900F900F908091E1039091E203CE
:101BA0008251914099F182E191E09093E203809318
:101BB000E1038091F403811146C1E7E1F1E0E49192
:101BC000E093F503EEE1F1E0E491E093F603809118
:101BD000F503082E000C990B2091F603821B910946
:101BE00027FD93952091F703203441F0829FC00197
:101BF000112426E0969587952A95E1F78093F803BE
:101C00008CE993E09093F3038093F20384E790E0F0
:101C10009F938F93CBE0D2E0DF93CF930E94390F55
:101C200088E690E09F938F93DF93CF930E94390FC4
:101C30008DB79EB708960FB6F8949EBF0FBE8DBFA6
:101C400084E0C82ED12CE12CF12C9EE6B92EAA24DA
:101C5000A39499249394D4E68091D803823008F019
:101C600004C1F8948DEC93E00E94610A6091D40362
:101C70007091D5038091D6039091D7037894A701F2
:101C800096010E942B12C22FC370809116048111FD
:101C900004C0909216040E94C5068091DF039091C3
:101CA000E0030E9465071C2F1295107F145F4C2ED5
:101CB000512C712C612C48E351E0612F80E00E948F
:101CC000C6084AE351E06CE088E00E94C60846E49A
:101CD00051E06CE188E00E94C60846E551E06CE204
:101CE00088E00E94C6084EE551E06CE388E00E945F
:101CF000C608B09214048CE0809315044AE0C30136
:101D0000B2010E94EA0A0E942B078111D4CF4C999C
:101D1000A3CF4C9BFECFF8941092D4031092D5031E
:101D20001092D6031092D7037894C13009F094CF63
:101D300080911604811104C0A09216040E94C50669
:101D40008091DF039091E0030E9465078091D803A2
:101D5000823008F08CC0F8948DEC93E00E94610A08
:101D60006091D4037091D5038091D6039091D703ED
:101D70007894A70196010E942B128901B90190E085
:101D800080E00E94501220E030E0A9010E948D12F4
:101D9000181614F410E000E04AE451E06CE081E031
:101DA0000E94C6084CE651E06CE181E00E94C60842
:101DB00043E751E06CE281E00E94C6084AE751E047
:101DC0006CE381E00E94C608D09314048CE08093F9
:101DD00015044AE060E070E0CB010E94EA0AD0936B
:101DE00014048CE180931504B80190E080E04AE08F
:101DF0000E94EA0AD09314048CE2809315044AE00E
:101E000060E070E0CB010E94EA0AD09314048CE3F6
:101E1000809315044AE060E070E0CB010E94EA0A7A
:101E20000E942B07811192CF4C9982CF4C9BFECF01
:101E3000F8941092D4031092D5031092D603109206
:101E4000D703789409CF813041F4E1E2F1E0E491E5
:101E5000E093F503E2E2F1E0B7CEEFE1F1E0E491E7
:101E6000E093F503E0E2F1E0AFCEF894FFCEF89412
:101E700077CFB0E0A0E0EFE3FFE00C94E0110F813A
:101E80001885F801838188608383AE01455F5F4FC9
:101E900069857A85C8010E94540FF8012381277F44
:101EA0002383E4E00C94FC11ABE0B0E0EAE5FFE052
:101EB0000C94D2117C013B018A01FC01178216822D
:101EC000838181FFC8C1CE0101965C01F701938136
:101ED000F30193FD859193FF81913F01882309F4DC
:101EE00053C1853239F493FD859193FF81913F0170
:101EF000853229F4B70190E00E944411E7CF912C7C
:101F0000212C312CFFE1F31538F08B3211F190F4D4
:101F1000803209F1833229F137FC3CC020ED280FD3
:101F20002A3050F536FE20C08AE0989E200D1124FC
:101F3000922E06C08D3291F0803371F7689430F89C
:101F4000F30193FD859193FF81913F018111DACFD8
:101F500021C0689431F8689432F8F2CF689433F86D
:101F6000EFCF689434F8ECCFEAE02E9E200D1124D8
:101F7000222E689435F8E4CF8E3229F436FC04C161
:101F8000689436F8DDCF8C3619F4689437F8D8CFDA
:101F90008836B1F2982F9F7D95549330E0F08336C8
:101FA000A1F18337C1F1833509F063C02801F2E064
:101FB0004F0E511CF801C080D180692D70E036FCB5
:101FC00002C06FEF7FEFC6010E942E114C01689492
:101FD00037F882010AC00C5F1F4FFFE3F9838824A2
:101FE0008394912C6501E89437F833FE2DC0522C70
:101FF0008114910471F5552009F468CFB70180E28E
:1020000090E00E9444115A94F6CFF80180818983B0
:102010000E5F1F4FE4CF2801F2E04F0E511CF80174
:10202000C080D180692D70E036FC02C06FEF7FEF79
:10203000C6010E9439114C018201D5CFB70180E25F
:1020400090E00E9444112A942814190409F0B0F772
:10205000CECFF60137FC859137FE81916F01B70134
:1020600090E00E94441151105A94F1E08F1A9108A7
:10207000BFCF843619F0893609F077C0F80137FEF2
:102080006BC060817181828193810C5F1F4FF32D42
:10209000FF763F2E97FF09C09095809570956195CA
:1020A0007F4F8F4F9F4F689437F82AE030E0A501AB
:1020B0000E947411C82ECA188C2C432C36FE0CC0FA
:1020C000E89440F8C91440F434FE05C032FC03C063
:1020D000F32DFE7E4F2E892C44FE95C0FE01EC0DA3
:1020E000F11D8081803309F087C0242D297E422E86
:1020F000842D8870582E43FC95C040FE8FC09C2CC8
:10210000821418F42C0C922C981844FE91C0B7013C
:1021100080E390E00E94441142FE09C088E790E00D
:1021200041FE02C088E590E0B7010E944411C91445
:1021300008F48AC0CA94D12C9FEFC91AD90ACA0CD4
:10214000DB1CF60182916F01B70190E00E944411FF
:10215000AC14BD04B1F74FCF60817181072E000C24
:10216000880B990B0E5F1F4F92CFD32CE894D4F8B5
:102170002AE030E0853739F1232D297FD22E8F36A2
:1021800001F148F48835A9F0F701868197812B96F3
:10219000E2E10C94EE11803749F08837A9F7D4FEBC
:1021A00002C06894D2F820E130E00DC06894D4F801
:1021B000F6CF34FE03C0822F8660D82E20E132E0B5
:1021C00002C028E030E0F801D7FE0FC060817181C5
:1021D000828193810C5F1F4FA5010E947411C82E4C
:1021E000CA183D2CE89437F867CF6081718190E080
:1021F00080E00E5F1F4FF0CF42FC02C0839478CF87
:102200008394839475CF842D867809F471CFF6CFAB
:10221000B70180E290E00E94441183948214C0F3DD
:10222000512C73CF522C5818821408F46ECFF8CF6B
:10223000842D867809F47BCF8BE241FE80E247FC57
:102240008DE2B70190E071CFB70180E390E00E948A
:1022500044119A946CCF8FEF9FEF99CFFC010590BA
:10226000615070400110D8F7809590958E0F9F1F98
:102270000895FC016150704001900110D8F78095DD
:1022800090958E0F9F1F08950F931F93CF93DF9309
:10229000182F092FEB018B8181FD09C01FEF0FEF74
:1022A000812F902FDF91CF911F910F91089582FF81
:1022B00014C02E813F818C819D81281739073CF401
:1022C000E881F981CF0101969983888310838E81FB
:1022D0009F8101969F838E83E3CFE885F985812FC7
:1022E0000995892BA1F3DACFFA01AA27283051F1F9
:1022F000203181F1E8946F936E7F6E5F7F4F8F4F37
:102300009F4FAF4FB1E03ED0B4E03CD0670F781F95
:10231000891F9A1FA11D680F791F8A1F911DA11D7A
:102320006A0F711D811D911DA11D20D009F46894B3
:102330003F912AE0269F11243019305D3193DEF65B
:10234000CF010895462F4770405D4193B3E00FD011
:10235000C9F7F6CF462F4F70405D4A3318F0495DFC
:1023600031FD4052419302D0A9F7EACFB4E0A695DF
:102370009795879577956795BA95C9F70097610501
:10238000710508959B01AC010A2E06945795479557
:1023900037952795BA95C9F7620F731F841F951F4C
:1023A000A01D08952F923F924F925F926F927F925D
:1023B0008F929F92AF92BF92CF92DF92EF92FF9255
:1023C0000F931F93CF93DF93CDB7DEB7CA1BDB0B01
:1023D0000FB6F894DEBF0FBECDBF09942A883988A6
:1023E00048885F846E847D848C849B84AA84B984AD
:1023F000C884DF80EE80FD800C811B81AA81B981B9
:10240000CE0FD11D0FB6F894DEBF0FBECDBFED01CC
:102410000895A1E21A2EAA1BBB1BFD010DC0AA1F25
:10242000BB1FEE1FFF1FA217B307E407F50720F03D
:10243000A21BB30BE40BF50B661F771F881F991FB8
:102440001A9469F760957095809590959B01AC0101
:10245000BD01CF010895052E97FB1EF400940E9444
:10246000421257FD07D00E94091207FC03D04EF418
:102470000C94421250954095309521953F4F4F4F07
:102480005F4F089590958095709561957F4F8F4F20
:102490009F4F0895EE0FFF1F0590F491E02D0994D2
:1024A000E89409C097FB3EF49095809570956195EE
:1024B0007F4F8F4F9F4F9923A9F0F92F96E9BB27A4
:1024C0009395F695879577956795B795F111F8CF20
:1024D000FAF4BB0F11F460FF1BC06F5F7F4F8F4F8B
:1024E0009F4F16C0882311F096E911C0772321F081
:1024F0009EE8872F762F05C0662371F096E8862F19
:1025000070E060E02AF09A95660F771F881FDAF76F
:10251000880F9695879597F908950E94921208F46E
:102520008FEF0895990F0008550FAA0BE0E8FEEF12
:1025300016161706E807F907C0F012161306E40787
:10254000F50798F0621B730B840B950B39F40A2680
:1025500061F0232B242B252B21F408950A2609F45E
:10256000A140A6958FEF811D811D0895F894FFCF9E
:102570000840000000808B0120040000EF080001EB
:10258000C505000100FF0100FF0000000000AC04D1
:1025900021044E04F3047F045D0471040000000074
:1025A000BF0A2104E70AE60A3E004175746F205213
:1025B00065666C6F77005365742054656D70657245
:1025C0006174757265005365742050574D00456401
:1025D00069742053657474696E677300546172671F
:1025E00065740050574D2040200054696D6500000F
:00000001FF
