:100000000C94450C0C942A190C9403190C946D0C47
:100010000C946D0C0C946D0C0C946D0C0C946D0C7C
:100020000C946D0C0C946D0C0C946D0C0C946D0C6C
:100030000C946D0C0C94A9190C946D0C0C946D0C13
:100040000C94B9180C946D0C0C9477190C945119EC
:100050000C946D0C0C94D0190C946D0C0C946D0CCC
:100060000C946D0C0C946D0C00407A10F35A00A0A7
:10007000724E18090010A5D4E80000E87648170071
:1000800000E40B54020000CA9A3B000000E1F505B1
:10009000000080969800000040420F000000A086FB
:1000A00001000000102700000000E803000000002D
:1000B0006400000000000A000000000001000000D1
:1000C00000002C76D888DC674F0823DFC1DFAE59EB
:1000D000E1B1B796E5E3E453C63AE651997696E87E
:1000E000E6C28426EB898C9B62ED407C6FFCEFBC02
:1000F0009C9F40F2BAA56FA5F490055A2AF75C932D
:100100006B6CF9676DC11BFCE0E40D47FEF520E662
:10011000B500D0ED902E0300943577050080841E45
:10012000080000204E0A000000C80C333333330FA0
:10013000986E12831141EF8D2114893BE65516CF3D
:10014000FEE6DB18D1844B381BF77C1D901DA4BB49
:10015000E424203284725E228100C9F124ECA1E5FE
:100160003D2725732C0A0025642C200025642C20B3
:100170000025732C200025642C20006175746F20ED
:100180006D6F64652073657373696F6E207374613E
:1001900072742C0A00456469742070726F66696C11
:1001A00065204D656E752C0A004175746F204D6F8A
:1001B0006465204D656E752C0A0025732C0A002598
:1001C000732C200025732C200025732C20006D61DA
:1001D0006E75616C2074656D7065726174757265A1
:1001E00020636F6E74726F6C206D6F64652C0A00F3
:1001F00025732C0A0025732C200025732C20006DFC
:10020000616E75616C2050574D20636F6E74726F14
:100210006C206D6F64652C0A004564697420536519
:100220007474696E6773204D656E752C0A004D619C
:10023000696E204D656E752C0A007265666C6F776D
:1002400020746F6173746572206F76656E2C0A007E
:1002500068656C6C6F20776F726C642C0A00FFD03D
:10026000FFE0FFCFFF64FFD1FF32380C060201FF31
:1002700064FFD0FFFE00000000240027002A0000D9
:10028000000000250028002B0000000009000302E8
:10029000000004050800000000000000000000004D
:1002A000010204081020408001020408102001020D
:1002B0000408102040804000000000230026002990
:1002C00000040404040404040402020202020203FF
:1002D000030303030302020300101000FE0A06A733
:1002E000089500FFFE0EFE0BFE1010201000FEAA67
:1002F000AA00018000000180004A51EA505A51C909
:100300009E00018000000180000001800055551012
:1003100010201000FEAAAA00018000000180003910
:1003200093C252325F8A52719380000001800000B4
:1003300001800055551010201000FEAAAA0001806F
:1003400000000180003BA5C124311989247125805A
:1003500000000180000001800055551010201000A1
:10036000FEAAAA00018000000180007BA5C12479BB
:1003700019C124792580000001800000018000550A
:10038000551010201000FEAAAA0001800000018074
:100390000079BFC2487A49C248798980000001804B
:1003A000000001800055551010201000FEAAAA0080
:1003B000018000000180007A4DC2527B53C2D67A80
:1003C0004F80000001800000018000555510102072
:1003D0001000FEAAAA000180000001800031A5CA19
:1003E000287A31CA2849A5800000018000000180D8
:1003F0000055551010201000FEAAAA000180000030
:1004000001800073D1CA1073D1CA1073DF8000005D
:100410000180000001800055551010201000FEAA38
:10042000AA00018000000180001E3991401E319118
:10043000081E7180000001800000018000555510E9
:1004400010201000FEAAAA000180000001800022F6
:10045000F9A2203E21A2202221800000018000007C
:1004600001800055551010201000FEAAAA0001803E
:10047000000001800020F9A08020F9A0803E81804A
:100480000000018000000180005555101020100070
:10049000FEAAAA000180000001800022F9A2202209
:1004A0002194200821800000018000000180005577
:1004B000551010201000FEAAAA0001800000018043
:1004C000003EF9A0803EF9A08020818000000180DC
:1004D000000001800055551010201000FEAAAA004F
:1004E000018000000180001EF1A08820F1A0901E74
:1004F0008980000001800000018000555510102007
:100500001000FEAAAA00018000000180001E71A058
:10051000881C8982883C7180000001800000018075
:100520000055551010201000FEAAAA0001800000FE
:100530000180001EF9A0201C2182203CF9800000CF
:100540000180000001800055551010201000FEAA07
:10055000AA0001800000018000391DA510251DA5FD
:100560001039DD8000000180000001800055551029
:1005700010201000FEAAAA00018000000180007176
:1005800089CA184A09CA08719D80000001800000CC
:1005900001800055551010201000FEAAAA0001800D
:1005A00000000180007199CA044A09CA10719D8037
:1005B000000001800000018000555510102010003F
:1005C000FEAAAA00018000000180007199CA044AB5
:1005D00019CA047199800000018000000180005553
:1005E000551010201000FEAAAA0001800000018012
:1005F000007185CA0C4A15CA1C71858000000180F3
:10060000000001800055551010201000FEAAAA001D
:10061000018000000180004993EA546A59DBD44A02
:10062000538000000180000001800055551010200B
:100630001000FEAAAA00018000000180003453C20D
:100640009A31178912711380000001800000018027
:100650000055551010201000FEAAAA0001800000CD
:100660000180007BB9C1247939C124793980000027
:100670000180000001800055551010201000FEAAD6
:10068000AA00018000000180003325C4B447ADC436
:10069000A434A580000001800000018000555510A1
:1006A00010201000FEAAAA00018000000180003E78
:1006B00089A0D83EA9A0883E898000000180000062
:1006C00001800055551010201000FEAAAA000180DC
:1006D00000000180003A5DC252325D8A52719D80F5
:1006E000000001800000018000555510102010000E
:1006F000FEAAAA000180000001800079CFC2107913
:1007000091C0507B8F800000018000000180005567
:10071000551010201000FEAAAA00018000000180E0
:10072000001E7190801E61901010E1800000018019
:10073000000001800055551010201000FEAAAA00EC
:10074000018000000180000E719080166192100EF1
:10075000E18000000180000001800055551010204C
:100760001000FEAAAA00018000000180001C719206
:10077000801C61941012E180000001800000018063
:100780000055551010201000FEAAAA00018000009C
:1007900001800012719280126192100CE1800000C1
:1007A00001800000018000555500000008000E0186
:1007B0000A0A080400808080808080800080800594
:1007C000040408020888888888060A0A08010024A8
:1007D0002424FC4848FC909090070A0A0801001065
:1007E0007C9290701C12927C10070A0A0801006229
:1007F00094946810102C52528C070A0A0801003891
:1008000044442830528A848C72010404080408800D
:10081000808080030C0C0803FF2040408080808093
:100820008080404020030C0C0802FF8040402020C4
:100830002020202040408007070708010110925423
:1008400038549210070707080101101010FE10100D
:10085000100204040803FEC04040800401010802A5
:1008600004F0020202080300C0C0060A0A080100E0
:1008700004040810102020408080060A0A080100A5
:1008800030488484848484844830050A0A0802003D
:100890002060A0202020202020F8060A0A0801005D
:1008A000788484041820408080FC060A0A0801002D
:1008B00078848404380404848478060A0A080100D1
:1008C000081828488888FC080808060A0A08010051
:1008D000FC808080F80404048478060A0A08010079
:1008E00038408080F88484848478060A0A080100ED
:1008F000FC040408080810101010060A0A08010079
:1009000078848484788484848478060A0A080100C0
:10091000788484847C0404040870020707080301B7
:10092000C0C0000000C0C00209090803FFC0C00029
:100930000000C0404080050909080200081020405E
:100940008040201008060505080102FC000000FC9C
:100950000509090801008040201008102040800689
:100960000A0A080100788484040810100010100698
:100970000A0A080100384494ACA4A4A49C403C0694
:100980000A0A0801003048488484FC848484840670
:100990000A0A080100F8848484F884848484F806B0
:1009A0000A0A080100788484808080808484780624
:1009B0000A0A080100F08884848484848488F0060C
:1009C0000A0A080100FC808080F880808080FC0694
:1009D0000A0A080100FC808080F880808080800600
:1009E0000A0A08010078848480809C84848C7406C0
:1009F0000A0A08010084848484FC84848484840535
:100A00000A0A080200F82020202020202020F807D1
:100A10000A0A0801003E08080808080888887006C5
:100A20000A0A080100848890A0C0C0A090888406AB
:100A30000A0A080100808080808080808080FC0617
:100A40000A0A0801008484CCCCB4B484848484066B
:100A50000A0A08010084C4C4A4A494948C8C84065B
:100A60000A0A080100788484848484848484780653
:100A70000A0A080100F8848484F880808080800756
:100A80000B0B0801FF78848484848484B4CC7806BA
:100A9000060A0A080100F8848484F890888884840F
:100AA000060A0A0801007884848060180484847827
:100AB000070A0A080100FE10101010101010101084
:100AC000060A0A08010084848484848484848478E7
:100AD000070A0A0801008282824444442828101030
:100AE000060A0A08010084848484B4B4CCCC8484CB
:100AF000060A0A0801008484484830304848848443
:100B0000070A0A08010082824444281010101010BD
:100B1000060A0A080100FC0404081020408080FC3A
:100B2000030C0C0804FFE08080808080808080803F
:100B300080E0060A0A08010080804020201010088A
:100B40000404030C0C0801FFE020202020202020BA
:100B5000202020E006030308010930488407010132
:100B60000801FFFE03030308020A8040200608086C
:100B70000801007884047C84848C74060B0B0801C3
:100B800000808080B8C484848484C4B806080808BF
:100B900001007884808080808478060B0B08010037
:100BA000040404748C848484848C7406080808010A
:100BB00000788484FC80808478050B0B0801001881
:100BC000202020F8202020202020060B0B0801FEEA
:100BD0000474888888704078848478060B0B080138
:100BE00000808080B8C4848484848484050B0B08CE
:100BF000020020200060202020202020F8050D0D7C
:100C00000801FE080800180808080808080890608D
:100C1000060B0B0801008080808890A0C0A09088FF
:100C200084050B0B080200602020202020202020BB
:100C300020F8070808080100EC9292929292929292
:100C4000060808080100B8C48484848484840608E3
:100C5000080801007884848484848478060A0A0859
:100C600001FEB8C484848484C4B88080060A0A085B
:100C700001FE748C848484848C740404060808083F
:100C80000100B8C4848080808080060808080100C4
:100C90007884806018048478050A0A0801002020FE
:100CA00020F820202020201806080808010084844D
:100CB000848484848C740608080801008484844831
:100CC00048483030070808080100829292929292B8
:100CD000926C0608080801008484483030488484F7
:100CE000060A0A0801FE84848484844C340404784F
:100CF000060808080100FC040810204080FC030CD2
:100D00000C0803FF6080804040808040408080600D
:100D1000010E0E0804FE80808080808080808080AC
:100D200080808080030C0C0802FFC02020404020FF
:100D30002040402020C007030308010862928C1065
:100D400010201000FEAAAA0001800000018000739C
:100D5000D1CA104BD1CA1073DF800000018000009F
:100D600001800055551010201000FEAAAA00018035
:100D70000000018000719DCA5273D3C252425D804F
:100D80000000018000000180005555101020100067
:100D9000FEAAAA0001800000018000499DCA527A83
:100DA0005DCA50499180000001800000018000551B
:100DB000551010201000FEAAAA000180000001803A
:100DC000007393CA52739FCA12721380000001808D
:100DD000000001800055551010201000FEAAAA0046
:100DE000018000000180004B93EA525B9FCA524B86
:100DF00093800000018000000180005555101020F4
:100E00001000FEAAAA000180000001800074B9A6AB
:100E1000A425A5A4A474B98000000180000001806D
:100E20000055551010201000FEAAAA0001800000F5
:100E30000180004BD1EA105BD1CA104BDF8000006B
:100E40000180000001800055551010201000FEAAFE
:100E5000AA000180000001800039CDC212319F88B4
:100E600052739380000001800000018000555510EE
:100E700010201000FEAAAA00018000000180007965
:100E8000CDC212799FC0527B938000000180000088
:100E900001800055551010201000FEAAAA00018004
:100EA00000000180004B9DC9207919C9044939808F
:100EB0000000018000000180005555101020100036
:100EC000FEAAAA000180000001800025DDA4843C68
:100ED00085A48424998000000180000001800055D1
:100EE000551010201000FEAAAA0001800000018009
:100EF0000045CDC4904489A88410998000000180E9
:100F0000000001800055551010201000FEAAAA0014
:100F100001800000018000721DCA127213C21243C8
:100F2000DD80000001800000018000555510102078
:100F30001000FEAAAA00018000000180007213CAFE
:100F4000127213C21243CD800000018000000180A4
:100F50000055551010201000FEAAAA0001800000C4
:100F60000180000E2189200E218A200921800000A5
:100F70000180000001800055551010201000FEAACD
:100F8000AA000180000001800039DDC202318D8895
:100F900050739F80000001800000018000555510B3
:100FA00010201000FEAAAA00018000000180003974
:100FB000DDC202318D8842739D80000001800000F7
:100FC00001800055551010201000FEAAAA000180D3
:100FD000000001800071CFCA104A0DCA0271DD8085
:100FE0000000018000000180005555101020100005
:100FF000FEAAAA00018000000180007245CA4C725E
:1010000045C244418F8000000180000001800055EE
:10101000551010201000FEAAAA00018000000180D7
:1010200000725DCA42724DC250419F800000018033
:10103000000001800055551010201000FEAAAA00E3
:10104000018000000180003B9DC12031198904719D
:1010500039800000018000000180005555101020EB
:101060001000FEAAAA000180000001800039D3C24E
:1010700012421FC21239D38000000180000001809B
:101080000055551010201000FEAAAA000180000093
:101090000180002289B6882AA9A2D822898000006E
:1010A0000180000001800055551010201000FEAA9C
:1010B000AA00018000000180003B8DC252339F8A4C
:1010C000127213800000018000000180005555104D
:1010D00010201000FEAAAA00018000000180007B01
:1010E0008DC2527B9FC2127A1380000001800000E3
:1010F00001800055551010201000FEAAAA000180A2
:101100000000018000398FC250324D8A42719D80AB
:1011100000000180000001800055551010201000D3
:10112000FEAAAA0001800000018000339BC4222592
:10113000A394A2639B800000018000000180005501
:10114000551010201000FEAAAA00018000000180A6
:101150000039DDC20832098A0871DD800000018093
:10116000000001800055551010201000FEAAAA00B2
:101170000180000001800039DDC2084189C0483B80
:101180009D80000001800000018000555510102056
:101190001000FEAAAA00018000000180000EF99054
:1011A000200C2182201C2180000001800000018091
:1011B0000055551010201000FEAAAA000180000062
:1011C00001800031CFCA104991C850338F80000090
:1011D0000180000001800055551010201000FEAA6B
:1011E000AA00018000000180001C8992D81CA990EF
:1011F0008810898000000180000001800055551092
:1012000010201000FEAAAA00018000000180003317
:101210008FCA507B91CA104A0F80000001800000E5
:10122000018000555500000008000E010A0A08045C
:101230000080800080808080808080070A0A08010A
:101240000010107C929090927C1010070A0A0801FE
:10125000001C202020F82020207CC206080808015D
:10126000018448784848784884070A0A08010082BF
:10127000442810FE10FE101010010A0A0804008015
:10128000808080000080808080060A0A0801007843
:1012900084807884847804847804020208020C90A4
:1012A00090080A0A0800003C4299A5A1A1A599420C
:1012B0003C050707080205700878887800F80609D9
:1012C00009080100242448489048482424060404BE
:1012D000080100FC0404041010201000FEAAAA005B
:1012E0000180003A63C25433C98A487249800000C1
:1012F00001800003C18000000180005555080A0AE2
:101300000800003C42B9A5A5B9A9A5423C060101C7
:1013100008010BFC03040408020A40A0A0400709CE
:1013200009080101101010FE10101000FE0507073B
:10133000080205708808708080F805070708020514
:101340007088087008887003030308030A2040802F
:10135000080A0A0800FE4242424242426659408060
:10136000060C0C0801FF7CF4F4F4F4741414141447
:10137000141C020202080304C0C00302020802FE99
:1013800020C00307070802052060A02020202005B8
:101390000707080205708888887000F806090908A0
:1013A0000100909048482448489090060A0A080195
:1013B0000044C4485050242C549C84060A0A080156
:1013C0000044C4485050283444889C060A0A080146
:1013D00000C4244830D0242C549C84060A0A0801F6
:1013E0000010100010106084848478060E0E08012E
:1013F00000601800003048488484FC84848484069B
:101400000E0E080100186000003048488484FC84F7
:10141000848484060E0E08010030480000304848DD
:101420008484FC84848484060E0E08010064980081
:10143000003048488484FC84848484060E0E0801AD
:1014400000484800003048488484FC848484840632
:101450000E0E080100304830003048488484FC8477
:10146000848484070A0A0801003E509090FE909000
:1014700090909E060C0C0801FE7884848080808009
:101480008484781060060E0E08010060180000FCCD
:10149000808080F880808080FC060E0E0801001895
:1014A000600000FC808080F880808080FC060E0E4A
:1014B00008010030480000FC808080F88080808037
:1014C000FC060E0E08010048480000FC808080F8F1
:1014D00080808080FC050E0E08020060180000F875
:1014E0002020202020202020F8050E0E08020030A9
:1014F000C00000F82020202020202020F8050E0E1B
:1015000008020060900000F82020202020202020E9
:10151000F8050E0E08020090900000F82020202010
:1015200020202020F8070A0A08000078444242F2EE
:101530004242424478060E0E08010064980000847E
:10154000C4C4A4A494948C8C84060E0E080100607C
:1015500018000078848484848484848478060E0E41
:101560000801001860000078848484848484848462
:1015700078060E0E080100304800007884848484C8
:101580008484848478060E0E080100649800007834
:10159000848484848484848478060E0E0801004840
:1015A00048000078848484848484848478060505D3
:1015B0000801028448304884060C0C0801FF0474BA
:1015C000888C9494A4A4C444B880060E0E0801002C
:1015D0006018000084848484848484848478060E63
:1015E0000E0801001860000084848484848484844C
:1015F0008478060E0E08010030480000848484843C
:10160000848484848478060E0E0801004848000013
:1016100084848484848484848478070E0E08010082
:101620001860000082824444281010101010060B2D
:101630000B0801008080F088848488F08080800618
:101640000A0A08010070888890B0888484A49806EB
:101650000C0C080100601800007884047C84848CE1
:1016600074060C0C080100186000007884047C8467
:10167000848C74060C0C0801003048000078840447
:101680007C84848C74060C0C08010064980000783B
:1016900084047C84848C74060C0C08010048480087
:1016A000007884047C84848C74060D0D080100305D
:1016B000483000007884047C84848C74070808080F
:1016C00001007C92127E9090927C060A0A0801FE2C
:1016D00078848080808084781060060C0C0801007B
:1016E00060180000788484FC80808478060C0C08E4
:1016F000010018600000788484FC80808478060CE7
:101700000C08010030480000788484FC80808478D4
:10171000060C0C08010048480000788484FC808096
:101720008478050C0C080200C030000060202020E6
:10173000202020F8050C0C08020030C000006020BA
:101740002020202020F8050C0C08020060900000EA
:1017500060202020202020F8050C0C08020090902A
:10176000000060202020202020F8060C0C0801003A
:1017700064182844047C848484848478060C0C08CF
:10178000010064980000B8C4848484848484060CB6
:101790000C080100601800007884848484848478B4
:1017A000060C0C080100186000007884848484848E
:1017B0008478060C0C08010030480000788484848A
:1017C00084848478060C0C080100649800007884F6
:1017D000848484848478060C0C0801004848000046
:1017E00078848484848484780607070801013000A3
:1017F00000FC000030060A0A0801FF04788C94946B
:10180000A4A4C47880060C0C0801006018000084B1
:1018100084848484848C74060C0C08010018600095
:10182000008484848484848C74060C0C0801003049
:101830004800008484848484848C74060C0C080121
:1018400000484800008484848484848C74060E0ECE
:101850000801FE1860000084848484844C340404ED
:1018600078050C0C0802FE8080F088888890A0C063
:10187000808080060E0E0801FE48480000848484A3
:1018800084844C3404047800091A11241FBECFEF5D
:10189000D8E0DEBFCDBF12E0A0E0B1E0EAEBFAE6AF
:1018A00002C005900D92AE3DB107D9F726E0AEED2E
:1018B000B2E001C01D92AD3BB207E1F71CE0C5E408
:1018C000DCE004C02197FE010E94DF32C434D1075E
:1018D000C9F70E94261B0C945B350C9400000895F8
:1018E00080E008958F929F92AF92BF92CF92DF9245
:1018F000EF92FF92CF9320E030E0A90160918F0535
:101900007091900580919105909192050E94B1345B
:1019100018160CF03FC08090930590909405A0900D
:101920009505B090960520E030E0A901C501B4010D
:101930000E94B134181674F5C0909705D0909805A0
:10194000E0909905F0909A05A7019601C501B401B0
:101950000E9452331816F4F020919D0530919E0597
:1019600040919F055091A005C701B6010E945233D6
:10197000181684F0C1E020E030E0A9016091A305D1
:101980007091A4058091A5059091A6050E94B1349F
:1019900018160CF0C0E08C2FCF91FF90EF90DF90E5
:1019A000CF90BF90AF909F908F900895000000005F
:1019B0008BE99FE00197F1F7089590E0FC01E7576C
:1019C000FD4F2491FC01E056FD4F3491FC01EF5393
:1019D000FD4FE491EE23C9F0222339F0243001F1C8
:1019E000A8F4223069F1233079F1F0E0EE0FFF1F07
:1019F000E158FD4FA591B4918FB7F894EC91611126
:101A000026C030953E233C938FBF0895283071F057
:101A1000293091F0253049F7809180008F7D03C0F7
:101A2000809180008F7780938000DFCF8091B0001D
:101A30008F778093B000D9CF8091B0008F7DF9CFA0
:101A400084B58F7784BDD1CF84B58F7DFBCF3E2BFE
:101A5000DACFCF93DF9390E0FC01E056FD4F249165
:101A60008F539D4FFC0184918823D1F090E0880F23
:101A7000991FFC01EB58FD4FA591B491FC01E15871
:101A8000FD4FC591D491623071F49FB7F8943C91A9
:101A9000822F809583238C93E8812E2B28839FBFF0
:101AA000DF91CF9108958FB7F894EC912E2B2C9362
:101AB0008FBFF6CF3FB7F89480918B0590918C053E
:101AC000A0918D05B0918E0526B5A89B05C02F3F2E
:101AD00019F00196A11DB11D3FBFBA2FA92F982F54
:101AE0008827BC01CD01620F711D811D911D43E04E
:101AF000660F771F881F991F4A95D1F708958F9217
:101B00009F92AF92BF92CF92DF92EF92FF924B01E2
:101B10005C010E945A0D6B017C010E945A0D6C19E8
:101B20007D098E099F09683E734081059105A8F3E0
:101B300021E0821A9108A108B10888EEC80E83E05E
:101B4000D81EE11CF11C81149104A104B10429F7F1
:101B5000FF90EF90DF90CF90BF90AF909F908F90CD
:101B600008952FB7F894609187057091880580914A
:101B7000890590918A052FBF08950895AF92BF926D
:101B8000CF92DF92EF92FF920F931F93CF93DF9349
:101B90006C017B018B01040F151FEB015E01AE1878
:101BA000BF08C017D10759F06991D601ED91FC919A
:101BB0000190F081E02DC6010995892B79F7C501C7
:101BC000DF91CF911F910F91FF90EF90DF90CF9019
:101BD000BF90AF900895FC01538D448D252F30E0C8
:101BE000842F90E0821B930B541710F0CF9608952A
:101BF00001970895FC01918D828D981761F0A28D57
:101C0000AE0FBF2FB11D5D968C91928D9F5F9F731C
:101C1000928F90E008958FEF9FEF0895FC01918DD2
:101C2000828D981731F0828DE80FF11D858D90E03F
:101C300008958FEF9FEF0895FC01918D228D892FDC
:101C400090E0805C9F4F821B91098F7399270895C4
:101C5000FC01A48DA80FB92FB11DA35ABF4F2C9121
:101C6000848D90E001968F739927848FA689B78918
:101C70002C93A089B1898C9180648C93938D848DF1
:101C8000981306C00288F389E02D80818F7D8083C0
:101C90000895EF92FF920F931F93CF93DF93EC0180
:101CA00081E0888F9B8D8C8D981316C0E889F98907
:101CB000808185FF11C0EE89FF896083E889F989F9
:101CC00080818064808381E090E0DF91CF911F91DB
:101CD0000F91FF90EF900895F62E0B8D10E00F5F9F
:101CE0001F4F0F731127E02E8C8D8E110CC00FB675
:101CF00007FCFACFE889F989808185FFF5CFCE010D
:101D00000E94280EF1CFEB8DEC0FFD2FF11DE35A51
:101D1000FF4FF0820B8FEA89FB8980818062D2CFEE
:101D2000CF93DF93EC01888D8823B9F0AA89BB8912
:101D3000E889F9898C9185FD03C0808186FD0DC0FD
:101D40000FB607FCF7CF8C9185FFF2CF808185FF1E
:101D5000EDCFCE010E94280EE9CFDF91CF910895FB
:101D60000895860F911DFC0183A18F3F19F0642F08
:101D70000C94DD0C0895FC0180819281980F928370
:101D80002181921760F494819F5F94839381890FDE
:101D9000821710F08FEF820F838381E0089580E037
:101DA0000895FC01128280818150838314820895FA
:101DB0002EEC37E0009709F40895F9013197F1F717
:101DC0000197F8CF309185054091840550918305A6
:101DD00060918205A0918005B0918105E0917E051A
:101DE000F0917F059FB790937D05F8949C91392BD6
:101DF0009C91492398E087FF0EC03C93880F208177
:101E0000262320832081252B20839150A1F78091C8
:101E10007D058FBF08954C93F1CFCF93C62F8111CD
:101E20001BC088EF0E94E20E8C2F807F0E94E20E82
:101E30008C2F8295807F0E94E20E84E190E0FC016D
:101E40003197F1F7FC013197F1F7FC013197F1F788
:101E50000197F1F7CF910895813031F78AEFE2CF02
:101E600090E0FC01EF53FD4FE491F0E0EE0FFF1F17
:101E7000E158FD4F259134913093810520938005E1
:101E800070E0FB01EF53FD4FE491F0E0EE0FFF1F18
:101E9000E158FD4F2591349130937F0520937E05C5
:101EA00080569D4FFC0184918093850560567D4F3F
:101EB000FB01649160938305609560938205809532
:101EC000809384050895EF92FF920F931F93CF9311
:101ED000DF93EC01142F79016150673008F039C0AD
:101EE000E62FF0E0EA58F04F0C94DF327D0F05103A
:101EF000B90FB10FC70FCC0F02107C0183E2E80EBF
:101F0000F11C8E01005D1F4FF70181917F018F3F12
:101F100049F061E00E94290D61E0F701319780816D
:101F20000E94DD0CE016F10679F740E062E0CE0198
:101F30000E94B10E41E064E0CE010E94B10E40E08B
:101F400065E0CE010E94B10E6FA188A50E94300FFE
:101F50001EA281E0DF91CF911F910F91FF90EF9032
:101F600008958BA160E08F3FA1F3CE010E94B10ED6
:101F7000F0CF411103C040E062E0F7CF41E062E002
:101F80000E94B10E6FA188A50E94300FE2CF642F8E
:101F90008EA10E940D0FDDCF8EA1811115C088EF9B
:101FA0000E94E20EC4E1D0E0111112C084E190E081
:101FB000FC013197F1F7FC013197F1F7FC01319702
:101FC000F1F70197F1F7C5CF813061F78AEFE8CFDC
:101FD000F7018081807F0E94E20EF70181917F01ED
:101FE0008295807F0E94E20E1150CE010197F1F799
:101FF000DBCFF70164918EA10E940D0FFFEFEF1A66
:10200000FF0A11501111F5CFA4CF4EA3A2CFDB01CF
:102010001496ED91FC9130E020E065E00994DB013D
:102020001496ED91FC9130E020E062E00994DB0130
:102030001496ED91FC9130E020E063E00994CF9399
:10204000DF93EC01AE81BF819D8196959695969523
:10205000862F8770E0E8F0E002C0F595E7958A9555
:10206000E2F78A81481B499F402D112466956695A9
:102070006695460F5527551FA40FB51F8C91222337
:1020800029F0E82BEC93DF91CF910895E095E823B8
:10209000F9CFFB014181DC0112962C911297421776
:1020A00068F013962C911397241740F060811596D1
:1020B0002C91621718F424810C941F100895DB01F1
:1020C000ED91FC9109940F931F93CF93DF931F928F
:1020D000CDB7DEB70091850610918606E091B40673
:1020E000F091B50682E0099530E020E04AE0B801C1
:1020F00083E896E00E945F10182FE091B406F091FB
:10210000B50683E00995E091B406F091B50680E04C
:1021100009951123B9F160918506709186069E019B
:102120002F5F3F4F46E483E896E00E945F1089816D
:102130008093830660918506709186069E012F5FCD
:102140003F4F47E483E896E00E945F1089818093C7
:102150008406609185067091860630E020E048E4B0
:1021600083E896E00E945F1080938E06609185065A
:102170007091860626EB36E047E183E896E00E9400
:102180005F1011E0812F0F90DF91CF911F910F9180
:102190000895EF92FF921F93CF93DF93EC01EE85AA
:1021A000FF85309709F00995EA80FB80E9A9FAA933
:1021B00082E00995E9A9FAA981E0099530E020E0DB
:1021C00045E1B701CE010E945F10182F882341F02E
:1021D0009E012D5C3F4F47E1B701CE010E945F1089
:1021E000E9A9FAA980E00995812FDF91CF911F918C
:1021F000FF90EF9008950B96FC01849108950A9644
:10220000FC0184910895FC01849108950E940311BA
:10221000882321F0823011F083E0089586E008954C
:10222000FC01E60FF11D849190E0982F88273196EC
:10223000E4918E0F911D089568E00C94101166E0F2
:102240000C9410115F926F927F928F929F92AF9237
:10225000BF92CF92DF92EF92FF920F931F93CF9393
:10226000DF93EC01E62EF42EC22E0C811D81C801F5
:102270000E940311D82E8C819D810E940611982EF8
:1022800021E0AA24AA94D21202C02FE0A22E8C81AF
:102290009D810E94FF10D82E8C819D810E94FB1091
:1022A000B82E8C819D810E941C11E0E6EC1578F41B
:1022B000009769F0080F191F91E6D92EBC14C0F4DD
:1022C000188A1B8A1C8A198A1A8A80E0A0C08C810D
:1022D0009D810E941F11F0E4FC1538F4009729F04D
:1022E000080F191F81E4D82EE9CF0F5E1F4FE6CFEC
:1022F000BD1430F3892D90E0F80124912F3F31F483
:102300000F5F1F4FBD14E1F2D394F6CFCD1072C012
:102310008C819D810E94031198012F5F3F4FF8012E
:10232000882319F0823009F04EC084918B8BF9011B
:1023300024912C8BF8013396E491E88BF8013496C4
:10234000E491E98BF8013596E491EA8B01151105CA
:1023500009F4BBCF8C819D810E9406113C89F31A40
:102360009A89F91A9FEF930F9F0D2CA94EA94F152B
:1023700008F449C0921718F49F1508F047C02B893C
:102380009989E90E9FEF920F9E0D4BA95DA95E15ED
:1023900008F44DC0941718F49E1508F037C0080FC4
:1023A000111D295F722E7694769476946F2C630EAD
:1023B0005E01FCE1AF0EB11C872C912CF61431F1BB
:1023C0005E2C68014AC08491982F9F7092509A8B1E
:1023D00082958F70898BF9012491822F8F708C8B5D
:1023E00022952F702B8BF8013296E491E295EF70D5
:1023F000E88BACCF3296E491EA21E80FF92FF11D7A
:102400000E0F1F1F7FCF921708F0B6CF8889DF917C
:10241000CF911F910F91FF90EF90DF90CF90BF90E1
:10242000AF909F908F907F906F905F9008959417DA
:1024300008F0B2CFEBCFF60184916A817B815C8E8C
:10244000FD8E1F8E8E8F95014BE3CE010E945F1093
:10245000FFEFCF1ADF0A28E0520E8C2D801B871564
:1024600050F3080D191DF394A9CF9F92AF92BF921C
:10247000CF92DF92EF92FF920F931F93CF93DF9350
:102480007C018B01942E69018AE0481739F195E1AE
:10249000491709F486C0F801C281D381F2E39F167F
:1024A00009F429C1F91508F4CBC085E1981609F49F
:1024B00027C197E1991609F433C1A4E19A12EFC03C
:1024C000EE81FF818D818E0F9F2F911D11928E17AE
:1024D0009F07E1F7CE010E94D10EE1C0DB01149607
:1024E000ED91FC9130E020E043E061E0C701099507
:1024F00080E09EE5A92E92E0B92EF501C4918111EC
:1025000010C081E0CF3F49F04C2FB801C7010E94B5
:102510000710882309F4BFCF80E0BFEFAB1ABB0AD6
:10252000ECCF4FEFCF3F89F3CE3F09F4B4CFC03F9C
:1025300098F7C03E38F04C2F4F70B801C7010E9489
:102540000F10EACFC03D38F04C2F4F70B801C701D3
:102550000E941710E1CFC03CF8F0D8011496ED911D
:10256000FC9130E020E040E064E0C7010995C295AD
:10257000C07FCE5FD0E0CE010E94D80ED801149665
:10258000ED91FC9130E020E041E064E0C701099565
:10259000CE010E94D80EC0CFC7FDBECF8C2F90E0D9
:1025A000F8CFFB01A280B38040E0C7010E940F106A
:1025B00041E0B801C7010E941710D5011296CC91D5
:1025C00012971696AD90BC90D8E0DC0F40E0B801B1
:1025D000C7010E940F104EE3B801C7010E94071007
:1025E000C03228F54C2F4068B801C7010E9407107F
:1025F00040E8B801C7010E94071041E0B801C701D7
:102600000E940F10D8011496ED91FC91950140E1C4
:1026100066E0C7010995B0E1AB0EB11CCF5FCD13E9
:10262000D5CF40E0B801C7010E94171034CF40EE6B
:102630004C0F4068B801C7010E94071048E8D9CF85
:10264000B6E49B1609F47BC0E7E49E1609F47BC050
:10265000FBE39F1224C0D60111969C91119713960B
:102660008C9138E0390F813031F0833011F0392FFF
:1026700002C0392F985021E04B81491708F420E01F
:1026800041E0391708F040E091E05A81351708F42D
:1026900090E0322F342B932379F4242369F481E0E2
:1026A000DF91CF911F910F91FF90EF90DF90CF902E
:1026B000BF90AF909F900895F601128100E0F12C39
:1026C000843048F490E0FC01E85EFE4FF0808C5EC0
:1026D0009E4FDC010C9117FF04C0B601CE010E9491
:1026E0004910F60180818F0D80838181800F818365
:1026F000110F89F7D4CFB601CE010E944910CFCF78
:10270000CE010E94BB0E882359F2EE81FF818D819C
:102710008E0F9F2F911D11928E179F07E1F7BFCF4C
:10272000D6011C928A8111968C9311978D818150CC
:1027300012968C9312978B8113968C93B0CF8D81C8
:10274000F6018083ACCF8981D6018C93A8CFDC01C0
:10275000ED91FD918081ED91FD919081ED91FD9143
:102760006C9163708E2309F064609F2309F06860A8
:10277000E4ECF3E1E60FF11D659565956D936D91C0
:102780007D918D919D91099423C01AC012C016C0ED
:1027900010C01EC009C014C013C006C019C009C0B3
:1027A0000DC007C00DC014C0625070408040904002
:1027B0000BC0615070408040904006C06E5F01C009
:1027C0006F5F7F4F8F4F9F4F9E938E937E936E933D
:1027D000089580916F06909170060C94A7138091D4
:1027E0007106909172060C94A71380917E06823038
:1027F000B8F4F89483E796E00E94A71360917A06F4
:1028000070917B0680917C0690917D0610927A06ED
:1028100010927B0610927C0610927D0678940895A3
:10282000F894ECCF80917E06823078F4F89483E7B8
:1028300096E00E94A71360917A0670917B068091C2
:102840007C0690917D0678940895F894F4CFCF9308
:10285000C82F8A3019F48DE00E9427146C2F82ED66
:1028600095E00E94490E90E080E0CF910895EF92AC
:10287000FF920F931F93CF93DF93F62E042FE22E38
:10288000132FE0919806F091990683E896E0099558
:10289000080FCE2DD12F10E02991211108C0812FD2
:1028A000DF91CF911F910F91FF90EF900895402FEE
:1028B0006F2D83E896E00E942211F80E180FECCFDE
:1028C000CF93DF93FC0125AD211104C021E025AF9A
:1028D0000E946310C0918506D0918606E091B406EF
:1028E000F091B50682E00995E091B406F091B50645
:1028F00081E0099530E020E044E1BE0183E896E004
:102900000E945F1026EB36E047E1BE0183E896E0C7
:102910000E945F10E091B406F091B50680E0DF916F
:10292000CF910994DF92EF92FF920F931F93CF9371
:10293000DF93EC01D62E1CAD0BAD7C0184E0E80EDC
:10294000F11CE98DFA8DC7010995412F480F2D2DF6
:10295000602FC7010E9422119BAD890F8BAF81E0D0
:1029600090E0DF91CF911F910F91FF90EF90DF905A
:102970000895089590E080E0089580916203909119
:1029800063038F3F9140B1F410926303109262038E
:102990008091690490916A0490936103809360032D
:1029A0008091600390916103892B11F05E9A0895E4
:1029B0005E980895209160033091610380916203D5
:1029C000909163038217930708F05E9880916203E9
:1029D000909163030196909363038093620308953B
:1029E000EF92FF920F931F93CF93DF938EEBE82E1E
:1029F00085E0F82ED0E0C0E010E0F70101917F0102
:102A0000602FCE010E94553210272196C431D10586
:102A1000A1F7612F84E190E0DF91CF911F910F9199
:102A2000FF90EF900C945532EF92FF920F931F930B
:102A3000CF93DF938FE8E82E85E0F82EC6E1D0E053
:102A400010E0F70101917F01602FCE010E94553205
:102A500010272196CE32D105A1F7612F8EE290E0AA
:102A6000DF91CF911F910F91FF90EF900C94553211
:102A7000FB0101900020E9F73197AF01461B570B8E
:102A80000C94BE0D8F929F92AF92BF92EF92FF92E5
:102A90000F931F93CF93DF93CDB7DEB7A1970FB6F8
:102AA000F894DEBF0FBECDBF7C01FA01CB0119A2A5
:102AB000223008F42AE08E010F5D1F4F822E912CE8
:102AC000B12CA12CBF01A50194010E949E32F901F5
:102AD000CA016A300CF5605DD8016E938D01232B1D
:102AE000242B252B79F790E080E0109721F0BD0191
:102AF000C7010E943815A1960FB6F894DEBF0FBE2D
:102B0000CDBFDF91CF911F910F91FF90EF90BF90BC
:102B1000AF909F908F900895695CDECF242FAB011A
:102B200070E060E00C9442154F925F926F927F923A
:102B30008F929F92AF92BF92EF92FF920F931F934B
:102B4000CF93DF938C014A015B01E22EAB0194012C
:102B5000CB01B4010E9456356AE371E0811126C0B1
:102B600024013501E89477F82FEF3FEF4FE75FE757
:102B7000C301B2010E94563581110CC02FEF3FEF07
:102B80004FE75FE7C301B2010E9452336EE371E089
:102B9000181664F02FEF3FEF4FE75FE4C501B40173
:102BA0000E94B13418169CF462E471E0C801DF9110
:102BB000CF911F910F91FF90EF90BF90AF909F909A
:102BC0008F907F906F905F904F900C9438152FEFFF
:102BD0003FEF4FE75FECC501B4010E94523387FD20
:102BE000E3CF20E030E0A901C501B4010E945233D7
:102BF000D0E0C0E087FF09C06DE2C8010E949214D6
:102C0000EC01B7FAB094B7F8B094FE2C712C60E0E8
:102C100070E080E09FE37E1440F420E030E040E28A
:102C200051E40E9457337394F6CFA50194010E949A
:102C3000E6324B015C010E94D0332B013C012AE0BB
:102C4000BC01A201C8010E944215C80FD91FEE2085
:102C5000C1F1C301B2010E94FF339B01AC01C50168
:102C6000B4010E94E5324B015C016EE2C8010E9492
:102C70009214C80FD91FFA948FEFF81611F120E0C3
:102C800030E040E251E4C501B4010E94E9342B0177
:102C90003C010E94D0334B014AE050E0C8010E9441
:102CA0008E15C80FD91FB40190E080E00E94FF3359
:102CB0009B01AC01C301B2010E94E5324B015C01F2
:102CC000DACFCE01DF91CF911F910F91FF90EF905E
:102CD000BF90AF909F908F907F906F905F904F903C
:102CE0000895EF92FF921F93CF93DF938EEBE82E20
:102CF00085E0F82ED0E0C0E010E0CE010E944D3219
:102D0000F70181937F0118272196C431D105A9F7D6
:102D100084E190E00E944D3218131FC020E030E0A3
:102D2000A9016091CA057091CB058091CC05909165
:102D3000CD050E94B134181684F420E030E0A901DA
:102D40006091CE057091CF058091D0059091D1050D
:102D50000E94B13418160CF443C080E090E8ABEB4D
:102D6000B5E48093BE059093BF05A093C005B093D2
:102D7000C10580E090E0A0EAB1E48093C2059093A1
:102D8000C305A093C405B093C50580E090E0A0E022
:102D9000B0E88093C6059093C705A093C805B0938B
:102DA000C90580E090E0A1E6B3E48093CA05909362
:102DB000CB05A093CC05B093CD0580E090E0A6E9CB
:102DC000B3E48093CE059093CF05A093D005B09344
:102DD000D105DF91CF911F91FF90EF900C94F014EB
:102DE000DF91CF911F91FF90EF9008950F931F9364
:102DF00007EA15E021E04BEE0E941E2DFC01019038
:102E00000020E9F73197E81BF90B3E2FE1500E2E19
:102E1000000CFF0B3196E80FF91F20E04291403281
:102E200039F42150432F420F47FD02C01082F6CFE4
:102E30001F910F91089520EC3EE34AEF5EE30E945C
:102E400057330E94B634CB01089590E080E02FEF15
:102E50003FE750E040E0FA01EE0FFF1FE458FB4F60
:102E6000608171818617970708F4CB016217730799
:102E700008F49B014F5F5F4F4038510561F7821B9B
:102E8000930B96958795AC01420F531F20917C05BB
:102E900030E0E0E060E070E0CB01D901AA0FBB1F99
:102EA000A458BB4F0D90BC91A02DA417B50728F0D6
:102EB0006A0F7B1F811D911DEF5F21583F4F2F77B8
:102EC0003327E03251F70E94FF3320E030E040E04A
:102ED0005DE30E94E9340E94B63420917A04309177
:102EE0007B04C90105976817790720F4263031055E
:102EF00008F0BC0170937B0460937A04CB010895C1
:102F00004F925F926F927F928F929F92AF92BF92F9
:102F1000CF92DF92EF92FF920F931F93CF93DF93A5
:102F2000CDB7DEB72A970FB6F894DEBF0FBECDBF80
:102F30004B015C0129013A011A870987870120E0CA
:102F400030E0A9010E945233811124C0E985FA853D
:102F50001082118212821382F70110821182128272
:102F6000138290E080E02A960FB6F894DEBF0FBE81
:102F7000CDBFDF91CF911F910F91FF90EF90DF9028
:102F8000CF90BF90AF909F908F907F906F905F9009
:102F90004F90089520E030E0A901C501B4010E94DE
:102FA000523387FF03C0812C912C5401A30192015D
:102FB000C501B4010E94E5322B013C012091BE0500
:102FC0003091BF054091C0055091C1050E94E93480
:102FD00069837A838B839C83E985FA85208131819B
:102FE00042815381C301B2010E94E6326B017C0130
:102FF000A3019201F80160817181828193810E9415
:10300000E5322091C6053091C7054091C805509121
:10301000C9050E94E9346D837E838F839887F80108
:10302000408251826282738220EC3EE34AEF5EE38B
:10303000C501B4010E94E9342091CA053091CB0545
:103040004091CC055091CD050E94573320E03FEFD1
:103050004FE757E40E94E93429813A814B815C8132
:103060000E94E6324B015C012091C2053091C305FC
:103070004091C4055091C505C701B6010E94E934CD
:103080009B01AC01C501B4010E94E6322D813E8155
:103090004F8158850E94E6324B015C0120E03FEFF2
:1030A0004FE757E40E94B13487FD0CC0E985FA85EB
:1030B0002081318142815381C701B6010E94523380
:1030C00087FD28C020E030E0A901C501B4010E94BD
:1030D000523387FF0CC0E985FA8520813181428116
:1030E0005381C701B6010E94B13418169CF020E04C
:1030F0003FEF4FE757E4C501B4010E945233181661
:103100007CF020E030E0A901C501B4010E94B13497
:1031100087FD06C0E985FA85C082D182E282F3820A
:1031200020E03FEF4FE757E4C501B4010E94B134FE
:1031300018166CF020E030E0A901C501B4010E942E
:10314000523387FF0BC0812C912C540107C0812C76
:1031500099249A948FE7A82E87E4B82EC501B4016C
:103160000E94B634CB01FFCE2AE047EA55E00C942A
:103170003C2D1F920F920FB60F9211242F933F9365
:103180008F939F93AF93BF9380918705909188050C
:10319000A0918905B0918A053091860526E0230F1C
:1031A0002D3768F129E8230F0396A11DB11D209347
:1031B00086058093870590938805A0938905B09331
:1031C0008A0580918B0590918C05A0918D05B09119
:1031D0008E050196A11DB11D80938B0590938C05E2
:1031E000A0938D05B0938E05BF91AF919F918F9164
:1031F0003F912F910F900FBE0F901F901895029640
:10320000A11DB11DD4CF1F920F920FB60F921124A2
:103210002F933F934F935F936F937F938F939F93DE
:10322000AF93BF93EF93FF93E0910C01F0910D01E9
:103230000995FF91EF91BF91AF919F918F917F91F0
:103240006F915F914F913F912F910F900FBE0F9013
:103250001F9018951F920F920FB60F9211242F9363
:103260003F934F935F936F937F938F939F93AF930E
:10327000BF93EF93FF93E0910A01F0910B01099541
:10328000FF91EF91BF91AF919F918F917F916F913E
:103290005F914F913F912F910F900FBE0F901F9014
:1032A00018951F920F920FB60F9211242F933F93F0
:1032B0004F935F936F937F938F939F93AF93BF933E
:1032C000EF93FF9382ED95E00E94280EFF91EF911E
:1032D000BF91AF919F918F917F916F915F914F912E
:1032E0003F912F910F900FBE0F901F9018951F9236
:1032F0000F920FB60F9211242F938F939F93EF93FA
:10330000FF93E091E205F091E3058081E091E8050B
:10331000F091E90582FD1BC090818091EB058F5FE4
:103320008F732091EC05821741F0E091EB05F0E0FE
:10333000EE52FA4F958F8093EB05FF91EF919F919D
:103340008F912F910F900FBE0F901F901895808135
:10335000F4CF1F920F920FB60F9211242F933F9329
:103360004F935F936F937F938F939F93AF93BF938D
:10337000EF93FF93E0910801F09109010995FF9106
:10338000EF91BF91AF919F918F917F916F915F91DD
:103390004F913F912F910F900FBE0F901F90189556
:1033A0001F920F920FB60F9211242F938F939F931A
:1033B000EF93FF938091780090E0E0917C05F0E03E
:1033C000EE0FFF1FE458FB4F91838083209179001B
:1033D000E0917C05F0E0EE0FFF1FE458FB4F808189
:1033E0009181922B9183808380917C0590E001965E
:1033F0008F77992780937C058FEC80937A00FF91DB
:10340000EF919F918F912F910F900FBE0F901F9072
:1034100018951092D5051092D40588EE93E0A0E09F
:10342000B0E08093D6059093D705A093D805B093CC
:10343000D90580E291E09093D3058093D20585EC85
:1034400090E09093DF058093DE0584EC90E090930C
:10345000E1058093E00580EC90E09093E305809394
:10346000E20581EC90E09093E5058093E40582EC21
:1034700090E09093E7058093E60586EC90E09093CA
:10348000E9058093E8051092EB051092EC05109287
:10349000ED051092EE0562E082E00E94290D62E0E7
:1034A00083E00E94290DE3ECF2E0E491F0E0EE0FFE
:1034B000FF1FE954FD4F859194919093740680937A
:1034C0007306E2EAF2E0E491E0937706E4ECF2E0DE
:1034D000E491F0E0EE0FFF1FE954FD4F85919491C8
:1034E0009093760680937506E3EAF2E0E491E09328
:1034F000780610927A0610927B0610927C06109243
:103500007D060E94D60CE0917306F09174069081BE
:1035100080917706982381E009F480E0E0917506B8
:10352000F0917606908120917806922309F08260CE
:1035300023E736E0809379063093700620936F0678
:1035400089EE93E190930B0180930A0180916900C9
:103550008C7F816080936900E89A91E090937E0669
:1035600030937206209371062FEE33E130930D01F4
:1035700020930C0180916900837F846080936900AF
:10358000E99A82E080937E0610928206109281066C
:1035900022E331E03093800620937F061092BA0632
:1035A0001092BB061092BC061092880610928706F5
:1035B00010928A061092890610928C0690938B06C0
:1035C00082E280938D061092920610929106E6EAAE
:1035D000F6E024EB36E08FEF81932E173F07E1F7FB
:1035E00091E09093A30620E73CE030939906209366
:1035F000980690939A0610929B0610929C0690E46F
:1036000090939D0610929E062FE63CE03093B506FF
:103610002093B4062EE031E0309386062093850691
:1036200091E19093AA0693E19093AB0692E1909377
:10363000A8068093A7068093A6060E94631082E3E3
:1036400091E09093800680937F060895CF93DF9357
:10365000CDB7DEB7E1970FB6F894DEBF0FBECDBF92
:103660002CE634E087E294E190937504809374042F
:10367000109277041092760482E080936F04109287
:10368000790410927804789494B5936094BD95B5BC
:10369000936095BD90916E00916090936E008093C1
:1036A00081009091810091609093810090918000C1
:1036B0009160909380009091B10094609093B100DC
:1036C0009091B00091609093B00096E890937A004A
:1036D0001092C100E091E205F091E3058083E09152
:1036E000DE05F091DF051082E091E005F091E10543
:1036F00087E680831092EA05E091E605F091E70500
:1037000086E08083E091E405F091E5058081886999
:103710008083E091E405F091E50580818F7D8083D1
:1037200080E592E09F938F933F932F930E946D2D9E
:1037300062E084E00E94290D81E08093BC060E9433
:1037400063100F900F900F900F90809187069091CB
:103750008806885D924099F188ED92E09093880602
:103760008093870680919A068111EBC1EDEDF2E01E
:10377000E491E0939B06E4EEF2E0E491E0939C0692
:1037800080919B06082E000C990B20919C06821BB1
:10379000910927FD939520919D06203441F0829F49
:1037A000C001112426E0969587952A95E1F780932C
:1037B0009E0680E79CE0909399068093980610926D
:1037C0007C0580E480937C008FEC80937A001092DB
:1037D0007B0081E080937E00569A5E9890E1909302
:1037E00081001092800080936B0420E030E23093DF
:1037F00087002093860091E1909381002DEB34E1C6
:10380000309309012093080180936F00109281008A
:10381000109285001092840080916B0480618093E7
:1038200081008AE392E09F938F930CE614E01F934C
:103830000F930E946D2D559A8EE292E09F938F9385
:103840001F930F930E946D2D0FB6F894DEBF0FBE2D
:10385000CDBF10926A04109269040E94121424E0F1
:1038600030E040E050E00E94C032022F03708FE74A
:1038700096E00E946014102F1295107F145F26E4CA
:1038800031E0412F60E08FE796E00E94371428E492
:1038900031E04CE066E08FE796E00E94371424E5C3
:1038A00031E04CE166E08FE796E00E94371424E6B1
:1038B00031E04CE266E08FE796E00E9437142CE698
:1038C00031E04CE366E08FE796E00E94371483E82E
:1038D00096E00E94C910D82E8111D1CF89B1182F3E
:1038E000107184FDB6CF69E170E080E090E00E9445
:1038F0007F0D4C9BFECF69E170E080E090E00E947C
:103900007F0DF89410927A0610927B0610927C0636
:1039100010927D06789401110C9408279FE8E92EF7
:1039200095E0F92E06E110E0C8010E944D32D70162
:103930008D937D01D8260F5F1F4F0E321105A1F721
:103940008EE290E00E944D32D81204C00E94720CA8
:1039500081114AC080E090E0A0E8BFE380938F052A
:1039600090939005A0939105B093920580E090E02C
:10397000A6E1B3E48093930590939405A0939505F5
:10398000B093960580E090E0A9E3B3E480939705B7
:1039900090939805A0939905B0939A0586E490E0DA
:1039A00090939C0580939B0580E090E8A9E5B3E4A3
:1039B00080939D0590939E05A0939F05B093A005CD
:1039C0008DE290E09093A2058093A10580E090E0C5
:1039D000A0E0B0E48093A3059093A405A093A5056F
:1039E000B093A6050E94141589EA91E09F938F93E6
:1039F0008CE694E09F938F930E946D2D10926A0441
:103A0000109269040F900F900F900F90212C312C81
:103A1000412C80E4582E10926A04109269040E948E
:103A2000121424E030E040E050E00E94C032022F47
:103A300003708FE796E00E946014102F1295107F9C
:103A4000145F26E431E0412F60E08FE796E00E94AA
:103A500037142AE731E04CE066E08FE796E00E94F9
:103A6000371420E831E04CE166E08FE796E00E94F1
:103A700037142DE831E04CE266E08FE796E00E94D3
:103A800037142BE931E04CE366E08FE796E00E94C3
:103A9000371483E896E00E94C9108111D2CF89B112
:103AA000182F107184FDB7CF69E170E080E090E0DD
:103AB0000E947F0D4C9BFECF69E170E080E090E0BA
:103AC0000E947F0DF89410927A0610927B06109255
:103AD0007C0610927D067894023011F40C94A02696
:103AE000033009F4B6CE013009F4CBC510927B0443
:103AF00010927A040E9471160E94720C811133C0D8
:103B00008FE796E00E94601428EA31E04CE160E023
:103B10008FE796E00E9437142EEA31E04CE260E035
:103B20008FE796E00E94371483E896E00E94C91060
:103B30008111EACF68EE73E080E090E00E947F0D93
:103B400088CE813041F4E7EEF2E0E491E0939B0609
:103B5000E8EEF2E012CEE5EEF2E0E491E0939B06AF
:103B6000E6EEF2E00ACE8BE791E09F938F938CE62E
:103B700094E09F938F930E946D2D2091CE053091FC
:103B8000CF054091D0055091D1056091CA05709143
:103B9000CB058091CC059091CD050E9457337B01D8
:103BA0008C0189E694E00F900F900F900F90A9E69A
:103BB000B3E0E9EEF3E011921D928E179F07D9F75B
:103BC000109268031092670360919B0570919C05A9
:103BD0008091A1059091A205680F791F90E080E087
:103BE0000E94FF332B013C0120E030E040EA51E429
:103BF000609193057091940580919505909196053B
:103C00000E94E53269877A878B879C87A0908F0511
:103C1000B0909005C0909105D09092059501A601B5
:103C2000B701C8010E94B134181614F47501860159
:103C300020E030E040EA51E460919D0570919E05DE
:103C400080919F059091A0050E94E5322091A305E7
:103C50003091A4054091A5055091A6050E945733C7
:103C60004B015C019701A80169857A858B859C854C
:103C70000E945733A30192010E94E6329B01AC01DE
:103C8000C501B4010E94E63220E030E040E251E498
:103C90000E94E63220E030E040E05CE30E94E9343C
:103CA0006AA37BA38CA39DA31D821E821F821886FC
:103CB00019821A821B821C820E942517BC0190E087
:103CC00080E00E94FF3320EC3EE34AEF5EE30E9477
:103CD000E934762E672E1C010E9425179E878D875A
:103CE0007E8A6F8A288E398E10E000E0512C412C9C
:103CF0001A8E1B8E1C8E1D8E19861A8A1B8A1C8A90
:103D00001D8A0E94B10D2EA13FA148A559A5621B95
:103D1000730B840B950B653F71408105910568F02D
:103D20000E94B10D6EA37FA388A799A741E040939D
:103D30006603409365034093640380916603882380
:103D400009F420C2109266038A8D9B8DAC8DBD8DC7
:103D50000196A11DB11D8A8F9B8FAC8FBD8F0E94D4
:103D600025179E878D879985911165C2AD85BE8582
:103D7000BD0190E080E00E94FF334B015C0120EC2C
:103D80003EE34AEF5EE30E94E9346E8F7F8F88A3A3
:103D900099A3B0919305BF87E0919405E98BC090FA
:103DA0009505D09096052B2F3E2FA6010E94B13489
:103DB00087FDA6C01D821E821F82188619821A8264
:103DC0001B821C82512C412C4FEF441A540AB20121
:103DD00090E080E00E94FF332DEB37E346E05BE3A9
:103DE0000E94E93420E030E040E853E40E94E934E6
:103DF0004B015C010E94B63400919B0510919C051B
:103E00000617170708F028C21D821E821F82188617
:103E100019821A821B821C82512C412C3FEF431ABB
:103E2000530AB20190E080E00E94FF332DEB37E3AC
:103E300046E05BE30E94E93420E030E040E853E4F0
:103E40000E94E9344B015C010E94B6340091A10547
:103E50001091A2050617170708F05EC21D821E8288
:103E60001F82188619821A821B821C82512C412CB7
:103E70002D853E85B90190E080E00E94FF334B0123
:103E80005C01C0909D05D0909E05E0909F05F0904C
:103E9000A00520EC3EE34AEF5EE30E94E934A7016F
:103EA00096010E94B13487FD95C21D821E821F8239
:103EB000188619821A821B821C82512C412C9FEF7A
:103EC000491A590A60E070E088EC91E40E941B17DF
:103ED000AD85BE85A817B90708F09DC25D9A62E35B
:103EE00070E080E090E00E947F0D5D98712C612C65
:103EF000A0EA2A2EB1E43B2E10E000E0B5E068C253
:103F000020E030E040EA51E46E897F89888D998D08
:103F10000E94523387FF8AC1612C712C10EAE12E76
:103F200001E4F02E82010F5F1F4F2DEB37E346E0D7
:103F30005BE360918F057091900580919105909160
:103F400092050E94E93420E030E040E853E40E940A
:103F5000E9341B012C01B80190E080E00E94FF339E
:103F60009B01AC01C201B1010E94E9349301A70198
:103F70000E94E6323B017C012801F7E04F225524E4
:103F80004114510449F02E892E8F3F893F8F488D6F
:103F900048A3598D59A328019301A7016F857989F9
:103FA000C6010E94B13418161CF46F86798A670125
:103FB0006F857989C6010E941B17BC0190E080E0E3
:103FC0000E94FF33DE0111967D018E010B5F1F4FB2
:103FD000A50194010E9480178C01BE8DBE8BEF8DD0
:103FE000EF8BF8A1F88F29A1298F7F8469881601AA
:103FF000C801880F892F881F990B919590936A04A7
:10400000809369042DEB37E346E05FE36A897B899F
:104010008C899D890E94E6326A8B7B8B8C8B9D8B71
:104020004985453009F4AEC09B01AC016AA17BA172
:104030008CA19DA10E94523318160CF4A3C02AA192
:104040003BA14CA15DA16A897B898C899D890E94D5
:10405000E5326A8B7B8B8C8B9D8B80916703909173
:104060006803988B8F878F37910579F4A9EEB3E0B9
:10407000E9E6F3E08181819311968C9111978D93FC
:1040800028EE33E02E173F07A9F7C090CA05D0905D
:10409000CB05E090CC05F090CD05A701960160E03E
:1040A00070E088EC91E40E94573320E030E040E873
:1040B00052E40E94E9340E94B6344B015C01A7012E
:1040C0009601672D762DC1010E94573320E030E024
:1040D00040E852E40E94E9340E94B634DC01CB018E
:1040E00088199909AA09BB0980349105A105B10570
:1040F0000CF0F4C1B7FF03C080E090E0DC01898BD5
:10410000EF85F889E759FC4F49894083AD85BE8525
:10411000BD0190E080E00E94FF3320EC3EE34AEFD7
:104120005EE30E94E934A70196010E94573320E024
:1041300030E040E852E40E94E9340E94B634681945
:1041400079098A099B0960347105810591050CF094
:10415000C8C197FF03C060E070E0CB01EF85F8892C
:10416000E751FC4F6083EF85F889EF37F10550F494
:10417000F989FF2339F08F85988901969093680318
:104180008093670380916403882309F4DFC1109250
:1041900064038FE796E00E9460142D853E854901F7
:1041A000B12CA12CE0E4DE2E26E932E04EE066E2FE
:1041B0008FE796E00E9437142BEB31E04DE169E187
:1041C0008FE796E00E9437141092BA068EE0809333
:1041D000BB06C501B4010E94FF3320EC3EE34AEF69
:1041E0005EE30E94E934AB01BC0121E030E08FE7DF
:1041F00096E00E9494151092BA068DE18093BB065A
:1042000030E020E0472D562DB1018FE796E00E9467
:104210009415398534300CF066C132300CF02EC262
:10422000313009F428C222EC31E067C16E887F8802
:10423000E88CF98C77CE3985313009F4C5CD2985E4
:10424000223009F4EBCDE985E33009F411CE8985FC
:10425000843009F0CDCE33CE7090970560909805EC
:104260002090990530909A05C0909305D0909405C0
:10427000E0909505F0909605A7019601672D762DA3
:10428000C1010E94E53269877A878B879C87B801D4
:1042900090E080E00E94FF339B01AC0169857A8544
:1042A0008B859C850E945733A50194010E94E934B7
:1042B000A70196010E94E6327B018C019B01AC01B3
:1042C000672D762DC1010E94B13418161CF47E2C86
:1042D0006F2C1801672D762DC1010E941B178C01D0
:1042E000AD85BE85BD0190E080E00E94FF334B01AB
:1042F0005C01B80190E080E00E94FF33FE0131963E
:104300007F018E010B5F1F4FA50194010E94801752
:104310008C01F1E0F9876CCE70909D0560909E0550
:1043200020909F053090A005C0909705D0909805EB
:10433000E0909905F0909A05A7019601672D762DDA
:10434000C1010E94E53269877A878B879C87B80113
:1043500090E080E00E94FF339B01AC0169857A8583
:104360008B859C850E945733A50194010E94E934F6
:10437000A70196010E94E6327B018C01272D362D84
:10438000A1010E94523387FF03C07E2C6F2C1801BD
:10439000672D762DC1010E941B178C014D855E850E
:1043A000BA0190E080E00E94FF334B015C01B8014C
:1043B00090E080E00E94FF33DE0111967D018E01C6
:1043C0000B5F1F4FA50194010E9480178C01B2E082
:1043D000B9870ECE20E030E040EA50E4C701B601D4
:1043E0000E94E632762E672E1C010E941B17BC012C
:1043F00090E080E00E94FF33AE014F5F5F4F7A0193
:104400008E010B5F1F4FA50194010E9480178C0144
:1044100053E05987EDCD20E030E0A901672D762DDE
:10442000C1010E94523318160CF053C02DEB37E334
:1044300046E05BE36091A3057091A4058091A5051A
:104440009091A6050E94E93420E030E040E853E472
:104450000E94E9346B017C01B20190E080E00E948F
:10446000FF339B01AC01C701B6010E94E9349B01F7
:10447000AC0160919D0570919E0580919F05909182
:10448000A0050E94E532762E672E1C01672D762D41
:10449000C1010E941B178C01ED85FE85BF0190E0D4
:1044A00080E00E94FF334B015C01B80190E080E0A6
:1044B0000E94FF339E012F5F3F4F79018E010B5FFA
:1044C0001F4FA50194010E9480178C0134E03987A9
:1044D0008FCD712C612C212C312CD8CF30E4398B2D
:1044E0000FCE60E43BCE49852FEC31E0443029F01B
:1044F00024ED31E0453009F096CE4CE260E08FE7E4
:1045000096E00E94371479EEE72E73E0F72EC12C67
:10451000D7018D917D016091850670918606C092CC
:104520009F06BD2DB81BB093A0062FE936E042E3ED
:1045300083E896E00E945F10C394E0E8CE12E8CFD3
:1045400083E896E00E94C91081112ECE8091650308
:10455000882309F464C0109265031F92F985FF93C4
:1045600026E731E03F932F938CE694E09F938F935F
:104570000E946D2D6A8D7B8D8C8D9D8D0E94FF33E9
:104580002DEB37E346E05BE30E94E93420E030E0C6
:1045900040E853E40E94E9340E94F6169F938F93FB
:1045A000E1E7F1E0FF93EF934CE654E05F934F9324
:1045B0000E946D2D9E859F93AD85AF93ECE6F1E053
:1045C000FF93EF934CE654E05F934F930E946D2D61
:1045D000672D762DC1010E941B179F938F93A7E62D
:1045E000B1E0BF93AF932CE634E03F932F930E944A
:1045F0006D2DB80190E080E00E94B4189F938F93D6
:1046000082E691E09F938F93ECE6F4E0FF93EF93C3
:104610000E946D2D0FB6F894DEBF0FBECDBF4C9932
:1046200070CB5985553091F08FE796E00E94601469
:1046300029ED31E04CE162E38FE796E00E94371408
:1046400083E896E00E94C9108111F2CF69E170E021
:1046500080E090E00E947F0D4C9BFECF69E170E00E
:1046600080E090E00E947F0D8985853009F4F1C8D3
:10467000B5E0B98746CB2AEC31E03FCF2DE431E0FD
:104680003CCF85E991E09F938F938CE694E09F93D4
:104690008F930E946D2D0F900F900F900F9001E05F
:1046A00035E5F32E4CE0E42E5CE1D52E64E6662E73
:1046B0007724739410926A04109269048FE796E04D
:1046C0000E9460148CE0810F8295807F9CE0B92E5F
:1046D000B80E2CE4C22EC80E26E431E0143008F0E7
:1046E000B0C04C2D60E08FE796E00E9437142FEDAC
:1046F00031E04CE066E08FE796E00E9437142AEE46
:1047000031E04CE166E08FE796E00E94371421EF3C
:1047100031E04CE266E08FE796E00E94371428EF24
:1047200031E04CE366E08FE796E00E94371426E91B
:1047300032E04CE16EE68FE796E00E94371426E9FE
:1047400032E04CE26EE68FE796E00E94371428EFE5
:1047500031E04CE368E78FE796E00E9437146092FF
:10476000BA06E092BB0640918F055091900560918A
:1047700091057091920521E030E08FE796E00E946C
:104780009415F092BA06D092BB06409193055091D1
:104790009405609195057091960530E020E08FE7D3
:1047A00096E00E949415F092BA068CE28093BB06C4
:1047B00040919705509198056091990570919A05DF
:1047C00030E020E08FE796E00E949415F092BA0660
:1047D0008CE38093BB0660919B0570919C0541E042
:1047E00050E08FE796E00E948E1583E896E00E94E5
:1047F000C910811171CF4C99D4C069E170E080E09B
:1048000090E00E947F0D4C9BFECF69E170E080E05C
:1048100090E00E947F0DF89410927A0610927B0629
:1048200010927C0610927D0678940725173009F0C7
:10483000B8C00E94720C882309F46DC00E94141540
:10484000EAC84B2D60E08FE796E00E94371422E023
:1048500032E04EE066E08FE796E00E94371429E0F0
:1048600032E04DE166E08FE796E00E94371426E9DA
:1048700032E04EE06EE68FE796E00E94371428E7BC
:1048800031E04DE16EE68FE796E00E94371420E1BB
:1048900032E04CE266E08FE796E00E9437142AE1AE
:1048A00032E04CE366E08FE796E00E943714F09226
:1048B000BA06E092BB0640919D0550919E0560911D
:1048C0009F057091A00530E020E08FE796E00E9400
:1048D0009415F092BA06D092BB066091A105709132
:1048E000A2054AE050E08FE796E00E948E15F09214
:1048F000BA068CE28093BB064091A3055091A405B3
:104900006091A5057091A60522E030E08FE796E062
:104910000E9494156ACF8FE796E00E94601426E209
:1049200032E04CE060E08FE796E00E94371424E329
:1049300032E04CE160E08FE796E00E94371421E41A
:1049400032E04CE160E08FE796E00E94371483E8A4
:1049500096E00E94C9108111E2CF9FEFA9E6B8E16D
:104960009150A040B040E1F700C000000E94121436
:1049700024E030E040E050E00E94C032122F2F3F90
:1049800011F5F8942CE130E040E050E020937A06F5
:1049900030937B0640937C0650937D06789401E02B
:1049A00089CE013019F3173008F084CEE12FF0E002
:1049B000E452FB4D0C94DF32EF2439257B25BD25D5
:1049C000EC252E265726283050F3F89410927A06BC
:1049D00010927B0610927C0610927D06DFCF8090AD
:1049E0008F0590909005A0909105B09092050E943F
:1049F000F51324E030E040E050E00E94C032CA01EC
:104A0000B9010E9401342DEC3CEC4CEC5DE30E94BA
:104A1000E934A50194010E94E6324B015C0120E0DB
:104A200030E040EA50E40E94B1341816DCF02DEC7E
:104A30003CEC4CEC5DE3C501B4010E94523387FFAE
:104A400007C00DEC802E0CEC902EA92C0DE3B02E9F
:104A500080928F0590929005A0929105B092920558
:104A6000012F28CE812C912CB0EAAB2EB0E4BB2EC6
:104A7000EFCF8090930590909405A0909505B0900D
:104A800096050E94F51324E030E040E050E00E94DB
:104A9000C032CA01B9010E940134A50194010E94EB
:104AA000E6324B015C0120E030E046E953E40E942D
:104AB000B1341816CCF020E030E048E452E4C501EF
:104AC000B4010E94523387FF06C0812C912CA8E4C8
:104AD000AA2EA2E4BA2E8092930590929405A092F9
:104AE0009505B0929605E6CD812C912CF6E9AF2E76
:104AF000F3E4BF2EF0CF8090970590909805A0909A
:104B00009905B0909A050E94F51324E030E040E04A
:104B100050E00E94C032CA01B9010E940134A501CF
:104B200094010E94E6324B015C0120E030E046E94E
:104B300053E40E94B1341816CCF020E030E048E491
:104B400052E4C501B4010E94523387FF06C0812C94
:104B5000912CE8E4AE2EE2E4BE2E8092970590926E
:104B60009805A0929905B0929A05A4CD812C912C1C
:104B700076E9A72E73E4B72EF0CF80909B05909036
:104B80009C05B12CA12C0E94F51324E030E040E0FC
:104B900050E00E94C032820E931EA41EB51E3CE35C
:104BA00083169104A104B1042CF46CE3862E912C9D
:104BB000A12CB12C4DE2841641E09406A104B1046D
:104BC00034F05CE2852E99249394A12CB12C909220
:104BD0009C0580929B056ECD80909D0590909E05D2
:104BE000A0909F05B090A0050E94F51324E030E04E
:104BF00040E050E00E94C032CA01B9010E94013475
:104C0000A50194010E94E6324B015C0120E030E0F6
:104C10004FEA53E40E94B1341816CCF020E030E0A3
:104C200046E153E4C501B4010E94523387FF06C038
:104C3000812C912C46E1A42E43E4B42E80929D0554
:104C400090929E05A0929F05B092A00533CD812C35
:104C5000912C3FEAA32E33E4B32EF0CF8090A10530
:104C60009090A205B12CA12C0E94F51324E030E015
:104C700040E050E00E94C032820E931EA41EB51E7A
:104C8000B7FE03C0812C912C54015DE2851651E0E2
:104C90009506A104B10434F02CE2822E9924939459
:104CA000A12CB12C9092A2058092A10503CD8090F9
:104CB000A3059090A405A090A505B090A6050E941C
:104CC000F51324E030E040E050E00E94C032CA0119
:104CD000B9010E9401342DEC3CEC4CEC5DE30E94E8
:104CE000E934A50194010E94E6324B015C0120E009
:104CF00030E040EA50E40E94B1341816D4F02DECB4
:104D00003CEC4CEC5DE3C501B4010E94523387FFDB
:104D100007C09DEC892E9CEC992EA92C9DE3B92E01
:104D20008092A3059092A405A092A505B092A60535
:104D3000C1CC812C912C80EAA82E80E4B82EF0CF33
:104D400080E090E0A0E8BFE380938F05909390050A
:104D5000A0939105B093920520E030E046E153E442
:104D600020939305309394054093950550939605B1
:104D700080E090E0A9E3B3E48093970590939805D1
:104D8000A0939905B0939A0586E490E090939C05D2
:104D900080939B0520E030E849E553E420939D058E
:104DA00030939E0540939F055093A0058DE290E0BF
:104DB0009093A2058093A1052092A3053092A405AB
:104DC0004092A5055092A6050E9414158FE796E023
:104DD0000E9460142EE432E04CE160E08FE796E040
:104DE0000E94371426E532E04CE260E08FE796E05F
:104DF0000E94371483E896E00E94C9108111EACF1F
:104E000068EE73E080E090E00E947F0D0C940B1D33
:104E1000013009F097C11D821E821F8218861982F7
:104E20001A821B821C820E94251710927B0410920A
:104E30007A040E9471168EEC91E09F938F938CE61A
:104E400094E09F938F930E946D2DF89410927A06B0
:104E500010927B0610927C0610927D067894109238
:104E60006A04109269040F900F900F900F901E86A5
:104E70001D8610E000E0312C212CBCE68B2EB4E026
:104E80009B2E2801440C452C441C550851945092EB
:104E90006A04409269040E94121424E030E040E069
:104EA00050E00E94C032CA01B9010E9401345B0186
:104EB0006C017090CA056090CB05E090CC05F09035
:104EC000CD05272D362DA7010E94B13418160CF000
:104ED00093C0F89420E030E040E850E4672D762D50
:104EE000C7010E94E9340E94C93360937A06709327
:104EF0007B0680937C0690937D067894A72CB62C35
:104F000067018FE796E00E94601421E632E04EE0F0
:104F100069E18FE796E00E94371426E932E04EE01F
:104F20006EE68FE796E00E94371428E632E04DE106
:104F300060E08FE796E00E9437142FE632E04BE204
:104F400060E08FE796E00E9437141092BA06FEE008
:104F5000FF2EF092BB064AE050E06D857E858FE71C
:104F600096E00E948E1535E53093BA06F092BB06A6
:104F700030E020E0A501B6018FE796E00E9494158D
:104F800045E54093BA068DE18093BB064AE050E0C8
:104F9000B8018FE796E00E948E1555E55093BA064A
:104FA0008BE28093BB064AE050E0B1018FE796E0C8
:104FB0000E948E1583E896E00E94C9108111A5CF4A
:104FC0004C9932C069E170E080E090E00E947F0D72
:104FD0004C9BFECF69E170E080E090E00E947F0D85
:104FE000F89410927A0610927B0610927C0610922A
:104FF0007D0678940C94291C20E030E0A901B501CD
:10500000C6010E94523387FF7CCFF89410927A0633
:1050100010927B0610927C0610927D067894A12C4B
:10502000B12CC12CD12C6DCF0E94B10D2AA53BA56E
:105030004CA55DA5621B730B840B950B653F7140FE
:105040008105910508F423CF0E94B10D6AA77BA7C3
:105050008CA79DA74FEF241A340A0E9425172C0114
:10506000712C612CC301B2010E94FF3369877A87DA
:105070008B879C8720EC3EE34AEF5EE30E94E93495
:105080000E94D0337E876D87B501C6010E941B1731
:10509000BC0190E080E00E94FF33DE0111967D01AB
:1050A0008E010B5F1F4F29853A854B855C850E94D9
:1050B00080178C0120FEE5CEB1017695679590E0D2
:1050C00080E00E94FF330E94F6169F938F93E9ECD5
:1050D000F1E0FF93EF939F928F920E946D2DC30199
:1050E000B2010E94B4189F938F9344EC51E05F93F8
:1050F0004F939F928F920E946D2DB501C6010E9421
:10510000C9330E94B4189F938F93AFEBB1E0BF9364
:10511000AF939F928F920E946D2DB80190E080E036
:105120000E94B4189F938F932AEB31E03F932F9303
:105130009F928F920E946D2D0FB6F894DEBF0FBE26
:10514000CDBF9FCE023009F04FC10E9425171092AB
:105150007B0410927A040E9471168FEF91E09F9366
:105160008F938CE694E09F938F930E946D2DF8941B
:1051700010927A0610927B0610927C0610927D06A1
:10518000789410926A04109269040F900F900F9017
:105190000F90D12CC12C10E000E0B12CA12C40E5E7
:1051A000942E5AEF252E51E0352E6CE6E62E64E063
:1051B000F62E000F012F001F110B119510936A049A
:1051C000009369040E9412140027162F272F382FEE
:1051D0000115110591E0290731050CF494C0F894EC
:1051E00020E031E040E050E020937A0630937B06E7
:1051F00040937C0650937D0678940FEF1FEF20E0DC
:1052000030E08FE796E00E94601428E631E04CE041
:1052100060E08FE796E00E94371424E732E04CE12B
:1052200060E08FE796E00E94371426E932E04CE117
:105230006EE68FE796E00E9437142FE632E04CE3EB
:1052400060E08FE796E00E9437149092BA069CE1E6
:10525000892E8092BB064AE050E0B6018FE796E0C7
:105260000E948E159092BA068CE08093BB064AE0AD
:1052700050E0B8018FE796E00E948E159092BA0632
:105280008092BB064AE050E0B6018FE796E00E94AC
:105290008E159092BA068CE38093BB064AE050E0EC
:1052A000B5018FE796E00E948E1583E896E00E9494
:1052B000C9108111AACFB60190E080E00E94FF33AF
:1052C0002091CA053091CB054091CC055091CD0578
:1052D0000E94B134181664F4F89410927A06109271
:1052E0007B0610927C0610927D06789410E000E018
:1052F0004C9919C069E170E080E090E00E947F0D58
:105300004C9BFECF67CE37FF7CCFF89410927A0685
:1053100010927B0610927C0610927D06789400E035
:1053200010E098016ECF0E94B10D2EA53FA548A9AF
:1053300059A9621B730B840B950B653F7140810566
:10534000910508F436CF0E94B10D6EA77FA788ABF8
:1053500099AB4FEFA41AB40A0E9425172C01712CA7
:10536000612CC301B2010E94FF3320EC3EE34AEFFF
:105370005EE30E94E9340E94D0336B01A0FE19CF96
:10538000B5017695679590E080E00E94FF330E941A
:10539000F6169F938F933F922F92FF92EF920E9467
:1053A0006D2DC301B2010E94B4189F938F9385EFB6
:1053B00091E09F938F93FF92EF920E946D2DB80121
:1053C00090E080E00E94B4189F938F93E0EFF1E0AB
:1053D000FF93EF93FF92EF920E946D2D0FB6F8941A
:1053E000DEBF0FBECDBFE5CE10926A0410926904F5
:1053F0000E94711689E192E09F938F938CE694E06E
:105400009F938F930E946D2D0F900F900F900F9090
:1054100001E0F6E47F2E212C312CA1E64A2EA3E4F4
:105420005A2E812C912CB6E9AB2EB3E4BB2E662408
:10543000639410926A04109269048FE796E00E94C8
:1054400060148CE0810F8295807F7CE0E72EE80E6F
:10545000ECE4FE2EF80E26E431E0143008F0EDC046
:105460004F2D60E08FE796E00E9437142BE732E083
:105470004CE066E08FE796E00E94371423E832E0C4
:105480004CE166E08FE796E00E9437142BE832E0AB
:105490004CE266E08FE796E00E94371423E932E0A1
:1054A0004CE366E08FE796E00E9437147092BA06EC
:1054B0008CE08093BB064091BE055091BF05609182
:1054C000C0057091C10522E030E08FE796E00E94B0
:1054D00094157092BA068CE18093BB064091C20588
:1054E0005091C3056091C4057091C50522E030E07C
:1054F0008FE796E00E9494157092BA068CE2809332
:10550000BB064091C6055091C7056091C8057091D2
:10551000C90522E030E08FE796E00E949415709272
:10552000BA068CE38093BB064091CA055091CB0527
:105530006091CC057091CD0521E030E08FE796E0D9
:105540000E94941583E896E00E94C910811183CFD0
:105550004C99FCC069E170E080E090E00E947F0D12
:105560004C9BFECF69E170E080E090E00E947F0DEF
:10557000F89410927A0610927B0610927C06109294
:105580007D067894163009F493C0173011F40C940A
:10559000291C0625153009F0D9C080E090E8ABEB56
:1055A000B5E48093BE059093BF05A093C005B0936A
:1055B000C10520E030E040EA51E42093C205309379
:1055C000C3054093C4055093C50580E090E0A0E07A
:1055D000B0E88093C6059093C705A093C805B09323
:1055E000C9052092CA053092CB054092CC05509255
:1055F000CD058092CE059092CF05A092D005B092B5
:10560000D1050E94121424E030E040E050E00E94F6
:10561000C032122F2F3F09F0E5C0F8942CE130E0A2
:1056200040E050E020937A0630937B0640937C065E
:1056300050937D06789401E0FCCE4E2D60E08FE71C
:1056400096E00E94371429E932E04CE066E08FE7EB
:1056500096E00E94371454E65093BA068CE080938B
:10566000BB064091CE055091CF056091D005709159
:10567000D10530E020E08FE796E00E94941525EAFE
:1056800032E04CE166E08FE796E00E9437142AE1B1
:1056900032E04CE266E08FE796E00E94371424EB9C
:1056A00032E04CE366E08FE796E00E9437144ACF81
:1056B00020E030E0A9016091CA057091CB0580918E
:1056C000CC059091CD050E94B13418169CF420E0D1
:1056D00030E0A9016091CE057091CF058091D00591
:1056E0009091D1050E94B134181624F40E94F01450
:1056F0000C94291C8FE796E00E94601422EC32E0A3
:105700004CE060E08FE796E00E94371420ED32E035
:105710004CE160E08FE796E00E94371421E432E02C
:105720004CE160E08FE796E00E94371483E896E052
:105730000E94C9108111E2CF9FEFA9E6B8E1915014
:10574000A040B040E1F700C000005BCF013009F499
:1057500058CF123009F4DFC008F051C0112309F40A
:105760008CC0113009F065CEC090C205D090C30541
:10577000E090C405F090C5050E94F51324E030E0E8
:1057800040E050E00E94C032CA01B9010E940134D9
:105790002AE037ED43E25CE30E94E934A701960179
:1057A0000E94E6326B017C0120E030E44CE156E4DB
:1057B0000E94B13418160CF4A6C020E030E0A90114
:1057C000C701B6010E94523387FF03C0C12CD12C00
:1057D0007601C092C205D092C305E092C405F09252
:1057E000C50527CE283008F426CFF89410927A0603
:1057F00010927B0610927C0610927D061BCF133010
:1058000009F4D3C0143009F014CEC090CE05D09066
:10581000CF05E090D005F090D1050E94F51324E06B
:1058200030E040E050E00E94C032CA01B9010E945D
:105830000134A70196010E94E6326B017C0120E051
:1058400030E046E954E40E94B13418160CF4EFC07D
:1058500020E030E0A901C701B6010E94523387FF62
:1058600003C0C12CD12C7601C092CE05D092CF05B9
:10587000E092D005F092D105DCCDC090BE05D0906D
:10588000BF05E090C005F090C1050E94F51324E02B
:1058900030E040E050E00E94C032CA01B9010E94ED
:1058A00001342DEC3CEC4CEC5DE30E94E934A701A3
:1058B00096010E94E6326B017C0120E030E44CE16D
:1058C00056E40E94B1341816B4F020E030E0A9018B
:1058D000C701B6010E94523387FF03C0C12CD12CEF
:1058E0007601C092BE05D092BF05E092C005F0924D
:1058F000C10500E09ECDC12C60E4D62E6CE1E62E01
:1059000066E4F62EEECFC12C50E4D52E5CE1E52EF8
:1059100056E4F52E5ECFC090C605D090C705E09046
:10592000C805F090C9050E94F51324E030E040E07E
:1059300050E00E94C032CA01B9010E9401342AE03D
:1059400037ED43E25CE30E94E934A70196010E942F
:10595000E6326B017C0120E030E44CE156E40E9429
:10596000B1341816D4F020E030E44CE156ECC70115
:10597000B6010E94523387FF07C0C12C40E4D42EE9
:105980004CE1E42E46ECF42EC092C605D092C70539
:10599000E092C805F092C9054CCDC12C30E4D32E5D
:1059A0003CE1E32E36E4F32EEFCFC090CA05D09051
:1059B000CB05E090CC05F090CD050E94F51324E0D6
:1059C00030E040E050E00E94C032CA01B9010E94BC
:1059D0000134A70196010E94E6326B017C0120E0B0
:1059E00030E04FEA53E40E94B1341816CCF020E0C6
:1059F00030E048E453E4C701B6010E94523387FF08
:105A000006C0C12CD12C28E4E22E23E4F22EC09251
:105A1000CA05D092CB05E092CC05F092CD0509CD18
:105A2000C12CD12C9FEAE92E93E4F92EF0CFC12CA2
:105A3000D12C86E9E82E84E4F82E16CFEF920F934E
:105A40001F93CF93DF93E80134E047FD34E1042E48
:105A5000000C550B57FF03C0519541955109E32E9A
:105A6000022F242FAE010E94622FCE01DF91CF9131
:105A70001F910F91EF900895BB272A3051F499237D
:105A800042F4BDE290958095709561957F4F8F4F60
:105A90009F4F0C944C2DBB27FA01A62F621771055E
:105AA00081059105330B30FB66F0AA27660F771F3F
:105AB000881F991FAA1FA21710F0A21B63953850C8
:105AC000A9F7A05DAA3308F0A95DA19336F7B1113B
:105AD000B1931082CA010C94AF31B0E0A0E0E3E7CB
