:100000000C946D000C9438040C9411040C9495001D
:100010000C9495000C9495000C9495000C9495000C
:100020000C9495000C9495000C9495000C949500FC
:100030000C9495000C9495000C9495000C949500EC
:100040000C94C7030C9495000C9485040C945F04E5
:100050000C9495000C94B7040C9495000C949500A6
:100060000C9495000C9495007265666C6F77207403
:100070006F6173746572206F76656E2C0A00686517
:100080006C6C6F20776F726C642C0A0000000000AB
:10009000250028002B0000000000240027002A0073
:1000A000010204081020408001020408102001020F
:1000B0000408102040804000000000230026002992
:1000C0000004040404040404040202020202020301
:1000D0000303030303020203F00411241FBECFEF46
:1000E000D8E0DEBFCDBF11E0A0E0B1E0E6E3F3E190
:1000F00002C005900D92A232B107D9F723E0A2E227
:10010000B1E001C01D92A633B207E1F710E0CDE6E1
:10011000D0E004C02197FE010E949309CC36D1079C
:10012000C9F70E9415060C9499090C9400000895D3
:1001300080E008958BE39FE10197F1F70895CF9355
:10014000DF9390E0FC01E056FF4F24918F539F4FC7
:10015000FC0184918823C1F090E0880F991FFC0175
:10016000EA56FF4FC591D491FC01E457FF4FA5918A
:10017000B4919FB7F8943881822F80958323888328
:10018000EC91E22BEC939FBFDF91CF9108950895FE
:10019000AF92BF92CF92DF92EF92FF920F931F9395
:1001A000CF93DF936C017B018B01040F151FEB01D3
:1001B0005E01AE18BF08C017D10759F06991D6018A
:1001C000ED91FC910190F081E02DC6010995892BFC
:1001D00079F7C501DF91CF911F910F91FF90EF90BB
:1001E000DF90CF90BF90AF900895FC01538D448D68
:1001F000252F30E0842F90E0821B930B541710F0D2
:10020000CF96089501970895FC01918D828D9817DE
:1002100061F0A28DAE0FBF2FB11D5D968C91928DB6
:100220009F5F9F73928F90E008958FEF9FEF0895E7
:10023000FC01918D828D981731F0828DE80FF11DB0
:10024000858D90E008958FEF9FEF0895FC01918DCB
:10025000228D892F90E0805C9F4F821B91098F73C4
:1002600099270895FC01A48DA80FB92FB11DA35A99
:10027000BF4F2C91848D90E001968F739927848FC6
:10028000A689B7892C93A089B1898C9180648C93BD
:10029000938D848D981306C00288F389E02D8081A8
:1002A0008F7D80830895EF92FF920F931F93CF93DA
:1002B000DF93EC0181E0888F9B8D8C8D981316C0A5
:1002C000E889F989808185FF11C0EE89FF89608303
:1002D000E889F98980818064808381E090E0DF9102
:1002E000CF911F910F91FF90EF900895F62E0B8DF7
:1002F00010E00F5F1F4F0F731127E02E8C8D8E11B2
:100300000CC00FB607FCFACFE889F989808185FF18
:10031000F5CFCE010E943201F1CFEB8DEC0FFD2F16
:10032000F11DE35AFF4FF0820B8FEA89FB89808130
:100330008062D2CFCF93DF93EC01888D8823B9F010
:10034000AA89BB89E889F9898C9185FD03C08081E0
:1003500086FD0DC00FB607FCF7CF8C9185FFF2CF5D
:10036000808185FFEDCFCE010E943201E9CFDF9180
:10037000CF910895DB01ED91FC9109940F931F93A8
:10038000CF93DF931F92CDB7DEB78C01FC01628162
:1003900073819E012F5F3F4F46E40E94BA0189811D
:1003A000F8018083628173819E012F5F3F4F47E494
:1003B000C8010E94BA018981F80181836281738139
:1003C00030E020E048E4C8010E94BA01F8018387C8
:1003D00098012D5C3F4F6281738147E1C8010E9403
:1003E000BA010F90DF91CF911F910F9108950F9354
:1003F0001F93CF93DF93EC018B01E9A9FAA982E067
:10040000099530E020E04AE0B801CE010E94BA012F
:10041000182FE9A9FAA983E00995E9A9FAA980E0CA
:100420000995812FDF91CF911F910F9108950B9620
:10043000FC01849108950A96FC0184910895FC01C1
:10044000849108950E941F02882321F0823011F0C8
:1004500083E0089586E00895FC01E60FF11D849184
:1004600090E0982F88273196E4918E0F911D089582
:1004700068E00C942C0266E00C942C02CF93C82FF9
:100480008A3019F48DE00E943E026C2F85E492E0E0
:100490000E94530190E080E0CF910895DC01ED913E
:1004A000FD918081ED91FD919081ED91FD916C9197
:1004B00063708E2309F064609F2309F06860EBE6A7
:1004C000F2E0E60FF11D659565956D936D917D9157
:1004D0008D919D91099423C01AC012C016C010C0FE
:1004E0001EC009C014C013C006C019C009C00DC089
:1004F00007C00DC014C062507040804090400BC0D7
:10050000615070408040904006C06E5F01C06F5FD8
:100510007F4F8F4F9F4F9E938E937E936E93089540
:100520008091E2029091E3020C944E028091E402E9
:100530009091E5020C944E023F924F925F926F921F
:100540007F928F929F92AF92BF92CF92DF92EF9263
:10055000FF920F931F93CF93DF93EC01B62EFCAC69
:100560009BAC6C0124E0C20ED11CE98DFA8DC60152
:100570000995882E08851985C8010E941F02E82E5A
:10058000888599850E942202682E81E077247A94DA
:10059000E81202C02FE0722E888599850E941B0206
:1005A000E82E888599850E941702A82E888599854E
:1005B0000E943802E0E6EB1578F4009769F0080F26
:1005C000191F91E6E92EAB14C0F41C8A1F8A188EFD
:1005D0001D8A1E8A80E0A2C0888599850E943B0200
:1005E000F0E4FB1538F4009729F0080F191F81E497
:1005F000E82EE9CF0F5E1F4FE6CFAE1430F3862D05
:1006000090E0F80124912F3F31F40F5F1F4FAE149B
:10061000E1F2E394F6CFBE1074C0888599850E94FC
:100620001F0298012F5F3F4FF801882319F0823095
:1006300009F050C084918F8BF9012491288FF80123
:100640003396E491EC8BF8013496E491ED8BF8014C
:100650003596E491EE8B0115110509F4BBCF888521
:1006600099850E942202388D7F2C731A9E89791AEF
:10067000780C9FEF930F970D28AD4AAD471508F4FE
:1006800049C0921718F4971508F047C02F896D8854
:10069000690C9FEF920F960D4FA959AD561508F4AE
:1006A00054C0941718F4961508F037C0080F111DA0
:1006B000295F522E569456945694432E470C5E0151
:1006C000F0E2AF0EB11C852C912C741431F1362C54
:1006D000780151C08491982F9F7092509E8B829583
:1006E0008F708D8BF9012491822F8F70888F2295C6
:1006F0002F702F8BF8013296E491E295EF70EC8B1E
:10070000AACF3296E491E721E80FF92FF11D0E0FE1
:100710001F1F7DCF921708F0B6CF8C899BAD890F34
:100720008BAF81E090E0DF91CF911F910F91FF900F
:10073000EF90DF90CF90BF90AF909F908F907F9081
:100740006F905F904F903F900895941708F0ABCF53
:10075000E4CFF70184916E817F8138A279A21BA238
:100760008AA395014BE3C6010E94BA01FFEFEF1A7D
:10077000FF0A28E0320E8E2D801B851550F3080DE0
:10078000191D7394A2CF089590E080E008951F9200
:100790000F920FB60F9211242F933F938F939F9335
:1007A000AF93BF938091410290914202A091430286
:1007B000B09144023091400223E0230F2D3768F1BD
:1007C00026E8230F0296A11DB11D209340028093BD
:1007D000410290934202A0934302B093440280915D
:1007E0003C0290913D02A0913E02B0913F020196E1
:1007F000A11DB11D80933C0290933D02A0933E0247
:10080000B0933F02BF91AF919F918F913F912F91F4
:100810000F900FBE0F901F9018950196A11DB11D4E
:10082000D4CF1F920F920FB60F9211242F933F93A4
:100830004F935F936F937F938F939F93AF93BF93E8
:10084000EF93FF93E0910201F09103010995FF916D
:10085000EF91BF91AF919F918F917F916F915F9138
:100860004F913F912F910F900FBE0F901F901895B1
:100870001F920F920FB60F9211242F933F934F9315
:100880005F936F937F938F939F93AF93BF93EF93F8
:10089000FF93E0910001F09101010995FF91EF9123
:1008A000BF91AF919F918F917F916F915F914F9188
:1008B0003F912F910F900FBE0F901F9018951F9290
:1008C0000F920FB60F9211242F933F934F935F9384
:1008D0006F937F938F939F93AF93BF93EF93FF9308
:1008E00085E492E00E943201FF91EF91BF91AF91B8
:1008F0009F918F917F916F915F914F913F912F9138
:100900000F900FBE0F901F9018951F920F920FB669
:100910000F9211242F938F939F93EF93FF93E09166
:100920005502F09156028081E0915B02F0915C02E9
:1009300082FD1BC0908180915E028F5F8F7320913A
:100940005F02821741F0E0915E02F0E0EB5BFD4F49
:10095000958F80935E02FF91EF919F918F912F91E0
:100960000F900FBE0F901F9018958081F4CF1F92AB
:100970000F920FB60F9211242F938F939F93EF93A3
:10098000FF9380917800E0913B02F0E090E0EE0F61
:10099000FF1FE55CFE4F9183808320917900E091F9
:1009A0003B02F0E0EE0FFF1FE55CFE4F808191817E
:1009B000922B9183808380913B0290E001968F7708
:1009C000992780933B028FEC80937A00FF91EF91FF
:1009D0009F918F912F910F900FBE0F901F901895A0
:1009E000109248021092470288EE93E0A0E0B0E037
:1009F0008093490290934A02A0934B02B0934C0219
:100A000088E091E0909346028093450285EC90E067
:100A1000909352028093510284EC90E090935402A0
:100A20008093530280EC90E090935602809355029D
:100A300081EC90E0909358028093570282EC90E012
:100A400090935A028093590286EC90E090935C0256
:100A500080935B0210925E0210925F02109260021D
:100A6000109261021092FB021092FA028AE191E068
:100A70009093F9028093F80210923303109234039A
:100A80001092350310920103109200031092030399
:100A9000109202031092050381E08093040382E226
:100AA0008093060310920B0310920A03EFE1F3E028
:100AB0002DE233E08FEF81932E173F07E1F791E0AE
:100AC00090931C0328E930E0309312032093110324
:100AD00090931303109214031092150390E49093D3
:100AE00016031092170327E930E030932E0320936A
:100AF0002D0326EE32E03093FF022093FE0291E1B7
:100B00009093230393E19093240392E19093210324
:100B10008093200380931F03B9018CEF92E00E9421
:100B2000F701882321F08CEF92E00E94BE018AE158
:100B300091E09093F9028093F80282E00E949F0076
:100B400083E00E949F00E3ECF0E0E491F0E0EE0F20
:100B5000FF1FE954FF4F859194919093ED0280938C
:100B6000EC02E2EAF0E0E491E093F002E4ECF0E081
:100B7000E491F0E0EE0FFF1FE954FF4F859194914F
:100B80009093EF028093EE02E3EAF0E0E491E093C9
:100B9000F1021092F3021092F4021092F5021092F8
:100BA000F6020E949A00E091EC02F091ED02908131
:100BB0008091F002982381E009F480E0E091EE0258
:100BC000F091EF0290812091F102922309F082606E
:100BD0002CEE32E08093F2023093E3022093E202A3
:100BE00080E992E090930101809300018091690077
:100BF0008C7F816080936900E89A81E08093F7029E
:100C00003093E5022093E40286E992E09093030199
:100C10008093020180916900837F846080936900E2
:100C2000E99A82E08093F7020895CF93DF93CDB7DE
:100C3000DEB7EE970FB6F894DEBF0FBECDBF2DE244
:100C400031E08EE392E0909336018093350110926B
:100C500038011092370182E08093300110923A01FE
:100C6000109239017894E0915502F09156028083F8
:100C7000E0915102F09152021082E0915302F09102
:100C800054028FEC808310925D02E0915902F09142
:100C90005A0286E08083E0915702F09158028081E9
:100CA00088698083E0915702F091580280818F7D9E
:100CB00080838EE790E09F938F933F932F930E94C2
:100CC000C3061C821B828AE191E09A8389831CAE51
:100CD0001DAE1EAE1A8619861C861B861E8681E0F6
:100CE0008D8782E28F871C8A1B8AFE01B8969E013F
:100CF0002A5C3F4F0F900F900F900F908FEF8193D2
:100D00002E173F07E1F791E09DA328E930E03B8FE4
:100D10002A8F9C8F1D8E1E8E90E49F8F18A227E92C
:100D200030E03FAB2EAB26EE32E038872F8391E1E7
:100D30009CA793E19DA792E19AA789A788A7B901EB
:100D4000CE0105960E94F701882321F0CE01059679
:100D50000E94BE0188E690E09F938F938DE291E020
:100D60009F938F930E94C3060F900F900F900F9048
:100D700090E080E0EE960FB6F894DEBF0FBECDBFD8
:100D8000DF91CF910895B0E0A0E0E9ECF6E00C949B
:100D90006A090F811885F801838188608383AE0119
:100DA000455F5F4F69857A85C8010E94DE06F801BC
:100DB0002381277F2383E4E00C948609ABE0B0E035
:100DC000E4EEF6E00C945C097C013B018A01FC0135
:100DD00017821682838181FFC8C1CE0101965C0112
:100DE000F7019381F30193FD859193FF81913F0179
:100DF000882309F453C1853239F493FD859193FF1B
:100E000081913F01853229F4B70190E00E94CE081C
:100E1000E7CF912C212C312CFFE1F31538F08B32E8
:100E200011F190F4803209F1833229F137FC3CC092
:100E300020ED280F2A3050F536FE20C08AE0989E1B
:100E4000200D1124922E06C08D3291F0803371F75F
:100E5000689430F8F30193FD859193FF81913F01F0
:100E60008111DACF21C0689431F8689432F8F2CF5A
:100E7000689433F8EFCF689434F8ECCFEAE02E9E14
:100E8000200D1124222E689435F8E4CF8E3229F4F7
:100E900036FC04C1689436F8DDCF8C3619F46894BA
:100EA00037F8D8CF8836B1F2982F9F7D955493307C
:100EB000E0F08336A1F18337C1F1833509F063C0D7
:100EC0002801F2E04F0E511CF801C080D180692D3D
:100ED00070E036FC02C06FEF7FEFC6010E94B808D9
:100EE0004C01689437F882010AC00C5F1F4FFFE382
:100EF000F98388248394912C6501E89437F833FEB4
:100F00002DC0522C8114910471F5552009F468CF3D
:100F1000B70180E290E00E94CE085A94F6CFF80123
:100F2000808189830E5F1F4FE4CF2801F2E04F0ECE
:100F3000511CF801C080D180692D70E036FC02C0E0
:100F40006FEF7FEFC6010E94C3084C018201D5CF2D
:100F5000B70180E290E00E94CE082A942814190478
:100F600009F0B0F7CECFF60137FC859137FE8191BD
:100F70006F01B70190E00E94CE0851105A94F1E041
:100F80008F1A9108BFCF843619F0893609F077C0DF
:100F9000F80137FE6BC060817181828193810C5FA3
:100FA0001F4FF32DFF763F2E97FF09C09095809538
:100FB000709561957F4F8F4F9F4F689437F82AE067
:100FC00030E0A5010E94FE08C82ECA188C2C432CC4
:100FD00036FE0CC0E89440F8C91440F434FE05C055
:100FE00032FC03C0F32DFE7E4F2E892C44FE95C0AB
:100FF000FE01EC0DF11D8081803309F087C0242DA6
:10100000297E422E842D8870582E43FC95C040FEC8
:101010008FC09C2C821418F42C0C922C981844FE2F
:1010200091C0B70180E390E00E94CE0842FE09C063
:1010300088E790E041FE02C088E590E0B7010E9499
:10104000CE08C91408F48AC0CA94D12C9FEFC91ADB
:10105000D90ACA0CDB1CF60182916F01B70190E03E
:101060000E94CE08AC14BD04B1F74FCF60817181EE
:10107000072E000C880B990B0E5F1F4F92CFD32CBD
:10108000E894D4F82AE030E0853739F1232D297F20
:10109000D22E8F3601F148F48835A9F0F701868108
:1010A00097812B96E2E10C947809803749F08837D4
:1010B000A9F7D4FE02C06894D2F820E130E00DC058
:1010C0006894D4F8F6CF34FE03C0822F8660D82E01
:1010D00020E132E002C028E030E0F801D7FE0FC086
:1010E00060817181828193810C5F1F4FA5010E94F5
:1010F000FE08C82ECA183D2CE89437F867CF6081E7
:10110000718190E080E00E5F1F4FF0CF42FC02C083
:10111000839478CF8394839475CF842D867809F453
:1011200071CFF6CFB70180E290E00E94CE088394A1
:101130008214C0F3512C73CF522C5818821408F427
:101140006ECFF8CF842D867809F47BCF8BE241FEF9
:1011500080E247FC8DE2B70190E071CFB70180E3F8
:1011600090E00E94CE089A946CCF8FEF9FEF99CFBA
:10117000FC010590615070400110D8F78095909562
:101180008E0F9F1F0895FC01615070400190011067
:10119000D8F7809590958E0F9F1F08950F931F93FA
:1011A000CF93DF93182F092FEB018B8181FD09C0AD
:1011B0001FEF0FEF812F902FDF91CF911F910F9194
:1011C000089582FF14C02E813F818C819D81281754
:1011D00039073CF4E881F981CF010196998388832E
:1011E00010838E819F8101969F838E83E3CFE88554
:1011F000F985812F0995892BA1F3DACFFA01AA2766
:10120000283051F1203181F1E8946F936E7F6E5F49
:101210007F4F8F4F9F4FAF4FB1E03ED0B4E03CD0F7
:10122000670F781F891F9A1FA11D680F791F8A1FDA
:10123000911DA11D6A0F711D811D911DA11D20D041
:1012400009F468943F912AE0269F11243019305DFB
:101250003193DEF6CF010895462F4770405D4193EC
:10126000B3E00FD0C9F7F6CF462F4F70405D4A3339
:1012700018F0495D31FD4052419302D0A9F7EACF01
:10128000B4E0A6959795879577956795BA95C9F730
:1012900000976105710508959B01AC010A2E069423
:1012A0005795479537952795BA95C9F7620F731FDC
:1012B000841F951FA01D08952F923F924F925F9219
:1012C0006F927F928F929F92AF92BF92CF92DF9256
:1012D000EF92FF920F931F93CF93DF93CDB7DEB7BB
:1012E000CA1BDB0B0FB6F894DEBF0FBECDBF09944F
:1012F0002A88398848885F846E847D848C849B84A6
:10130000AA84B984C884DF80EE80FD800C811B81B3
:10131000AA81B981CE0FD11D0FB6F894DEBF0FBEE2
:10132000CDBFED010895EE0FFF1F0590F491E02D64
:061330000994F894FFCFC0
:10133600C7000000000000005301C800F5009A0134
:10134600260104011801000000009C02C800C40325
:02135600C303CF
:00000001FF
