:100000000C946B030C94F40A0C94CD0A0C94930397
:100010000C9493030C9493030C9493030C94930308
:100020000C9493030C9493030C9493030C949303F8
:100030000C9493030C9493030C9493030C949303E8
:100040000C94830A0C9493030C94410B0C941B0B9B
:100050000C9493030C94730B0C9493030C949303E0
:100060000C9493030C9493037265666C6F77207401
:100070006F6173746572206F76656E2C0A00686517
:100080006C6C6F20776F726C642C0A00FFD0FFE0FD
:10009000FFCFFF64FFD1FF32380C060201FF64FF7F
:1000A000D0FFFE00000000240027002A000000000E
:1000B00000250028002B00000000090003020000BA
:1000C000040508000000000000000000000001021C
:1000D00004081020408001020408102001020408D6
:1000E000102040804000000000230026002900046A
:1000F00004040404040404020202020202030303CF
:1001000003030302020300101000FE0A01E703D5F7
:10011000207FFE0EFE0BFE00000008000E010A0A02
:100120000804008080808080808000808005040436
:1001300008020888888888060A0A080100242424FE
:10014000FC4848FC909090070A0A080100107C9235
:1001500090701C12927C10070A0A080100629494A5
:100160006810102C52528C070A0A080100384444C7
:100170002830528A848C720104040804088080802C
:1001800080030C0C0803FF2040408080808080802A
:10019000404020030C0C0802FF804040202020201B
:1001A000202040408007070708010110925438546E
:1001B0009210070707080101101010FE101010021E
:1001C00004040803FEC0404080040101080204F05A
:1001D000020202080300C0C0060A0A080100040463
:1001E0000810102020408080060A0A0801003048CC
:1001F0008484848484844830050A0A0802002060CC
:10020000A0202020202020F8060A0A080100788477
:1002100084041820408080FC060A0A0801007884C3
:100220008404380404848478060A0A080100081843
:1002300028488888FC080808060A0A080100FC808B
:100240008080F80404048478060A0A080100384013
:100250008080F88484848478060A0A080100FC04FB
:100260000408080810101010060A0A080100788413
:100270008484788484848478060A0A080100788457
:1002800084847C0404040870020707080301C0C0CA
:10029000000000C0C00209090803FFC0C000000040
:1002A000C040408005090908020008102040804035
:1002B000201008060505080102FC000000FC0509E5
:1002C00009080100804020100810204080060A0A1A
:1002D00008010078848404081010001010060A0A2F
:1002E000080100384494ACA4A4A49C403C060A0A2B
:1002F0000801003048488484FC84848484060A0A07
:10030000080100F8848484F884848484F8060A0A46
:1003100008010078848480808080848478060A0ABA
:10032000080100F08884848484848488F0060A0AA2
:10033000080100FC808080F880808080FC060A0A2A
:10034000080100FC808080F88080808080060A0A96
:1003500008010078848480809C84848C74060A0A56
:1003600008010084848484FC8484848484050A0ACB
:10037000080200F82020202020202020F8070A0A68
:100380000801003E080808080808888870060A0A5C
:10039000080100848890A0C0C0A0908884060A0A42
:1003A000080100808080808080808080FC060A0AAE
:1003B0000801008484CCCCB4B484848484060A0A02
:1003C00008010084C4C4A4A494948C8C84060A0AF2
:1003D00008010078848484848484848478060A0AEA
:1003E000080100F8848484F88080808080070B0BEB
:1003F0000801FF78848484848484B4CC7806060A57
:100400000A080100F8848484F89088888484060AA5
:100410000A08010078848480601804848478070ABC
:100420000A080100FE101010101010101010060A1B
:100430000A08010084848484848484848478070A7C
:100440000A08010082828244444428281010060AC7
:100450000A08010084848484B4B4CCCC8484060A61
:100460000A08010084844848303048488484070AD8
:100470000A08010082824444281010101010060A55
:100480000A080100FC0404081020408080FC030CD2
:100490000C0804FFE080808080808080808080E085
:1004A000060A0A0801008080402020101008040479
:1004B000030C0C0801FFE020202020202020202019
:1004C00020E0060303080109304884070101080100
:1004D000FFFE03030308020A804020060808080103
:1004E000007884047C84848C74060B0B08010080E3
:1004F0008080B8C484848484C4B8060808080100D5
:100500007884808080808478060B0B0801000404C6
:1005100004748C848484848C740608080801007830
:100520008484FC80808478050B0B0801001820204F
:1005300020F8202020202020060B0B0801FE047448
:10054000888888704078848478060B0B08010080C6
:100550008080B8C4848484848484050B0B080200E2
:1005600020200060202020202020F8050D0D08010B
:10057000FE08080018080808080808089060060B1C
:100580000B0801008080808890A0C0A0908884051E
:100590000B0B08020060202020202020202020F8C3
:1005A000070808080100EC92929292929292060833
:1005B00008080100B8C48484848484840608080878
:1005C00001007884848484848478060A0A0801FE01
:1005D000B8C484848484C4B88080060A0A0801FEF2
:1005E000748C848484848C740404060808080100D4
:1005F000B8C4848080808080060808080100788460
:10060000806018048478050A0A080100202020F878
:1006100020202020201806080808010084848484F3
:1006200084848C740608080801008484844848483F
:100630003030070808080100829292929292926CE0
:100640000608080801008484483030488484060A7B
:100650000A0801FE84848484844C340404780608E7
:1006600008080100FC040810204080FC030C0C0862
:1006700003FF608080404080804040808060010EA9
:100680000E0804FE80808080808080808080808052
:100690008080030C0C0802FFC02020404020204036
:1006A000402020C007030308010862928C1010202C
:1006B0001000FEAAAA000180000001800073D1CAC8
:1006C000104BD1CA1073DF80000001800000018050
:1006D00000555500AC0B11241FBECFEFD8E0DEBF94
:1006E000CDBF11E0A0E0B1E0EAEEF2E202C0059079
:1006F0000D92AC36B107D9F724E0ACE6B1E001C009
:100700001D92A330B207E1F713E0CBE6D3E004C0BB
:100710002197FE010E944B11CA36D107C9F70E94EA
:10072000C90C0C9473110C940000089580E0089596
:100730008BE39FE10197F1F7089590E0FC01E95404
:10074000FF4F2491FC01E253FF4F3491FC01E15132
:10075000FF4FE491EE23C9F0222339F0243001F158
:10076000A8F4223069F1233079F1F0E0EE0FFF1F99
:10077000E355FF4FA591B4918FB7F894EC916111B7
:1007800026C030953E233C938FBF0895283071F0EA
:10079000293091F0253049F7809180008F7D03C08A
:1007A000809180008F7780938000DFCF8091B000B0
:1007B0008F778093B000D9CF8091B0008F7DF9CF33
:1007C00084B58F7784BDD1CF84B58F7DFBCF3E2B91
:1007D000DACFCF93DF9390E0FC01E253FF4F2491F7
:1007E00081519F4FFC0184918823D1F090E0880FC4
:1007F000991FFC01ED55FF4FA591B491FC01E35504
:10080000FF4FC591D491623071F49FB7F8943C9139
:10081000822F809583238C93E8812E2B28839FBF82
:10082000DF91CF9108958FB7F894EC912E2B2C93F4
:100830008FBFF6CF0895AF92BF92CF92DF92EF9223
:10084000FF920F931F93CF93DF936C017B018B017A
:10085000040F151FEB015E01AE18BF08C017D107CA
:1008600059F06991D601ED91FC910190F081E02D54
:10087000C6010995892B79F7C501DF91CF911F91A9
:100880000F91FF90EF90DF90CF90BF90AF900895C1
:10089000FC01538D448D252F30E0842F90E0821B86
:1008A000930B541710F0CF96089501970895FC010B
:1008B000918D828D981761F0A28DAE0FBF2FB11D63
:1008C0005D968C91928D9F5F9F73928F90E00895BB
:1008D0008FEF9FEF0895FC01918D828D981731F075
:1008E000828DE80FF11D858D90E008958FEF9FEFC9
:1008F0000895FC01918D228D892F90E0805C9F4F9F
:10090000821B91098F7399270895FC01A48DA80F6C
:10091000B92FB11DA35ABF4F2C91848D90E0019641
:100920008F739927848FA689B7892C93A089B18961
:100930008C9180648C93938D848D981306C002886B
:10094000F389E02D80818F7D80830895EF92FF925F
:100950000F931F93CF93DF93EC0181E0888F9B8DE2
:100960008C8D981316C0E889F989808185FF11C0A4
:10097000EE89FF896083E889F989808180648083BA
:1009800081E090E0DF91CF911F910F91FF90EF9068
:100990000895F62E0B8D10E00F5F1F4F0F73112778
:1009A000E02E8C8D8E110CC00FB607FCFACFE889B3
:1009B000F989808185FFF5CFCE010E948504F1CFB2
:1009C000EB8DEC0FFD2FF11DE35AFF4FF0820B8FE3
:1009D000EA89FB8980818062D2CFCF93DF93EC01DB
:1009E000888D8823B9F0AA89BB89E889F9898C9117
:1009F00085FD03C0808186FD0DC00FB607FCF7CFD3
:100A00008C9185FFF2CF808185FFEDCFCE010E94D2
:100A10008504E9CFDF91CF910895860F911DFC01E8
:100A200083A18F3F19F0642F0C949D030895FC015E
:100A300080819281980F92832181921760F4948132
:100A40009F5F94839381890F821710F08FEF820F3D
:100A5000838381E0089580E00895FC011282808103
:100A600081508383148208952EE93FE0009709F4B2
:100A70000895F9013197F1F70197F8CF30910E03FE
:100A800040910D0350910C0360910B03A091090359
:100A9000B0910A03E0910703F09108039FB7909388
:100AA0000603F8949C91392B9C91492398E087FF89
:100AB0000EC03C93880F2081262320832081252B84
:100AC00020839150A1F7809106038FBF08954C9326
:100AD000F1CFCF93C62F81111BC088EF0E943E0536
:100AE0008C2F807F0E943E058C2F8295807F0E94F4
:100AF0003E0588E290E0FC013197F1F7FC01319767
:100B0000F1F7FC013197F1F70197F1F7CF910895D3
:100B1000813031F78AEFE2CF90E0FC01E151FF4FE5
:100B2000E491F0E0EE0FFF1FE355FF4F2591349164
:100B300030930A032093090370E0FB01E151FF4F5A
:100B4000E491F0E0EE0FFF1FE355FF4F2591349144
:100B5000309308032093070382539F4FFC01849135
:100B600080930E0362537F4FFB01649160930C03EB
:100B7000609560930B03809580930D030895EF9229
:100B8000FF920F931F93CF93DF93EC01142F790102
:100B90006150673008F039C0E62FF0E0EE52FA4FAE
:100BA0000C944B11D905610615060D06230628067F
:100BB0005E067C0183E2E80EF11C8E01005D1F4F92
:100BC000F70181917F018F3F49F061E00E94E903C5
:100BD00061E0F701319780810E949D03E016F106E4
:100BE00079F740E062E0CE010E940D0541E064E04B
:100BF000CE010E940D0540E065E0CE010E940D058A
:100C00006FA188A50E948C051EA281E0DF91CF9183
:100C10001F910F91FF90EF9008958BA160E08F3F9F
:100C2000A1F3CE010E940D05F0CF411103C040E0B9
:100C300062E0F7CF41E062E00E940D056FA188A558
:100C40000E948C05E2CF642F8EA10E946905DDCF42
:100C50008EA1811115C088EF0E943E05C8E2D0E048
:100C6000111112C088E290E0FC013197F1F7FC010C
:100C70003197F1F7FC013197F1F70197F1F7C5CF03
:100C8000813061F78AEFE8CFF7018081807F0E9491
:100C90003E05F70181917F018295807F0E943E058C
:100CA0001150CE010197F1F7DBCFF70164918EA1CE
:100CB0000E946905FFEFEF1AFF0A11501111F5CFDD
:100CC000A4CF4EA3A2CFDB011496ED91FC9130E0AE
:100CD00020E065E00994DB011496ED91FC9130E091
:100CE00020E062E00994DB011496ED91FC9130E084
:100CF00020E063E00994CF93DF93EC01AE81BF81E4
:100D00009D81969596959695862F8770E0E8F0E000
:100D100002C0F595E7958A95E2F78A81481B499FBD
:100D2000402D1124669566956695460F5527551FEB
:100D3000A40FB51F8C91222329F0E82BEC93DF91AF
:100D4000CF910895E095E823F9CFFB014181DC01C3
:100D500012962C911297421768F013962C911397C4
:100D6000241740F0608115962C91621718F42481A5
:100D70000C947B060895DB01ED91FC9109940F938F
:100D80001F93CF93DF931F92CDB7DEB70091CB03B4
:100D90001091CC03E091FA03F091FB0382E00995F6
:100DA00030E020E04AE0B80189EC93E00E94BB0605
:100DB000182FE091FA03F091FB0383E00995E0918D
:100DC000FA03F091FB0380E009951123B9F16091DA
:100DD000CB037091CC039E012F5F3F4F46E489EC1B
:100DE00093E00E94BB0689818093C9036091CB0385
:100DF0007091CC039E012F5F3F4F47E489EC93E055
:100E00000E94BB0689818093CA036091CB037091D5
:100E1000CC0330E020E048E489EC93E00E94BB067C
:100E20008093D4036091CB037091CC032CEF33E01B
:100E300047E189EC93E00E94BB0611E0812F0F90FF
:100E4000DF91CF911F910F9108950B96FC01849132
:100E500008950A96FC0184910895FC0184910895F7
:100E60000E942D07882321F0823011F083E008953D
:100E700086E00895FC01E60FF11D849190E0982F23
:100E800088273196E4918E0F911D089568E00C94A7
:100E90003A0766E00C943A075F926F927F928F92C6
:100EA0009F92AF92BF92CF92DF92EF92FF920F93F9
:100EB0001F93CF93DF93EC01E62EF42EC22E0C810C
:100EC0001D81C8010E942D07D82E8C819D810E9412
:100ED0003007982E21E0AA24AA94D21202C02FE053
:100EE000A22E8C819D810E942907D82E8C819D8104
:100EF0000E942507B82E8C819D810E944607E0E65E
:100F0000EC1578F4009769F0080F191F91E6D92EB7
:100F1000BC14C0F4188A1B8A1C8A198A1A8A80E0B9
:100F2000A0C08C819D810E944907F0E4FC1538F433
:100F3000009729F0080F191F81E4D82EE9CF0F5E22
:100F40001F4FE6CFBD1430F3892D90E0F8012491B6
:100F50002F3F31F40F5F1F4FBD14E1F2D394F6CF52
:100F6000CD1072C08C819D810E942D0798012F5F4A
:100F70003F4FF801882319F0823009F04EC0849168
:100F80008B8BF90124912C8BF8013396E491E88B3B
:100F9000F8013496E491E98BF8013596E491EA8BF7
:100FA0000115110509F4BBCF8C819D810E9430078A
:100FB0003C89F31A9A89F91A9FEF930F9F0D2CA978
:100FC0004EA94F1508F449C0921718F49F1508F060
:100FD00047C02B899989E90E9FEF920F9E0D4BA96F
:100FE0005DA95E1508F44DC0941718F49E1508F01D
:100FF00037C0080F111D295F722E7694769476946F
:101000006F2C630E5E01FCE1AF0EB11C872C912C9E
:10101000F61431F15E2C68014AC08491982F9F70BC
:1010200092509A8B82958F70898BF9012491822F2F
:101030008F708C8B22952F702B8BF8013296E49158
:10104000E295EF70E88BACCF3296E491EA21E80F9D
:10105000F92FF11D0E0F1F1F7FCF921708F0B6CF8B
:101060008889DF91CF911F910F91FF90EF90DF90D2
:10107000CF90BF90AF909F908F907F906F905F9038
:101080000895941708F0B2CFEBCFF60184916A81EE
:101090007B815C8EFD8E1F8E8E8F95014BE3CE0182
:1010A0000E94BB06FFEFCF1ADF0A28E0520E8C2DFC
:1010B000801B871550F3080D191DF394A9CFEF92EB
:1010C000FF920F931F93CF93DF93F82E062FE42EFA
:1010D000152FE091DE03F091DF0389EC93E0099591
:1010E000080FCE2DD12F10E02991211108C0812F9A
:1010F000DF91CF911F910F91FF90EF900895402FB6
:101100006F2D89EC93E00E944C07F80E180FECCF7E
:101110009F92AF92BF92CF92DF92EF92FF920F9386
:101120001F93CF93DF937C018B01942E69018AE09A
:10113000481739F195E1491709F486C0F801C281D1
:10114000D381F2E39F1609F429C1F91508F4CBC045
:1011500085E1981609F427C197E1991609F433C17E
:10116000A4E19A12EFC0EE81FF818D818E0F9F2F37
:10117000911D11928E179F07E1F7CE010E942D0558
:10118000E1C0DB011496ED91FC9130E020E043E0FA
:1011900061E0C701099580E09CE8A92E90E0B92E96
:1011A000F501C491811110C081E0CF3F49F04C2F6F
:1011B000B801C7010E946306882309F4BFCF80E00D
:1011C000BFEFAB1ABB0AECCF4FEFCF3F89F3CE3F57
:1011D00009F4B4CFC03F98F7C03E38F04C2F4F70A1
:1011E000B801C7010E946B06EACFC03D38F04C2F12
:1011F0004F70B801C7010E947306E1CFC03CF8F000
:10120000D8011496ED91FC9130E020E040E064E0DC
:10121000C7010995C295C07FCE5FD0E0CE010E9484
:101220003405D8011496ED91FC9130E020E041E0C6
:1012300064E0C7010995CE010E943405C0CFC7FD07
:10124000BECF8C2F90E0F8CFFB01A280B38040E0AE
:10125000C7010E946B0641E0B801C7010E947306F6
:10126000D5011296CC9112971696AD90BC90D8E00D
:10127000DC0F40E0B801C7010E946B064EE3B801E5
:10128000C7010E946306C03228F54C2F4068B801A0
:10129000C7010E94630640E8B801C7010E946306C7
:1012A00041E0B801C7010E946B06D8011496ED9188
:1012B000FC91950140E166E0C7010995B0E1AB0EF4
:1012C000B11CCF5FCD13D5CF40E0B801C7010E945C
:1012D000730634CF40EE4C0F4068B801C7010E943E
:1012E000630648E8D9CFB6E49B1609F47BC0E7E46F
:1012F0009E1609F47BC0FBE39F1224C0D601119611
:101300009C91119713968C9138E0390F813031F010
:10131000833011F0392F02C0392F985021E04B81D2
:10132000491708F420E041E0391708F040E091E067
:101330005A81351708F490E0322F342B932379F437
:10134000242369F481E0DF91CF911F910F91FF90E9
:10135000EF90DF90CF90BF90AF909F900895F601EF
:10136000128100E0F12C843048F490E0FC01EA5E48
:10137000FE4FF0808E5E9E4FDC010C9117FF04C083
:10138000B601CE010E94A506F60180818F0D8083F3
:101390008181800F8183110F89F7D4CFB601CE01EF
:1013A0000E94A506CFCFCE010E941705882359F2CF
:1013B000EE81FF818D818E0F9F2F911D11928E17CF
:1013C0009F07E1F7BFCFD6011C928A8111968C93BB
:1013D00011978D81815012968C9312978B81139661
:1013E0008C93B0CF8D81F6018083ACCF8981D601FB
:1013F0008C93A8CFDC01ED91FD918081ED91FD9161
:101400009081ED91FD916C9163708E2309F0646081
:101410009F2309F06860E7E1FAE0E60FF11D6595AA
:1014200065956D936D917D918D919D91099423C0EA
:101430001AC012C016C010C01EC009C014C013C00C
:1014400006C019C009C00DC007C00DC014C062504D
:101450007040804090400BC0615070408040904090
:1014600006C06E5F01C06F5F7F4F8F4F9F4F9E938F
:101470008E937E936E9308958091B5039091B603F9
:101480000C94FA098091B7039091B8030C94FA096F
:10149000CF93C82F8A3019F48DE00E94480A6C2F30
:1014A00088E193E00E94A60490E080E0CF91089547
:1014B000DF92EF92FF920F931F93CF93DF93EC0194
:1014C000D62E1CAD0BAD7C0184E0E80EF11CE98D3D
:1014D000FA8DC7010995412F480F2D2D602FC701A7
:1014E0000E944C079BAD890F8BAF81E090E0DF91AC
:1014F000CF911F910F91FF90EF90DF900895089585
:1015000090E080E008951F920F920FB60F92112481
:101510002F933F938F939F93AF93BF938091140327
:1015200090911503A0911603B09117033091130306
:1015300023E0230F2D3768F126E8230F0296A11D23
:10154000B11D209313038093140390931503A0936C
:101550001603B093170380910F0390911003A0918D
:101560001103B09112030196A11DB11D80930F03C9
:1015700090931003A0931103B0931203BF91AF9106
:101580009F918F913F912F910F900FBE0F901F90C1
:1015900018950196A11DB11DD4CF1F920F920FB6C1
:1015A0000F9211242F933F934F935F936F937F93E9
:1015B0008F939F93AF93BF93EF93FF93E0910A01B3
:1015C000F0910B010995FF91EF91BF91AF919F9120
:1015D0008F917F916F915F914F913F912F910F90DC
:1015E0000FBE0F901F9018951F920F920FB60F927B
:1015F00011242F933F934F935F936F937F938F9318
:101600009F93AF93BF93EF93FF93E0910801F09105
:1016100009010995FF91EF91BF91AF919F918F9132
:101620007F916F915F914F913F912F910F900FBEDE
:101630000F901F9018951F920F920FB60F921124C2
:101640002F933F934F935F936F937F938F939F93CA
:10165000AF93BF93EF93FF9388E193E00E948504DB
:10166000FF91EF91BF91AF919F918F917F916F917A
:101670005F914F913F912F910F900FBE0F901F9050
:1016800018951F920F920FB60F9211242F938F93DC
:101690009F93EF93FF93E0912803F09129038081BA
:1016A000E0912E03F0912F0382FD1BC09081809169
:1016B00031038F5F8F7320913203821741F0E091E5
:1016C0003103F0E0E85EFC4F958F80933103FF918A
:1016D000EF919F918F912F910F900FBE0F901F90C0
:1016E00018958081F4CF1F920F920FB60F9211249C
:1016F0002F938F939F93EF93FF9380917800E091C6
:101700000503F0E090E0EE0FFF1FEB5FFD4F9183CC
:10171000808320917900E0910503F0E0EE0FFF1F38
:10172000EB5FFD4F80819181922B9183808380912B
:10173000050390E001968F779927809305038FEC3E
:1017400080937A00FF91EF919F918F912F910F904D
:101750000FBE0F901F90189510921B0310921A0342
:1017600088EE93E0A0E0B0E080931C0390931D030B
:10177000A0931E03B0931F038EE191E09093190391
:101780008093180385EC90E09093250380932403C5
:1017900084EC90E0909327038093260380EC90E004
:1017A000909329038093280381EC90E090932B037E
:1017B00080932A0382EC90E090932D0380932C0376
:1017C00086EC90E090932F0380932E0310923103C8
:1017D00010923203109233031092340362E082E0DD
:1017E0000E94E90362E083E00E94E903E1EFF0E098
:1017F000E491F0E0EE0FFF1FEB51FF4F85919491C4
:101800009093BA038093B903E0EDF0E0E491E093A4
:10181000BD03E2EFF0E0E491F0E0EE0FFF1FEB51CB
:10182000FF4F859194919093BC038093BB03E1EDAE
:10183000F0E0E491E093BE031092C0031092C10364
:101840001092C2031092C3030E949803E091B9035F
:10185000F091BA0390818091BD03982381E009F44F
:1018600080E0E091BB03F091BC0390812091BE0326
:10187000922309F0826029EB33E08093BF03309319
:10188000B6032093B5038CE39AE09093090180930B
:101890000801809169008C7F816080936900E89ADB
:1018A00091E09093C4033093B8032093B70322E4EC
:1018B0003AE030930B0120930A0180916900837F05
:1018C000846080936900E99A82E08093C403109257
:1018D000C8031092C70320E331E03093C60320937E
:1018E000C503109200041092010410920204109299
:1018F000CE031092CD031092D0031092CF0310921A
:10190000D2039093D10382E28093D3031092D80341
:101910001092D703ECEEF3E02AEF33E08FEF8193E0
:101920002E173F07E1F791E09093E90326E933E0B2
:101930003093DF032093DE039093E0031092E103E2
:101940001092E20390E49093E3031092E40325E9FC
:1019500033E03093FB032093FA032CE031E0309323
:10196000CC032093CB0391E19093F00393E1909308
:10197000F10392E19093EE038093ED038093EC03E7
:101980000E94BF0680E391E09093C6038093C50355
:101990000895CF93DF93CDB7DEB7A1970FB6F89434
:1019A000DEBF0FBECDBF27EF31E088E49AE0909311
:1019B00000028093FF01109202021092010282E065
:1019C0008093FA011092040210920302E09128031E
:1019D000F09129038083E0912403F0912503108284
:1019E000E0912603F09127038FEC8083109230035F
:1019F000E0912C03F0912D0386E08083E0912A038F
:101A0000F0912B03808188698083E0912A03F09113
:101A10002B0380818F7D80838EE790E09F938F934F
:101A20003F932F930E945C0E62E084E00E94E903E2
:101A300081E0809302040E94BF060F900F900F90E8
:101A40000F908091CD039091CE038650914099F1F3
:101A500086E091E09093CE038093CD038091E003E4
:101A6000811113C1EBE0F1E0E491E093E103E2E1E5
:101A7000F1E0E491E093E2038091E103082E000C91
:101A8000990B2091E203821B910927FD93952091E8
:101A9000E303203441F0829FC001112456E0969563
:101AA00087955A95E1F78093E40386E993E0909354
:101AB000DF038093DE0388E690E09F938F9387EFA8
:101AC00091E09F938F930E945C0E0F900F900F9068
:101AD0000F9044E0442E512C612C712C8E01005E3D
:101AE0001F4F8091C403823008F0E1C0F89489EB65
:101AF00093E00E94FA096091C0037091C103809144
:101B0000C2039091C3037894A30192010E942C1107
:101B1000CA01B901A30192010E942C116B017C0141
:101B200080910204811105C081E0809302040E942B
:101B3000BF068090CB039090CC03E091FA03F09124
:101B4000FB0382E00995E091FA03F091FB0381E049
:101B5000099530E020E044E1B40189EC93E00E9473
:101B6000BB062CEF33E047E1B40189EC93E00E941F
:101B7000BB06E091FA03F091FB0380E009958C2D00
:101B80008295807F9CE0B92EB80E20E3222E2C0C8B
:101B900088279927DC018C199D09AE09BF0930E31C
:101BA000A32EA80E48E351E06B2D81E00E945F0850
:101BB0004AE351E06CE08AE00E945F0846E451E0AD
:101BC0006CE18AE00E945F0846E551E06CE28AE041
:101BD0000E945F084EE551E06CE38AE00E945F08D6
:101BE00024E62093000480E180930104F7FE61C0A5
:101BF0006DE285EC93E00E94580A19A2A8A2F801B0
:101C000001900020E9F73197AF01401B510BB8015B
:101C100085EC93E00E941B04E091D703F091D80378
:101C2000309719F089EC93E009958090CB03909060
:101C3000CC03E091FA03F091FB0382E00995E09177
:101C4000FA03F091FB0381E0099530E020E045E1E3
:101C5000B40189EC93E00E94BB06382E882341F042
:101C60002CEF33E047E1B40189EC93E00E94BB061E
:101C7000E091FA03F091FB0380E00995311092CFD7
:101C80004C992FCF4C9BFECF2CCF813041F4E5E116
:101C9000F1E0E491E093E103E6E1F1E0EACEE3E193
:101CA000F1E0E491E093E103E4E1F1E0E2CEF894C5
:101CB00022CF19A228A2A3CFB0E0A0E0E2E6FEE086
:101CC0000C9403110F811885F80183818860838348
:101CD000AE01455F5F4F69857A85C8010E94770E26
:101CE000F8012381277F2383E4E00C941F11ABE0EC
:101CF000B0E0EDE7FEE00C94F5107C013B018A01B9
:101D0000FC0117821682838181FFC8C1CE01019632
:101D10005C01F7019381F30193FD859193FF81911C
:101D20003F01882309F453C1853239F493FD85912D
:101D300093FF81913F01853229F4B70190E00E9421
:101D40006710E7CF912C212C312CFFE1F31538F0EF
:101D50008B3211F190F4803209F1833229F137FC92
:101D60003CC020ED280F2A3050F536FE20C08AE016
:101D7000989E200D1124922E06C08D3291F0803352
:101D800071F7689430F8F30193FD859193FF819189
:101D90003F018111DACF21C0689431F8689432F89C
:101DA000F2CF689433F8EFCF689434F8ECCFEAE0E0
:101DB0002E9E200D1124222E689435F8E4CF8E3209
:101DC00029F436FC04C1689436F8DDCF8C3619F45A
:101DD000689437F8D8CF8836B1F2982F9F7D955404
:101DE0009330E0F08336A1F18337C1F1833509F0F8
:101DF00063C02801F2E04F0E511CF801C080D18071
:101E0000692D70E036FC02C06FEF7FEFC6010E94C3
:101E100051104C01689437F882010AC00C5F1F4FC3
:101E2000FFE3F98388248394912C6501E89437F8C3
:101E300033FE2DC0522C8114910471F5552009F404
:101E400068CFB70180E290E00E9467105A94F6CF05
:101E5000F801808189830E5F1F4FE4CF2801F2E0F3
:101E60004F0E511CF801C080D180692D70E036FC06
:101E700002C06FEF7FEFC6010E945C104C0182012F
:101E8000D5CFB70180E290E00E9467102A94281411
:101E9000190409F0B0F7CECFF60137FC859137FE73
:101EA00081916F01B70190E00E94671051105A9420
:101EB000F1E08F1A9108BFCF843619F0893609F006
:101EC00077C0F80137FE6BC0608171818281938198
:101ED0000C5F1F4FF32DFF763F2E97FF09C09095A3
:101EE0008095709561957F4F8F4F9F4F689437F81D
:101EF0002AE030E0A5010E949710C82ECA188C2C49
:101F0000432C36FE0CC0E89440F8C91440F434FE6B
:101F100005C032FC03C0F32DFE7E4F2E892C44FEFB
:101F200095C0FE01EC0DF11D8081803309F087C062
:101F3000242D297E422E842D8870582E43FC95C076
:101F400040FE8FC09C2C821418F42C0C922C9818F4
:101F500044FE91C0B70180E390E00E94671042FE0A
:101F600009C088E790E041FE02C088E590E0B70133
:101F70000E946710C91408F48AC0CA94D12C9FEF3C
:101F8000C91AD90ACA0CDB1CF60182916F01B7018C
:101F900090E00E946710AC14BD04B1F74FCF608190
:101FA0007181072E000C880B990B0E5F1F4F92CF8B
:101FB000D32CE894D4F82AE030E0853739F1232D8A
:101FC000297FD22E8F3601F148F48835A9F0F70128
:101FD000868197812B96E2E10C941111803749F0AC
:101FE0008837A9F7D4FE02C06894D2F820E130E027
:101FF0000DC06894D4F8F6CF34FE03C0822F8660FB
:10200000D82E20E132E002C028E030E0F801D7FE0F
:102010000FC060817181828193810C5F1F4FA50188
:102020000E949710C82ECA183D2CE89437F867CF45
:102030006081718190E080E00E5F1F4FF0CF42FC25
:1020400002C0839478CF8394839475CF842D86784F
:1020500009F471CFF6CFB70180E290E00E946710DB
:1020600083948214C0F3512C73CF522C58188214CD
:1020700008F46ECFF8CF842D867809F47BCF8BE2FD
:1020800041FE80E247FC8DE2B70190E071CFB701DD
:1020900080E390E00E9467109A946CCF8FEF9FEFDF
:1020A00099CFFC010590615070400110D8F78095E0
:1020B00090958E0F9F1F0895FC0161507040019014
:1020C0000110D8F7809590958E0F9F1F08950F935C
:1020D0001F93CF93DF93182F092FEB018B8181FD85
:1020E00009C01FEF0FEF812F902FDF91CF911F912C
:1020F0000F91089582FF14C02E813F818C819D81B4
:10210000281739073CF4E881F981CF0101969983BA
:10211000888310838E819F8101969F838E83E3CF76
:10212000E885F985812F0995892BA1F3DACFFA018A
:10213000AA27283051F1203181F1E8946F936E7F06
:102140006E5F7F4F8F4F9F4FAF4FB1E03ED0B4E0F7
:102150003CD0670F781F891F9A1FA11D680F791F38
:102160008A1F911DA11D6A0F711D811D911DA11D49
:1021700020D009F468943F912AE0269F1124301959
:10218000305D3193DEF6CF010895462F4770405DF4
:102190004193B3E00FD0C9F7F6CF462F4F70405DA3
:1021A0004A3318F0495D31FD4052419302D0A9F7FE
:1021B000EACFB4E0A6959795879577956795BA95F8
:1021C000C9F700976105710508959B01AC010A2EBE
:1021D00006945795479537952795BA95C9F7620F95
:1021E000731F841F951FA01D08952F923F924F9239
:1021F0005F926F927F928F929F92AF92BF92CF9297
:10220000DF92EF92FF920F931F93CF93DF93CDB79F
:10221000DEB7CA1BDB0B0FB6F894DEBF0FBECDBF17
:1022200009942A88398848885F846E847D848C84E8
:102230009B84AA84B984C884DF80EE80FD800C81F1
:102240001B81AA81B981CE0FD11D0FB6F894DEBFD4
:102250000FBECDBFED010895052E97FB1EF400942F
:102260000E94431157FD07D00E94511107FC03D073
:102270004EF40C94431150954095309521953F4F65
:102280004F4F5F4F089590958095709561957F4F62
:102290008F4F9F4F0895EE0FFF1F0590F491E02D93
:1022A0000994A1E21A2EAA1BBB1BFD010DC0AA1F97
:1022B000BB1FEE1FFF1FA217B307E407F50720F0AF
:1022C000A21BB30BE40BF50B661F771F881F991F2A
:1022D0001A9469F760957095809590959B01AC0173
:0A22E000BD01CF010895F894FFCF6F
:1022EA0008400000008077011A04000088080001F5
:1022FA00BF05000100FF0100FF0000000000A60466
:10230A001B044804ED04790457046B040000000020
:10231A00580A1B04800A7F0A3E004175746F2052D6
:10232A0065666C6F77005365742054656D706572CD
:10233A006174757265005365742050574D00456489
:0C234A0069742053657474696E67730039
:00000001FF
