:100000000C94FD0E0C9412160C94EB150C94250F09
:100010000C94250F0C94250F0C94250F0C94250F90
:100020000C94250F0C94250F0C94250F0C94250F80
:100030000C94250F0C94250F0C94250F0C94250F70
:100040000C94A1150C94250F0C94250F0C94250FDE
:100050000C94250F0C94250F0C94250F0C94250F50
:100060000C94250F0C94250F00000000230026009F
:100070002900FFD0FFE0FFCFFF64FFD1FF32380C33
:10008000060201FF64FFD0FFFE526F742E20456E02
:10009000632E20546573743A0048656C6C6F20576A
:1000A0006F726C64210000000000240027002A0009
:1000B00000000000250028002B00040404040404B0
:1000C0000404020202020202030303030303020206
:1000D00003010204081020408001020408102001DE
:1000E00002040810204080400000000900030200C4
:1000F00000040508000000000000000000000001EE
:10010000060A00FE070136026820FFFE08FE07FE11
:100110000A00602217678080808080008016336329
:10012000A0A0A00257675050F850F85050025767EF
:100130002070A07028702002576748A8502050A84F
:100140009002576740A0A040A89068261363808063
:1001500080123767204080808040201237678040BF
:1001600020202040800355658850F850880355654D
:100170002020F82020113363604080055161F81180
:10018000336340E040025767080810204080800237
:100190005767205088888850200257672060A02029
:1001A0002020F8025767708808304080F8025767AF
:1001B000F808103008887002576710305090F81017
:1001C00010025767F880B0C808887002576730403F
:1001D00080B0C88870025767F808101020404002AD
:1001E0005767708888708888700257677088986829
:1001F00008106011376740E0400040E04011376769
:1002000040E040006040801247671020408040205E
:1002100010045363F800F812476780402010204014
:10022000800257677088102020002002576770886E
:1002300098A8B0807002576720508888F888880294
:100240005767F04848704848F002576770888080C8
:10025000808870025767F04848484848F00257675E
:10026000F88080F08080F8025767F88080F0808006
:1002700080025767708880809888700257678888E6
:1002800088F8888888123767E04040404040E002A4
:100290005767381010101090600257678890A0C000
:1002A000A09088025767808080808080F80257671E
:1002B0008888D8A88888880257678888C8A89888B6
:1002C0008802576770888888888870025767F08826
:1002D00088F08080800158687088888888A87008B5
:1002E000025767F08888F0A090880257677088806E
:1002F00070088870025767F82020202020200257BD
:1003000067888888888888700257678888885050EE
:100310005020025767888888A8A8D888025767881D
:1003200088502050888802576788885020202020D5
:10033000025767F80810204080F8123767E0808085
:10034000808080E0025767808040201008081237C4
:1003500067E02020202020E00653632050880151D0
:1003600061F828226280400255657008788878021A
:1003700057678080B0C888C8B0025565708880888B
:1003800070025767080868988898680255657088F1
:10039000F88070025767304840F04040400057678F
:1003A000788888780888700257678080B0C8888805
:1003B000881237674000C0404040E0104969100093
:1003C0003010101090906002576780808890E09005
:1003D00088123767C04040404040E0025565D0A8D1
:1003E000A8A888025565B0C88888880255657088B5
:1003F000888870005767B0C888C8B0808000576789
:1004000068988898680808025565B0C8808080029E
:10041000556570807008F00257674040F0404048D2
:1004200030025565888888986802556588885050DC
:10043000200255658888A8A850025565885020502C
:100440008800576788889868088870025565F81092
:100450002040F8124767304020C020403022176704
:1004600080808080808080124767C020403040209C
:10047000C006536348A890FFFFFFFFFFFFFFFFFF89
:10048000FFFFFFFFFFFFFFFFFFFFFFFFFFFFFFFF7C
:10049000FFFFFFFFFFFFFFFF0A00602217678000DA
:1004A00080808080800157672078A0A0A0782002FB
:1004B0005767304840E04048B0025565887050703A
:1004C0008801586888885020F820202022176780EB
:1004D0008080008080800158687080E090483808F3
:1004E00070193161A00257677088A8C8A888701376
:1004F00046667090B05000F002656524489048242C
:10050000144262F010154161F00257677088E8C824
:10051000C88870095161F816336340A040025666DE
:100520002020F82020F815456560902040F0154502
:1005300065E0106010E028226240800156668888DD
:1005400088C8B08002576778E8E86828282825110D
:100550006180202262408015356540C04040E01334
:1005600046666090906000F002656590482448906F
:1005700001696940C04040E40C143C0401696940D1
:10058000C04040E81404081C015969C0204020C83C
:1005900018287808025767200020204088700258E9
:1005A000684020708888F888880258681020708811
:1005B00088F888880258682050708888F8888802EF
:1005C000586848B0708888F8888802586850007069
:1005D0008888F888880258682050708888F8888849
:1005E0000267673C50909CF0909C0059697088802D
:1005F00080808870204002586840F88080F08080B9
:10060000F802586810F88080F08080F8025868205E
:10061000F88080F08080F802586850F88080F08080
:1006200080F81238688040E040404040E01238686E
:100630002040E040404040E012386840A0E04040A8
:100640004040E0123868A000E040404040E00257DF
:1006500067F04848E84848F0025868285088C8A819
:100660009888880258684020708888888870025866
:1006700068102070888888887002586820507088B8
:100680008888887002586828507088888888700226
:100690005868500070888888887002556588502096
:1006A0005088025767709898A8C8C8700258684068
:1006B00020888888888870025868102088888888F0
:1006C00088700258682050008888888870025868AE
:1006D0005000888888888870025868102088885060
:1006E00020202002576780F088F0808080025767C2
:1006F000708890A09088B0025868402000700878F8
:100700008878025868102000700878887802586845
:1007100020500070087888780258682850007008C7
:10072000788878025767500070087888780258688F
:10073000205020700878887802656578147C907C59
:1007400000576770888088702040025868402000F9
:100750007088F880700258681020007088F88070E7
:100760000258682050007088F88070025767500067
:100770007088F88070123868804000C0404040E0C7
:10078000123868408000C0404040E012386840A005
:1007900000C0404040E0123767A000C0404040E049
:1007A000025767C0307088888870025868285000E7
:1007B000B0C888888802586840200070888888708F
:1007C000025868102000708888887002586820508D
:1007D000007088888870025868285000708888885F
:1007E0007002576750007088888870035565200034
:1007F000F800200255657898A8C8F0025868402093
:10080000008888889868025868102000888888982E
:100810006802586820500088888898680257675096
:100820000088888898680059691020888898680826
:10083000887000586880F0888888F0808000596946
:1008400050008888986808887000101000FE0A061A
:10085000A7089500FFFE0EFE0BFE1010201000FEF4
:10086000AAAA00018000000180004A51EA505A51B2
:10087000C99E0001800000018000000180005555E4
:100880001010201000FEAAAA0001800000018000C4
:100890003993C252325F8A52719380000001800006
:1008A0000001800055551010201000FEAAAA00017A
:1008B0008000000180003BA5C124311989247125E5
:1008C00080000001800000018000555510102010AC
:1008D00000FEAAAA00018000000180007BA5C124BF
:1008E0007919C12479258000000180000001800071
:1008F00055551010201000FEAAAA0001800000012A
:10090000800079BFC2487A49C248798980000001D5
:1009100080000001800055551010201000FEAAAA8A
:1009200000018000000180007A4DC2527B53C2D684
:100930007A4F8000000180000001800055551010A2
:10094000201000FEAAAA000180000001800031A54D
:10095000CA287A31CA2849A5800000018000000118
:10096000800055551010201000FEAAAA000180003A
:100970000001800073D1CA1073D1CA1073DF8000E8
:10098000000180000001800055551010201000FE6D
:10099000AAAA00018000000180001E3991401E318A
:1009A00091081E71800000018000000180005555F3
:1009B0001010201000FEAAAA000180000001800093
:1009C00022F9A2203E21A2202221800000018000E5
:1009D0000001800055551010201000FEAAAA000149
:1009E00080000001800020F9A08020F9A0803E81D5
:1009F000800000018000000180005555101020107B
:100A000000FEAAAA000180000001800022F9A220B5
:100A10002221942008218000000180000001800034
:100A200055551010201000FEAAAA000180000001F8
:100A300080003EF9A0803EF9A08020818000000166
:100A400080000001800055551010201000FEAAAA59
:100A500000018000000180001EF1A08820F1A0901C
:100A60001E89800000018000000180005555101093
:100A7000201000FEAAAA00018000000180001E7163
:100A8000A0881C8982883C718000000180000001E0
:100A9000800055551010201000FEAAAA0001800009
:100AA000000180001EF9A0201C2182203CF980005A
:100AB000000180000001800055551010201000FE3C
:100AC000AAAA0001800000018000391DA510251D83
:100AD000A51039DD8000000180000001800055551F
:100AE0001010201000FEAAAA000180000001800062
:100AF0007189CA184A09CA08719D800000018000E6
:100B00000001800055551010201000FEAAAA000117
:100B10008000000180007199CA044A09CA10719DC1
:100B20008000000180000001800055551010201049
:100B300000FEAAAA00018000000180007199CA0489
:100B40004A19CA04719980000001800000018000E8
:100B500055551010201000FEAAAA000180000001C7
:100B600080007185CA0C4A15CA1C7185800000017D
:100B700080000001800055551010201000FEAAAA28
:100B800000018000000180004993EA546A59DBD4D7
:100B90004A5380000001800000018000555510106C
:100BA000201000FEAAAA000180000001800034533A
:100BB000C29A311789127113800000018000000170
:100BC000800055551010201000FEAAAA00018000D8
:100BD000000180007BB9C1247939C12479398000B2
:100BE000000180000001800055551010201000FE0B
:100BF000AAAA00018000000180003325C4B447ADDB
:100C0000C4A434A580000001800000018000555577
:100C10001010201000FEAAAA000180000001800030
:100C20003E89A0D83EA9A0883E89800000018000AE
:100C30000001800055551010201000FEAAAA0001E6
:100C40008000000180003A5DC252325D8A52719D7F
:100C50008000000180000001800055551010201018
:100C600000FEAAAA000180000001800079CFC21016
:100C70007991C0507B8F80000001800000018000CE
:100C800055551010201000FEAAAA00018000000196
:100C900080001E7190801E61901010E180000001A4
:100CA00080000001800055551010201000FEAAAAF7
:100CB00000018000000180000E719080166192108A
:100CC0000EE18000000180000001800055551010E9
:100CD000201000FEAAAA00018000000180001C7103
:100CE00092801C61941012E18000000180000001DC
:100CF000800055551010201000FEAAAA00018000A7
:100D00000001800012719280126192100CE180004B
:100D10000001800000018000555500000008000E11
:100D2000010A0A0804008080808080808000808022
:100D300005040408020888888888060A0A08010051
:100D4000242424FC4848FC909090070A0A080100DB
:100D5000107C9290701C12927C10070A0A08010005
:100D60006294946810102C52528C070A0A080100F1
:100D70003844442830528A848C72010404080408E0
:100D800080808080030C0C0803FF2040408080801E
:100D9000808080404020030C0C0802FF80404020EF
:100DA00020202020204040800707070801011092E2
:100DB0005438549210070707080101101010FE1054
:100DC00010100204040803FEC04040800401010822
:100DD0000204F0020202080300C0C0060A0A080169
:100DE0000004040810102020408080060A0A080130
:100DF0000030488484848484844830050A0A0802C8
:100E0000002060A0202020202020F8060A0A0801E7
:100E100000788484041820408080FC060A0A0801B7
:100E20000078848404380404848478060A0A08015B
:100E300000081828488888FC080808060A0A0801DB
:100E400000FC808080F80404048478060A0A080103
:100E50000038408080F88484848478060A0A080177
:100E600000FC040408080810101010060A0A080103
:100E70000078848484788484848478060A0A08014B
:100E800000788484847C0404040870020707080343
:100E900001C0C0000000C0C00209090803FFC0C0B3
:100EA000000000C040408005090908020008102029
:100EB000408040201008060505080102FC000000E3
:100EC000FC0509090801008040201008102040801E
:100ED000060A0A0801007884840408101000101023
:100EE000060A0A080100384494ACA4A4A49C403C1F
:100EF000060A0A0801003048488484FC84848484FB
:100F0000060A0A080100F8848484F884848484F83A
:100F1000060A0A08010078848480808080848478AE
:100F2000060A0A080100F08884848484848488F096
:100F3000060A0A080100FC808080F880808080FC1E
:100F4000060A0A080100FC808080F880808080808A
:100F5000060A0A08010078848480809C84848C744A
:100F6000060A0A08010084848484FC8484848484BE
:100F7000050A0A080200F82020202020202020F85E
:100F8000070A0A0801003E0808080808088888704F
:100F9000060A0A080100848890A0C0C0A090888436
:100FA000060A0A080100808080808080808080FCA2
:100FB000060A0A0801008484CCCCB4B484848484F6
:100FC000060A0A08010084C4C4A4A494948C8C84E6
:100FD000060A0A08010078848484848484848478DE
:100FE000060A0A080100F8848484F88080808080E2
:100FF000070B0B0801FF78848484848484B4CC7844
:1010000006060A0A080100F8848484F89088888417
:1010100084060A0A080100788484806018048484A5
:1010200078070A0A080100FE1010101010101010A6
:1010300010060A0A080100848484848484848484D9
:1010400078070A0A08010082828244444428281052
:1010500010060A0A08010084848484B4B4CCCC84C9
:1010600084060A0A080100848448483030484884CD
:1010700084070A0A080100828244442810101010D4
:1010800010060A0A080100FC0404081020408080B1
:10109000FC030C0C0804FFE080808080808080804E
:1010A0008080E0060A0A080100808040202010109D
:1010B000080404030C0C0801FFE02020202020205D
:1010C00020202020E006030308010930488407019E
:1010D000010801FFFE03030308020A8040200608FE
:1010E000080801007884047C84848C74060B0B0847
:1010F0000100808080B8C484848484C4B806080851
:101100000801007884808080808478060B0B0801B9
:1011100000040404748C848484848C740608080895
:101120000100788484FC80808478050B0B08010022
:1011300018202020F8202020202020060B0B08015A
:10114000FE0474888888704078848478060B0B08C5
:101150000100808080B8C4848484848484050B0B5F
:1011600008020020200060202020202020F8050D0B
:101170000D0801FE0808001808080808080808906B
:1011800060060B0B0801008080808890A0C0A090B2
:101190008884050B0B0802006020202020202020DE
:1011A0002020F8070808080100EC9292929292928F
:1011B00092060808080100B8C484848484848406E4
:1011C00008080801007884848484848478060A0AE4
:1011D0000801FEB8C484848484C4B88080060A0AE6
:1011E0000801FE748C848484848C740404060808CA
:1011F000080100B8C4848080808080060808080147
:10120000007884806018048478050A0A08010020A8
:101210002020F8202020202018060808080100843B
:1012200084848484848C740608080801008484847F
:10123000484848303007080808010082929292928C
:1012400092926C0608080801008484483030488473
:1012500084060A0A0801FE84848484844C340404CD
:1012600078060808080100FC040810204080FC03F0
:101270000C0C0803FF6080804040808040408080EC
:1012800060010E0E0804FE80808080808080808057
:101290008080808080030C0C0802FFC0202040402A
:1012A000202040402020C007030308010862928CE0
:1012B0001010201000FEAAAA00018000000180008A
:1012C00073D1CA104BD1CA1073DF800000018000B7
:1012D0000001800055551010201000FEAAAA000140
:1012E000800000018000719DCA5273D3C252425DDA
:1012F0008000000180000001800055551010201072
:1013000000FEAAAA0001800000018000499DCA5287
:101310007A5DCA5049918000000180000001800080
:1013200055551010201000FEAAAA000180000001EF
:1013300080007393CA52739FCA1272138000000117
:1013400080000001800055551010201000FEAAAA50
:1013500000018000000180004B93EA525B9FCA525B
:101360004B93800000018000000180005555101053
:10137000201000FEAAAA000180000001800074B9BC
:10138000A6A425A5A4A474B98000000180000001D2
:10139000800055551010201000FEAAAA0001800000
:1013A000000180004BD1EA105BD1CA104BDF8000F6
:1013B000000180000001800055551010201000FE33
:1013C000AAAA000180000001800039CDC212319F1D
:1013D0008852739380000001800000018000555501
:1013E0001010201000FEAAAA000180000001800059
:1013F00079CDC212799FC0527B938000000180009A
:101400000001800055551010201000FEAAAA00010E
:101410008000000180004B9DC9207919C904493919
:101420008000000180000001800055551010201040
:1014300000FEAAAA000180000001800025DDA4842E
:101440003C85A48424998000000180000001800074
:1014500055551010201000FEAAAA000180000001BE
:10146000800045CDC4904489A88410998000000173
:1014700080000001800055551010201000FEAAAA1F
:101480000001800000018000721DCA127213C21296
:1014900043DD8000000180000001800055551010E0
:1014A000201000FEAAAA0001800000018000721333
:1014B000CA127213C21243CD8000000180000001E5
:1014C000800055551010201000FEAAAA00018000CF
:1014D000000180000E2189200E218A200921800030
:1014E000000180000001800055551010201000FE02
:1014F000AAAA000180000001800039DDC202318DFE
:101500008850739F800000018000000180005555C5
:101510001010201000FEAAAA000180000001800027
:1015200039DDC202318D8842739D80000001800048
:101530000001800055551010201000FEAAAA0001DD
:1015400080000001800071CFCA104A0DCA0271DD0F
:10155000800000018000000180005555101020100F
:1015600000FEAAAA00018000000180007245CA4C5A
:101570007245C244418F800000018000000180005C
:1015800055551010201000FEAAAA0001800000018D
:101590008000725DCA42724DC250419F80000001BE
:1015A00080000001800055551010201000FEAAAAEE
:1015B00000018000000180003B9DC1203119890499
:1015C0007139800000018000000180005555101025
:1015D000201000FEAAAA000180000001800039D37B
:1015E000C212421FC21239D38000000180000001E4
:1015F000800055551010201000FEAAAA000180009E
:10160000000180002289B6882AA9A2D822898000F8
:10161000000180000001800055551010201000FED0
:10162000AAAA00018000000180003B8DC252339FB6
:101630008A1272138000000180000001800055555D
:101640001010201000FEAAAA0001800000018000F6
:101650007B8DC2527B9FC2127A13800000018000F2
:101660000001800055551010201000FEAAAA0001AC
:10167000800000018000398FC250324D8A42719D36
:1016800080000001800000018000555510102010DE
:1016900000FEAAAA0001800000018000339BC42242
:1016A00025A394A2639B80000001800000018000BC
:1016B00055551010201000FEAAAA0001800000015C
:1016C000800039DDC20832098A0871DD800000011E
:1016D00080000001800055551010201000FEAAAABD
:1016E000000180000001800039DDC2084189C04846
:1016F0003B9D8000000180000001800055551010C6
:10170000201000FEAAAA00018000000180000EF94E
:1017100090200C2182201C2180000001800000010B
:10172000800055551010201000FEAAAA000180006C
:101730000001800031CFCA104991C850338F80001A
:10174000000180000001800055551010201000FE9F
:10175000AAAA00018000000180001C8992D81CA95F
:10176000908810898000000180000001800055559C
:101770001010201000FEAAAA0001800000018000C5
:10178000338FCA507B91CA104A0F8000000180003D
:1017900000018000555500000008000E010A0A08EB
:1017A000040080800080808080808080070A0A0892
:1017B000010010107C929090927C1010070A0A0889
:1017C00001001C202020F82020207CC206080808E8
:1017D00001018448784848784884070A0A080100CB
:1017E00082442810FE10FE101010010A0A0804009E
:1017F00080808080000080808080060A0A080100C6
:101800007884807884847804847804020208020C46
:101810009090080A0A0800003C4299A5A1A1A59948
:10182000423C050707080205700878887800F8062A
:101830000909080100242448489048482424060443
:1018400004080100FC0404041010201000FEAAAAE1
:10185000000180003A63C25433C98A48724980004B
:101860000001800003C18000000180005555080A76
:101870000A0800003C42B9A5A5B9A9A5423C060149
:101880000108010BFC03040408020A40A0A0400761
:101890000909080101101010FE10101000FE0507C4
:1018A00007080205708808708080F805070708029D
:1018B000057088087008887003030308030A204035
:1018C00080080A0A0800FE424242424242665940EB
:1018D00080060C0C0801FF7CF4F4F4F47414141466
:1018E00014141C020202080304C0C003020208020E
:1018F000FE20C00307070802052060A0202020204A
:10190000050707080205708888887000F80609092D
:10191000080100909048482448489090060A0A0818
:10192000010044C4485050242C549C84060A0A08E0
:10193000010044C4485050283444889C060A0A08D0
:101940000100C4244830D0242C549C84060A0A0880
:10195000010010100010106084848478060E0E08B8
:101960000100601800003048488484FC848484842A
:10197000060E0E080100186000003048488484FC00
:1019800084848484060E0E0801003048000030482C
:10199000488484FC84848484060E0E0801006498C4
:1019A00000003048488484FC84848484060E0E0839
:1019B0000100484800003048488484FC84848484C2
:1019C000060E0E080100304830003048488484FC80
:1019D00084848484070A0A0801003E509090FE9097
:1019E0009090909E060C0C0801FE78848480808084
:1019F000808484781060060E0E08010060180000D4
:101A0000FC808080F880808080FC060E0E0801003B
:101A100018600000FC808080F880808080FC060ECA
:101A20000E08010030480000FC808080F880808033
:101A300080FC060E0E08010048480000FC808080F3
:101A4000F880808080FC050E0E08020060180000FF
:101A5000F82020202020202020F8050E0E0802006B
:101A600030C00000F82020202020202020F8050E83
:101A70000E08020060900000F82020202020202086
:101A800020F8050E0E08020090900000F82020209B
:101A90002020202020F8070A0A080000784442424B
:101AA000F24242424478060E0E080100649800009B
:101AB00084C4C4A4A494948C8C84060E0E080100E3
:101AC0006018000078848484848484848478060E7A
:101AD0000E08010018600000788484848484848463
:101AE0008478060E0E080100304800007884848453
:101AF000848484848478060E0E08010064980000B3
:101B000078848484848484848478060E0E0801009A
:101B1000484800007884848484848484847806051A
:101B2000050801028448304884060C0C0801FF04B3
:101B300074888C9494A4A4C444B880060E0E080142
:101B400000601800008484848484848484847806FB
:101B50000E0E08010018600000848484848484844C
:101B6000848478060E0E08010030480000848484C6
:101B700084848484848478060E0E0801004848001A
:101B80000084848484848484848478070E0E08010D
:101B900000186000008282444428101010101006C3
:101BA0000B0B0801008080F088848488F08080809E
:101BB000060A0A08010070888890B0888484A49876
:101BC000060C0C080100601800007884047C8484F2
:101BD0008C74060C0C080100186000007884047CEA
:101BE00084848C74060C0C08010030480000788452
:101BF000047C84848C74060C0C080100649800003A
:101C00007884047C84848C74060C0C080100484899
:101C100000007884047C84848C74060D0D08010017
:101C200030483000007884047C84848C7407080871
:101C30000801007C92127E9090927C060A0A0801AC
:101C4000FE78848080808084781060060C0C080107
:101C50000060180000788484FC80808478060C0C76
:101C600008010018600000788484FC808084780675
:101C70000C0C08010030480000788484FC808084CB
:101C800078060C0C08010048480000788484FC8029
:101C9000808478050C0C080200C030000060202011
:101CA00020202020F8050C0C08020030C000006045
:101CB000202020202020F8050C0C08020060900055
:101CC0000060202020202020F8050C0C0802009045
:101CD00090000060202020202020F8060C0C080135
:101CE0000064182844047C848484848478060C0C62
:101CF00008010064980000B8C48484848484840645
:101D00000C0C0801006018000078848484848484AA
:101D100078060C0C08010018600000788484848424
:101D2000848478060C0C0801003048000078848414
:101D30008484848478060C0C080100649800007880
:101D400084848484848478060C0C0801004848004C
:101D5000007884848484848478060707080101302D
:101D60000000FC000030060A0A0801FF04788C9489
:101D700094A4A4C47880060C0C080100601800002C
:101D80008484848484848C74060C0C08010018609C
:101D900000008484848484848C74060C0C08010004
:101DA000304800008484848484848C74060C0C087D
:101DB0000100484800008484848484848C74060E66
:101DC0000E0801FE1860000084848484844C34046E
:101DD0000478050C0C0802FE8080F088888890A0AA
:101DE000C0808080060E0E0801FE484800008484F2
:101DF0008484844C34040478781711241FBECFEFF8
:101E0000D8E0DEBFCDBF11E0A0E0B1E0E8E6F6E348
:101E100002C005900D92AA32B107D9F722E0AAE2DA
:101E2000B1E001C01D92AA30B207E1F71EE0CDEF8C
:101E3000DEE004C02197FE010E94091BCC3FD107C0
:101E4000C9F70E9439160C94321B0C9400008BE3E6
:101E50009FE10197F1F708958091D4019091D50108
:101E6000009739F12091E701FC01211123C035963B
:101E7000E491E093E801FC013C96E491E093E901F0
:101E80008091E801082E000C990B2091E901821B3A
:101E9000910927FD93952091EA01203441F0829F1A
:101EA000C001112426E0969587952A95E1F7809345
:101EB000EB010895213039F43F96E491E093E80175
:101EC000FC017096DACF3D96E491E093E801FC01C5
:101ED0003E96D3CF90E0FC01E851FF4F2491FC01E6
:101EE000EF52FF4F3491FC01E654FF4FE491EE2393
:101EF000C9F0222339F0243001F1A8F4223069F12D
:101F0000233079F1F0E0EE0FFF1FE055FF4FA59170
:101F1000B4918FB7F894EC91611126C030953E23AF
:101F20003C938FBF0895283071F0293091F025300F
:101F300049F7809180008F7D03C0809180008F776A
:101F400080938000DFCF8091B0008F778093B000C6
:101F5000D9CF8091B0008F7DF9CF84B58F7784BDC4
:101F6000D1CF84B58F7DFBCF3E2BDACFCF93DF93DC
:101F700090E0FC01EF52FF4F249186549F4FFC01EB
:101F800084918823D1F090E0880F991FFC01EA55D5
:101F9000FF4FA591B491FC01E055FF4FC591D4913D
:101FA000623071F49FB7F8943C91822F809583231F
:101FB0008C93E8812E2B28839FBFDF91CF910895CA
:101FC0008FB7F894EC912E2B2C938FBFF6CF3FB7A1
:101FD000F8948091C8019091C901A091CA01B09173
:101FE000CB0126B5A89B05C02F3F19F00196A11D76
:101FF000B11D3FBFBA2FA92F982F8827BC01CD0153
:10200000620F711D811D911D42E0660F771F881FB1
:10201000991F4A95D1F7089580E008950895AF92E9
:10202000BF92CF92DF92EF92FF920F931F93CF93C5
:10203000DF936C017B018B01040F151FEB015E0127
:10204000AE18BF08C017D10759F06991D601ED91BC
:10205000FC910190F081E02DC6010995892B79F75B
:10206000C501DF91CF911F910F91FF90EF90DF900D
:10207000CF90BF90AF900895860F911DFC0183A172
:102080008F3F19F0642F0C946A0F0895FC01808132
:102090009281980F92832181921760F494819F5FBF
:1020A00094839381890F821710F08FEF820F8383BF
:1020B00081E0089580E00895FC01128280818150C2
:1020C0008383148208952EE93FE0009709F4089570
:1020D000F9013197F1F70197F8CF3091B6014091AE
:1020E000B5015091B4016091B301A091B101B091DB
:1020F000B201E091AF01F091B0019FB79093AE01B2
:10210000F8949C91392B9C91492398E087FF0EC04D
:102110003C93880F2081262320832081252B208338
:102120009150A1F78091AE018FBF08954C93F1CFEC
:10213000CF93C62F81111BC088EF0E946D108C2F8A
:10214000807F0E946D108C2F8295807F0E946D1081
:1021500088E290E0FC013197F1F7FC013197F1F74B
:10216000FC013197F1F70197F1F7CF910895813094
:1021700031F78AEFE2CF90E0FC01E654FF4FE491A3
:10218000F0E0EE0FFF1FE055FF4F259134913093A3
:10219000B2012093B10170E0FB01E654FF4FE491DE
:1021A000F0E0EE0FFF1FE055FF4F25913491309383
:1021B000B0012093AF018F529F4FFC018491809317
:1021C000B6016F527F4FFB0164916093B40160953B
:1021D0006093B30180958093B5010895EF92FF92CB
:1021E0000F931F93CF93DF93EC01142F790161506C
:1021F000673008F039C0E62FF0E0EF5FFE4E0C9438
:10220000091B0811901144113C11521157118D11E5
:102210007C0183E2E80EF11C8E01005D1F4FF70187
:1022200081917F018F3F49F061E00E94B60F61E02C
:10223000F701319780810E946A0FE016F10679F765
:1022400040E062E0CE010E943C1041E064E0CE013B
:102250000E943C1040E065E0CE010E943C106FA15E
:1022600088A50E94BB101EA281E0DF91CF911F9133
:102270000F91FF90EF9008958BA160E08F3FA1F345
:10228000CE010E943C10F0CF411103C040E062E05B
:10229000F7CF41E062E00E943C106FA188A50E9448
:1022A000BB10E2CF642F8EA10E949810DDCF8EA1CB
:1022B000811115C088EF0E946D10C8E2D0E01111A5
:1022C00012C088E290E0FC013197F1F7FC013197F0
:1022D000F1F7FC013197F1F70197F1F7C5CF8130A4
:1022E00061F78AEFE8CFF7018081807F0E946D104F
:1022F000F70181917F018295807F0E946D101150BE
:10230000CE010197F1F7DBCFF70164918EA10E9416
:102310009810FFEFEF1AFF0A11501111F5CFA4CF5B
:102320004EA3A2CFDB011496ED91FC9130E020E0AA
:1023300065E00994DB011496ED91FC9130E020E01A
:1023400062E00994DB011496ED91FC9130E020E00D
:1023500063E009940895CF93DF93EC01AE81BF81D0
:102360009D81969596959695862F8770E0E8F0E08A
:1023700002C0F595E7958A95E2F78A81481B499F47
:10238000402D1124669566956695460F5527551F75
:10239000A40FB51F8C91222329F0E82BEC93DF9139
:1023A000CF910895E095E823F9CFFB014181DC014D
:1023B00012962C911297421768F013962C9113974E
:1023C000241740F0608115962C91621718F424812F
:1023D0000C94AB110895DB01ED91FC9109940F93DE
:1023E0001F93CF93DF931F92CDB7DEB70091D20139
:1023F0001091D301E0910102F091020282E009956F
:1024000030E020E04AE0B80180ED91E00E94EB115D
:10241000182FE0910102F091020283E00995E0910A
:102420000102F091020280E009951123B9F1609157
:10243000D2017091D3019E012F5F3F4F46E480EDA2
:1024400091E00E94EB1189818093D0016091D201CB
:102450007091D3019E012F5F3F4F47E480ED91E0E3
:102460000E94EB1189818093D1016091D20170911A
:10247000D30130E020E048E480ED91E00E94EB11D0
:102480008093DB016091D2017091D30123E032E0AF
:1024900047E180ED91E00E94EB1111E0812F0F9058
:1024A000DF91CF911F910F9108950B96FC018491BC
:1024B00008950A96FC0184910895FC018491089581
:1024C0000E945D12882321F0823011F083E008958C
:1024D00086E00895FC01E60FF11D849190E0982FAD
:1024E00088273196E4918E0F911D089568E00C9431
:1024F0006A1266E00C946A125F926F927F928F92DA
:102500009F92AF92BF92CF92DF92EF92FF920F9382
:102510001F93CF93DF93EC01E62EF42EC22E0C8195
:102520001D81C8010E945D12D82E8C819D810E9460
:102530006012982E21E0AA24AA94D21202C02FE0A1
:10254000A22E8C819D810E945912D82E8C819D8152
:102550000E945512B82E8C819D810E947612E0E671
:10256000EC1578F4009769F0080F191F91E6D92E41
:10257000BC14C0F4188A1B8A1C8A198A1A8A80E043
:10258000A0C08C819D810E947912F0E4FC1538F482
:10259000009729F0080F191F81E4D82EE9CF0F5EAC
:1025A0001F4FE6CFBD1430F3892D90E0F801249140
:1025B0002F3F31F40F5F1F4FBD14E1F2D394F6CFDC
:1025C000CD1072C08C819D810E945D1298012F5F99
:1025D0003F4FF801882319F0823009F04EC08491F2
:1025E0008B8BF90124912C8BF8013396E491E88BC5
:1025F000F8013496E491E98BF8013596E491EA8B81
:102600000115110509F4BBCF8C819D810E946012D8
:102610003C89F31A9A89F91A9FEF930F9F0D2CA901
:102620004EA94F1508F449C0921718F49F1508F0E9
:1026300047C02B899989E90E9FEF920F9E0D4BA9F8
:102640005DA95E1508F44DC0941718F49E1508F0A6
:1026500037C0080F111D295F722E769476947694F8
:102660006F2C630E5E01FCE1AF0EB11C872C912C28
:10267000F61431F15E2C68014AC08491982F9F7046
:1026800092509A8B82958F70898BF9012491822FB9
:102690008F708C8B22952F702B8BF8013296E491E2
:1026A000E295EF70E88BACCF3296E491EA21E80F27
:1026B000F92FF11D0E0F1F1F7FCF921708F0B6CF15
:1026C0008889DF91CF911F910F91FF90EF90DF905C
:1026D000CF90BF90AF909F908F907F906F905F90C2
:1026E0000895941708F0B2CFEBCFF60184916A8178
:1026F0007B815C8EFD8E1F8E8E8F95014BE3CE010C
:102700000E94EB11FFEFCF1ADF0A28E0520E8C2D4A
:10271000801B871550F3080D191DF394A9CFFF9264
:102720000F931F93CF93DF93D82FF62E8A01E0915A
:10273000E501F091E60180ED91E00995F80EC0E029
:10274000F8012491222359F04F2D6D2F80ED91E057
:102750000E947C12D80FC80F0F5F1F4FF1CF8C2F34
:10276000DF91CF911F910F91FF9008959F92AF92AB
:10277000BF92CF92DF92EF92FF920F931F93CF936E
:10278000DF937C018B01942E69018AE0481739F1AF
:1027900095E1491709F486C0F801C281D381F2E3BB
:1027A0009F1609F429C1F91508F4CBC085E19816E4
:1027B00009F427C197E1991609F433C1A4E19A12EB
:1027C000EFC0EE81FF818D818E0F9F2F911D1192A1
:1027D0008E179F07E1F7CE010E945C10E1C0DB017C
:1027E0001496ED91FC9130E020E043E061E0C701F8
:1027F000099580E092E7A92E90E0B92EF501C491E9
:10280000811110C081E0CF3F49F04C2FB801C701C2
:102810000E949211882309F4BFCF80E0BFEFAB1A6A
:10282000BB0AECCF4FEFCF3F89F3CE3F09F4B4CFD3
:10283000C03F98F7C03E38F04C2F4F70B801C70129
:102840000E949A11EACFC03D38F04C2F4F70B8016A
:10285000C7010E94A211E1CFC03CF8F0D801149644
:10286000ED91FC9130E020E040E064E0C701099583
:10287000C295C07FCE5FD0E0CE010E946310D80128
:102880001496ED91FC9130E020E041E064E0C70156
:102890000995CE010E946310C0CFC7FDBECF8C2F1B
:1028A00090E0F8CFFB01A280B38040E0C7010E9416
:1028B0009A1141E0B801C7010E94A211D5011296F8
:1028C000CC9112971696AD90BC90D8E0DC0F40E00A
:1028D000B801C7010E949A114EE3B801C7010E94D6
:1028E0009211C03228F54C2F4068B801C7010E94F0
:1028F000921140E8B801C7010E94921141E0B8016D
:10290000C7010E949A11D8011496ED91FC9195018E
:1029100040E166E0C7010995B0E1AB0EB11CCF5FA5
:10292000CD13D5CF40E0B801C7010E94A21134CF2A
:1029300040EE4C0F4068B801C7010E94921148E870
:10294000D9CFB6E49B1609F47BC0E7E49E1609F4E0
:102950007BC0FBE39F1224C0D60111969C91119776
:1029600013968C9138E0390F813031F0833011F0BB
:10297000392F02C0392F985021E04B81491708F4B4
:1029800020E041E0391708F040E091E05A81351726
:1029900008F490E0322F342B932379F4242369F444
:1029A00081E0DF91CF911F910F91FF90EF90DF9029
:1029B000CF90BF90AF909F900895F601128100E0F4
:1029C000F12C843048F490E0FC01EE5DFE4FF08085
:1029D000825E9E4FDC010C9117FF04C0B601CE0150
:1029E0000E94D511F60180818F0D80838181800F37
:1029F0008183110F89F7D4CFB601CE010E94D51182
:102A0000CFCFCE010E944610882359F2EE81FF817C
:102A10008D818E0F9F2F911D11928E179F07E1F7C9
:102A2000BFCFD6011C928A8111968C9311978D810C
:102A3000815012968C9312978B8113968C93B0CF02
:102A40008D81F6018083ACCF8981D6018C93A8CF8C
:102A5000DC01ED91FD918081ED91FD919081ED91F1
:102A6000FD916C9163708E2309F064609F2309F0DF
:102A70006860E5E4F5E1E60FF11D659565956D93F8
:102A80006D917D918D919D91099423C01AC012C0C2
:102A900016C010C01EC009C014C013C006C019C0A3
:102AA00009C00DC007C00DC014C062507040804006
:102AB00090400BC0615070408040904006C06E5FF7
:102AC00001C06F5F7F4F8F4F9F4F9E938E937E937A
:102AD0006E9308958091AA019091AB010C942815F2
:102AE0008091AC019091AD010C942815DF92EF928A
:102AF000FF920F931F93CF93DF93EC01D62E1CAD63
:102B00000BAD7C0184E0E80EF11CE98DFA8DC70164
:102B10000995412F480F2D2D602FC7010E947C126F
:102B20009BAD890F8BAF81E090E0DF91CF911F913A
:102B30000F91FF90EF90DF900895089590E080E06E
:102B400008951F920F920FB60F9211242F933F9367
:102B50008F939F93AF93BF938091C4019091C501D0
:102B6000A091C601B091C7013091C30123E0230FAA
:102B70002D3768F126E8230F0296A11DB11D209381
:102B8000C3018093C4019093C501A093C601B09383
:102B9000C7018091C8019091C901A091CA01B0916B
:102BA000CB010196A11DB11D8093C8019093C9016D
:102BB000A093CA01B093CB01BF91AF919F918F9128
:102BC0003F912F910F900FBE0F901F901895019677
:102BD000A11DB11DD4CF1F920F920FB60F921124D9
:102BE0002F933F934F935F936F937F938F939F9315
:102BF000AF93BF93EF93FF93E0911001F091110118
:102C00000995FF91EF91BF91AF919F918F917F9126
:102C10006F915F914F913F912F910F900FBE0F9049
:102C20001F9018951F920F920FB60F9211242F9399
:102C30003F934F935F936F937F938F939F93AF9344
:102C4000BF93EF93FF93E0910E01F0910F0109956F
:102C5000FF91EF91BF91AF919F918F917F916F9174
:102C60005F914F913F912F910F900FBE0F901F904A
:102C70001895CF93DF93CDB7DEB72A970FB6F894A8
:102C8000DEBF0FBECDBF789484B5836084BD85B5AB
:102C9000836085BD80916E00816080936E0082E0CC
:102CA0008093810080918100816080938100809178
:102CB00080008160809380008091B1008460809367
:102CC000B1008091B00081608093B00087E880936C
:102CD0007A001092C1008E010F5F1F4F29E4222E4F
:102CE00028E0322E3CE0A32E30E1B32E4FEF842EAD
:102CF00040E0942E80910902811105C021E02093CB
:102D000009020E94EF11E090D201F090D301E0910E
:102D10000102F091020282E00995E0910102F09136
:102D2000020281E0099530E020E044E1B70180ED46
:102D300091E00E94EB1123E032E047E1B70180ED22
:102D400091E00E94EB11E0910102F091020280E01B
:102D500009958091D4019091D5018954984051F002
:102D60003092D5012092D4010E942C0FB092E6013E
:102D7000A092E50149E950E065E181E00E948F13EE
:102D800049E950E064E180E00E948F1349E850E097
:102D900068E280E00E948F138091C201823008F0C7
:102DA0009DC0F89487EB91E00E9428158091BE01A8
:102DB0009091BF0178949F938F9386E291E09F93C7
:102DC0008F931F930F930E940F1B0F900F900F90E4
:102DD0000F900F900F908091D4019091D5018F5F4B
:102DE000904051F09092D5018092D4010E942C0F16
:102DF000B092E601A092E501E091E501F091E601D3
:102E000080ED91E0099592E3C92EC80E7801D12C8E
:102E1000F70121917F01211163C0E091DE01F09162
:102E2000DF01309719F080ED91E00995E090D20133
:102E3000F090D301E0910102F091020282E0099545
:102E4000E0910102F091020281E0099530E020E07A
:102E500045E1B70180ED91E00E94EB11D82E882367
:102E600041F023E032E047E1B70180ED91E00E94BC
:102E7000EB11E0910102F091020280E00995D1107E
:102E800068CF0E94E70F2B013C0184EFC82EDD24A0
:102E9000D394E12CF12C0E94E70F6419750986097F
:102EA0009709683E734081059105A8F3F1E0CF1AB8
:102EB000D108E108F10828EE420E23E0521E611C01
:102EC000711CC114D104E104F10429F780E090E001
:102ED000892B09F40FCF0E9400000CCFF89466CF25
:102EE0004C2D6D2D80ED91E00E947C12D80E90CF7C
:102EF0001092CF011092CE0186E191E09093CD0126
:102F00008093CC01109207021092080210920902DD
:102F10001092D5011092D4011092D7011092D601CF
:102F20001092D90181E08093D80182E28093DA0186
:102F30001092DF011092DE01E3EFF1E021E032E0D8
:102F40008FEF81932E173F07E1F791E09093F00107
:102F50002CE030E13093E6012093E5019093E70106
:102F60001092E8011092E90190E49093EA01109226
:102F7000EB012AEA31E1309302022093010228E0BA
:102F800031E03093D3012093D20191E19093F70186
:102F900093E19093F80192E19093F5018093F4010D
:102FA0008093F3010E94EF1186E191E09093CD01AF
:102FB0008093CC0162E082E00E94B60F62E083E081
:102FC0000E94B60FECEBF0E0E491F0E0EE0FFF1F93
:102FD000E859FF4F859194919093B8018093B70180
:102FE000E3EDF0E0E491E093BB01EDEBF0E0E49180
:102FF000F0E0EE0FFF1FE859FF4F859194919093F9
:10300000BA018093B901E4EDF0E0E491E093BC01F2
:103010001092BE011092BF011092C0011092C10126
:103020000E94270FE091B701F091B8019081809143
:10303000BB01982381E009F480E0E091B901F091AF
:10304000BA0190812091BC01922309F0826027EBA4
:1030500031E08093BD013093AB012093AA018AE651
:1030600095E190930F0180930E01809169008C7F10
:10307000816080936900E89A81E08093C201309377
:10308000AD012093AC0180E795E19093110180930D
:10309000100180916900837F846080936900E99AC0
:1030A00082E08093C2010895ABE0B0E0EAE5F8E188
:1030B0000C94D21A7C013B018A01FC011782168212
:1030C000838181FFC8C1CE0101965C01F701938124
:1030D000F30193FD859193FF81913F01882309F4CA
:1030E00053C1853239F493FD859193FF81913F015E
:1030F000853229F4B70190E00E94441AE7CF912C61
:10310000212C312CFFE1F31538F08B3211F190F4C2
:10311000803209F1833229F137FC3CC020ED280FC1
:103120002A3050F536FE20C08AE0989E200D1124EA
:10313000922E06C08D3291F0803371F7689430F88A
:10314000F30193FD859193FF81913F018111DACFC6
:1031500021C0689431F8689432F8F2CF689433F85B
:10316000EFCF689434F8ECCFEAE02E9E200D1124C6
:10317000222E689435F8E4CF8E3229F436FC04C14F
:10318000689436F8DDCF8C3619F4689437F8D8CFC8
:103190008836B1F2982F9F7D95549330E0F08336B6
:1031A000A1F18337C1F1833509F063C02801F2E052
:1031B0004F0E511CF801C080D180692D70E036FCA3
:1031C00002C06FEF7FEFC6010E942E1A4C01689477
:1031D00037F882010AC00C5F1F4FFFE3F983882490
:1031E0008394912C6501E89437F833FE2DC0522C5E
:1031F0008114910471F5552009F468CFB70180E27C
:1032000090E00E94441A5A94F6CFF8018081898395
:103210000E5F1F4FE4CF2801F2E04F0E511CF80162
:10322000C080D180692D70E036FC02C06FEF7FEF67
:10323000C6010E94391A4C018201D5CFB70180E244
:1032400090E00E94441A2A942814190409F0B0F757
:10325000CECFF60137FC859137FE81916F01B70122
:1032600090E00E94441A51105A94F1E08F1A91088C
:10327000BFCF843619F0893609F077C0F80137FEE0
:103280006BC060817181828193810C5F1F4FF32D30
:10329000FF763F2E97FF09C09095809570956195B8
:1032A0007F4F8F4F9F4F689437F82AE030E0A50199
:1032B0000E94741AC82ECA188C2C432C36FE0CC0DF
:1032C000E89440F8C91440F434FE05C032FC03C051
:1032D000F32DFE7E4F2E892C44FE95C0FE01EC0D91
:1032E000F11D8081803309F087C0242D297E422E74
:1032F000842D8870582E43FC95C040FE8FC09C2CB6
:10330000821418F42C0C922C981844FE91C0B7012A
:1033100080E390E00E94441A42FE09C088E790E0F2
:1033200041FE02C088E590E0B7010E94441AC9142A
:1033300008F48AC0CA94D12C9FEFC91AD90ACA0CC2
:10334000DB1CF60182916F01B70190E00E94441AE4
:10335000AC14BD04B1F74FCF60817181072E000C12
:10336000880B990B0E5F1F4F92CFD32CE894D4F8A3
:103370002AE030E0853739F1232D297FD22E8F3690
:1033800001F148F48835A9F0F701868197812B96E1
:10339000E2E10C94EE1A803749F08837A9F7D4FEA1
:1033A00002C06894D2F820E130E00DC06894D4F8EF
:1033B000F6CF34FE03C0822F8660D82E20E132E0A3
:1033C00002C028E030E0F801D7FE0FC060817181B3
:1033D000828193810C5F1F4FA5010E94741AC82E31
:1033E000CA183D2CE89437F867CF6081718190E06E
:1033F00080E00E5F1F4FF0CF42FC02C0839478CF75
:103400008394839475CF842D867809F471CFF6CF99
:10341000B70180E290E00E94441A83948214C0F3C2
:10342000512C73CF522C5818821408F46ECFF8CF59
:10343000842D867809F47BCF8BE241FE80E247FC45
:103440008DE2B70190E071CFB70180E390E00E9478
:10345000441A9A946CCF8FEF9FEF99CFFC0105909F
:10346000615070400110D8F7809590958E0F9F1F86
:103470000895FC016150704001900110D8F78095CB
:1034800090958E0F9F1F08950F931F93CF93DF93F7
:10349000182F092FEB018B8181FD09C01FEF0FEF62
:1034A000812F902FDF91CF911F910F91089582FF6F
:1034B00014C02E813F818C819D81281739073CF4EF
:1034C000E881F981CF0101969983888310838E81E9
:1034D0009F8101969F838E83E3CFE885F985812FB5
:1034E0000995892BA1F3DACFFA01AA27283051F1E7
:1034F000203181F1E8946F936E7F6E5F7F4F8F4F25
:103500009F4FAF4FB1E03ED0B4E03CD0670F781F83
:10351000891F9A1FA11D680F791F8A1F911DA11D68
:103520006A0F711D811D911DA11D20D009F46894A1
:103530003F912AE0269F11243019305D3193DEF649
:10354000CF010895462F4770405D4193B3E00FD0FF
:10355000C9F7F6CF462F4F70405D4A3318F0495DEA
:1035600031FD4052419302D0A9F7EACFB4E0A695CD
:103570009795879577956795BA95C9F700976105EF
:10358000710508959B01AC010A2E06945795479545
:1035900037952795BA95C9F7620F731F841F951F3A
:1035A000A01D08952F923F924F925F926F927F924B
:1035B0008F929F92AF92BF92CF92DF92EF92FF9243
:1035C0000F931F93CF93DF93CDB7DEB7CA1BDB0BEF
:1035D0000FB6F894DEBF0FBECDBF09942A88398894
:1035E00048885F846E847D848C849B84AA84B9849B
:1035F000C884DF80EE80FD800C811B81AA81B981A7
:10360000CE0FD11D0FB6F894DEBF0FBECDBFED01BA
:103610000895EE0FFF1F0590F491E02D0994AEE0A0
:10362000B0E0E5E1FBE10C94E01A0D891E8986E02B
:103630008C831A8309838FEF9FE79E838D83AE016E
:10364000475E5F4F6F89788DCE0101960E945418B6
:103650002F813885020F131FF80110822E96E4E0A7
:083660000C94FC1AF894FFCF52
:103668000840000000802A01B6130001EE100E1079
:1036780000000000000076150F109E159D15000132
:0A36880000FF0100FF00253664007A
:00000001FF
